{
  "abi": [
    {
      "inputs": [
        {
          "internalType": "uint256",
          "name": "randomNumber",
          "type": "uint256"
        },
        {
          "internalType": "uint256",
          "name": "seed",
          "type": "uint256"
        }
      ],
      "name": "getModdedRNG",
      "outputs": [
        {
          "internalType": "uint256",
          "name": "modded_rng",
          "type": "uint256"
        }
      ],
      "stateMutability": "pure",
      "type": "function"
    },
    {
      "inputs": [],
      "name": "maxChanceValue",
      "outputs": [
        {
          "internalType": "uint256",
          "name": "",
          "type": "uint256"
        }
      ],
      "stateMutability": "view",
      "type": "function"
    },
    {
      "inputs": [],
      "name": "purr",
      "outputs": [
        {
          "internalType": "string",
          "name": "",
          "type": "string"
        }
      ],
      "stateMutability": "view",
      "type": "function"
    },
    {
      "inputs": [
        {
          "internalType": "uint256",
          "name": "randomNumber",
          "type": "uint256"
        }
      ],
      "name": "rngToCat",
      "outputs": [
        {
          "components": [
            {
              "internalType": "enum RetroCatsMetadata.Background",
              "name": "background",
              "type": "uint8"
            },
            {
              "internalType": "enum RetroCatsMetadata.Frame",
              "name": "frame",
              "type": "uint8"
            },
            {
              "internalType": "enum RetroCatsMetadata.Breed",
              "name": "breed",
              "type": "uint8"
            },
            {
              "internalType": "enum RetroCatsMetadata.Eyes",
              "name": "eyes",
              "type": "uint8"
            },
            {
              "internalType": "enum RetroCatsMetadata.Hair",
              "name": "hair",
              "type": "uint8"
            },
            {
              "internalType": "enum RetroCatsMetadata.Bling",
              "name": "bling",
              "type": "uint8"
            },
            {
              "internalType": "enum RetroCatsMetadata.Head",
              "name": "head",
              "type": "uint8"
            },
            {
              "internalType": "enum RetroCatsMetadata.Item",
              "name": "item",
              "type": "uint8"
            },
            {
              "internalType": "enum RetroCatsMetadata.Ring",
              "name": "ring",
              "type": "uint8"
            },
            {
              "internalType": "enum RetroCatsMetadata.Earring",
              "name": "earring",
              "type": "uint8"
            },
            {
              "internalType": "enum RetroCatsMetadata.Vice",
              "name": "vice",
              "type": "uint8"
            }
          ],
          "internalType": "struct RetroCatsMetadata.RetroCat",
          "name": "retroCat",
          "type": "tuple"
        }
      ],
      "stateMutability": "pure",
      "type": "function"
    },
    {
      "inputs": [],
      "name": "traits",
      "outputs": [
        {
          "components": [
            {
              "internalType": "uint256[34]",
              "name": "backgrounds",
              "type": "uint256[34]"
            },
            {
              "internalType": "uint256[12]",
              "name": "frames",
              "type": "uint256[12]"
            },
            {
              "internalType": "uint256[16]",
              "name": "breeds",
              "type": "uint256[16]"
            },
            {
              "internalType": "uint256[10]",
              "name": "eyes",
              "type": "uint256[10]"
            },
            {
              "internalType": "uint256[21]",
              "name": "hairs",
              "type": "uint256[21]"
            },
            {
              "internalType": "uint256[22]",
              "name": "blings",
              "type": "uint256[22]"
            },
            {
              "internalType": "uint256[21]",
              "name": "heads",
              "type": "uint256[21]"
            },
            {
              "internalType": "uint256[22]",
              "name": "items",
              "type": "uint256[22]"
            },
            {
              "internalType": "uint256[22]",
              "name": "rings",
              "type": "uint256[22]"
            },
            {
              "internalType": "uint256[22]",
              "name": "earrings",
              "type": "uint256[22]"
            },
            {
              "internalType": "uint256[22]",
              "name": "vices",
              "type": "uint256[22]"
            }
          ],
          "internalType": "struct RetroCatsMetadata.TraitMetadata",
          "name": "allTraits",
          "type": "tuple"
        }
      ],
      "stateMutability": "pure",
      "type": "function"
    }
  ],
  "bytecode": "608060405261271060005534801561001657600080fd5b506114c9806100266000396000f3fe608060405234801561001057600080fd5b50600436106100575760003560e01c806354b02b3b1461005c578063be5d23d314610096578063dc90579a146100ad578063dd6902fa146100cd578063e1fc334f146100e0575b600080fd5b610080604051806040016040528060058152602001644d656f772160d81b81525081565b60405161008d91906111e4565b60405180910390f35b61009f61271081565b60405190815260200161008d565b6100c06100bb36600461106d565b6100f5565b60405161008d9190611239565b61009f6100db366004611086565b6103b8565b6100e8610405565b60405161008d9190611317565b6100fd610ec2565b6000610107610405565b905060405180610160016040528061012d83600001516101288760006103b8565b610b5d565b602081111561013e5761013e611467565b602081111561014f5761014f611467565b815260200161016c83602001516101678760016103b8565b610c42565b600a81111561017d5761017d611467565b600a81111561018e5761018e611467565b81526020016101ab83604001516101a68760026103b8565b610cc2565b600e8111156101bc576101bc611467565b600e8111156101cd576101cd611467565b81526020016101ea83606001516101e58760036103b8565b610d42565b60088111156101fb576101fb611467565b600881111561020c5761020c611467565b815260200161022983608001516102248760046103b8565b610dc2565b601381111561023a5761023a611467565b601381111561024b5761024b611467565b81526020016102688360a001516102638760056103b8565b610e42565b601481111561027957610279611467565b601481111561028a5761028a611467565b81526020016102a28360c001516102248760066103b8565b60138111156102b3576102b3611467565b60138111156102c4576102c4611467565b81526020016102dc8360e001516102638760076103b8565b60148111156102ed576102ed611467565b60148111156102fe576102fe611467565b81526020016103178361010001516102638760086103b8565b601481111561032857610328611467565b601481111561033957610339611467565b81526020016103528361012001516102638760096103b8565b601481111561036357610363611467565b601481111561037457610374611467565b815260200161038d83610140015161026387600a6103b8565b601481111561039e5761039e611467565b60148111156103af576103af611467565b90529392505050565b60008083836040516020016103d7929190918252602082015260400190565b60408051601f19818403018152919052805160209091012090506103fd6127108261142f565b949350505050565b61040d610f1d565b6040518061016001604052806040518061044001604052806101f4815260200161044c815260200161025881526020016103e88152602001610384815260200161057881526020016102bc81526020016107d081526020016103208152602001610190815260200161010e8152602001601e8152602001606481526020016001815260200160068152602001600b8152602001601081526020016002815260200160078152602001600c8152602001601181526020016003815260200160088152602001600d8152602001601281526020016004815260200160098152602001600e81526020016013815260200160058152602001600a8152602001600f8152602001600a8152602001612710815250815260200160405180610180016040528060fa81526020016096815260200161012c815260200160c8815260200160288152602001600a815260200160508152602001604681526020016101908152602001606481526020016120d081526020016127108152508152602001604051806102000160405280605a81526020016102588152602001604b815260200161019081526020016103848152602001610a8c81526020016108348152602001609b8152602001610a2881526020016101188152602001602381526020016001815260200160058152602001603281526020016009815260200161271081525081526020016040518061014001604052806104b08152602001600a81526020016107d081526020016105788152602001605a815260200161070881526020016103e88152602001610640815260200161038481526020016127108152508152602001604051806102a001604052806102588152602001600481526020016103e881526020016104b081526020016104b08152602001600181526020016101f4815260200161012c81526020016102bc8152602001610640815260200161019081526020016101c281526020016005815260200160078152602001605081526020016003815260200161028a815260200161015e81526020016102ee815260200160c881526020016127108152508152602001604051806102c0016040528061044c815260200160c8815260200161032081526020016101f4815260200160c881526020016102bc815260200161057881526020016101908152602001610320815260200161025881526020016104b08152602001602881526020016002815260200161015e815260200160fa81526020016101c28152602001600581526020016032815260200161012c815260200161028a8152602001600381526020016127108152508152602001604051806102a001604052806104b0815260200161044c8152602001600181526020016105148152602001610258815260200161012c81526020016103e88152602001610190815260200161015e8152602001610384815260200160fa8152602001603c81526020016004815260200161012c815260200161022681526020016101f48152602001601e81526020016103b6815260200160c88152602001600581526020016127108152508152602001604051806102c00160405280605a815260200161032081526020016001815260200161057881526020016104b0815260200161038481526020016102bc8152602001610226815260200161051481526020016103e88152602001600681526020016101908152602001610258815260200160c8815260200160328152602001603c81526020016096815260200160fa81526020016028815260200161012c8152602001600381526020016127108152508152602001604051806102c0016040528061019081526020016103e8815260200161038481526020016102588152602001610352815260200161051481526020016104b0815260200161032081526020016101f481526020016102bc815260200160fa815260200160c881526020016096815260200160c881526020016101f48152602001603c815260200161015e8152602001601e81526020016001815260200160068152602001600381526020016127108152508152602001604051806102c0016040528061019081526020016001815260200160c88152602001605a81526020016104b081526020016101f4815260200160c881526020016103e8815260200161012c81526020016102588152602001610bb8815260200160fa81526020016101c2815260200160698152602001600781526020016005815260200161017781526020016102d5815260200161023f815260200160048152602001600d81526020016127108152508152602001604051806102c001604052806103e881526020016101a4815260200161044c81526020016105148152602001603281526020016104b081526020016105aa815260200160078152602001601e81526020016101f481526020016101908152602001610226815260200160c8815260200161028a81526020016101cc815260200160018152602001601481526020016036815260200160028152602001610258815260200160068152602001612710815250815250905090565b600080805b6022811015610bdd57818410158015610b9a5750848160228110610b8857610b8861147d565b6020020151610b9790836113fc565b84105b15610ba8579150610c3c9050565b848160228110610bba57610bba61147d565b6020020151610bc990836113fc565b915080610bd581611414565b915050610b62565b5060405162461bcd60e51b815260206004820152602960248201527f476f7420612076616c7565206f757473696465206f6620746865206d61784368604482015268616e636556616c756560b81b606482015260840160405180910390fd5b92915050565b600080805b600c811015610bdd57818410158015610c7f57508481600c8110610c6d57610c6d61147d565b6020020151610c7c90836113fc565b84105b15610c8d579150610c3c9050565b8481600c8110610c9f57610c9f61147d565b6020020151610cae90836113fc565b915080610cba81611414565b915050610c47565b600080805b6010811015610bdd57818410158015610cff5750848160108110610ced57610ced61147d565b6020020151610cfc90836113fc565b84105b15610d0d579150610c3c9050565b848160108110610d1f57610d1f61147d565b6020020151610d2e90836113fc565b915080610d3a81611414565b915050610cc7565b600080805b600a811015610bdd57818410158015610d7f57508481600a8110610d6d57610d6d61147d565b6020020151610d7c90836113fc565b84105b15610d8d579150610c3c9050565b8481600a8110610d9f57610d9f61147d565b6020020151610dae90836113fc565b915080610dba81611414565b915050610d47565b600080805b6015811015610bdd57818410158015610dff5750848160158110610ded57610ded61147d565b6020020151610dfc90836113fc565b84105b15610e0d579150610c3c9050565b848160158110610e1f57610e1f61147d565b6020020151610e2e90836113fc565b915080610e3a81611414565b915050610dc7565b600080805b6016811015610bdd57818410158015610e7f5750848160168110610e6d57610e6d61147d565b6020020151610e7c90836113fc565b84105b15610e8d579150610c3c9050565b848160168110610e9f57610e9f61147d565b6020020151610eae90836113fc565b915080610eba81611414565b915050610e47565b604080516101608101909152806000815260200160008152602001600081526020016000815260200160008152602001600081526020016000815260200160008152602001600081526020016000815260200160005b905290565b604051806101600160405280610f31610fb3565b8152602001610f3e610fd2565b8152602001610f4b610ff1565b8152602001610f58611010565b8152602001610f6561102f565b8152602001610f7261104e565b8152602001610f7f61102f565b8152602001610f8c61104e565b8152602001610f9961104e565b8152602001610fa661104e565b8152602001610f1861104e565b6040518061044001604052806022906020820280368337509192915050565b604051806101800160405280600c906020820280368337509192915050565b6040518061020001604052806010906020820280368337509192915050565b604051806101400160405280600a906020820280368337509192915050565b604051806102a001604052806015906020820280368337509192915050565b604051806102c001604052806016906020820280368337509192915050565b60006020828403121561107f57600080fd5b5035919050565b6000806040838503121561109957600080fd5b50508035926020909101359150565b8060005b600a8110156110cb5781518452602093840193909101906001016110ac565b50505050565b8060005b600c8110156110cb5781518452602093840193909101906001016110d5565b8060005b60108110156110cb5781518452602093840193909101906001016110f8565b8060005b60158110156110cb57815184526020938401939091019060010161111b565b8060005b60168110156110cb57815184526020938401939091019060010161113e565b8060005b60228110156110cb578151845260209384019390910190600101611161565b6021811061119057611190611467565b9052565b6015811061119057611190611467565b600f811061119057611190611467565b6009811061119057611190611467565b600b811061119057611190611467565b6014811061119057611190611467565b600060208083528351808285015260005b81811015611211578581018301518582016040015282016111f5565b81811115611223576000604083870101525b50601f01601f1916929092016040019392505050565b60006101608201905061124d828451611180565b602083015161125f60208401826111c4565b50604083015161127260408401826111a4565b50606083015161128560608401826111b4565b50608083015161129860808401826111d4565b5060a08301516112ab60a0840182611194565b5060c08301516112be60c08401826111d4565b5060e08301516112d160e0840182611194565b50610100808401516112e582850182611194565b5050610120808401516112fa82850182611194565b50506101408084015161130f82850182611194565b505092915050565b6000611c008201905061132b82845161115d565b602083015161133e6104408401826110d1565b5060408301516113526105c08401826110f4565b5060608301516113666107c08401826110a8565b50608083015161137a610900840182611117565b5060a083015161138e610ba084018261113a565b5060c08301516113a2610e60840182611117565b5060e08301516113b661110084018261113a565b506101008301516113cb6113c084018261113a565b506101208301516113e061168084018261113a565b506101408301516113f561194084018261113a565b5092915050565b6000821982111561140f5761140f611451565b500190565b600060001982141561142857611428611451565b5060010190565b60008261144c57634e487b7160e01b600052601260045260246000fd5b500690565b634e487b7160e01b600052601160045260246000fd5b634e487b7160e01b600052602160045260246000fd5b634e487b7160e01b600052603260045260246000fdfea26469706673582212206f17d74f780247a86d5e1107c727346f1fc2ce93446db1251151fac04f07c5de64736f6c63430008070033",
  "bytecodeSha1": "6ce939499f20214fa402d053a6d8264fd416813b",
  "compiler": {
    "evm_version": "istanbul",
    "optimizer": {
      "enabled": true,
      "runs": 200
    },
    "version": "0.8.7+commit.e28d00a7"
  },
  "contractName": "RetroCatsMetadata",
  "language": "Solidity",
  "natspec": {
    "kind": "dev",
    "methods": {
      "traits()": {
        "details": "Percentages for each traiteach row will always end with 10000 When picking a trait based on RNG, we will get a value between 0 - 99999 We choose the trait based on the sum of the integers up to the index For example, if my random number is 251, and my array is [250, 200, 10000]      This means my trait is at the 1st index. 251 is higher than 250, but lower than      250 + 200"
      }
    },
    "version": 1
  },
  "opcodes": "PUSH1 0x80 PUSH1 0x40 MSTORE CALLVALUE DUP1 ISZERO PUSH2 0x10 JUMPI PUSH1 0x0 DUP1 REVERT JUMPDEST POP PUSH1 0x4 CALLDATASIZE LT PUSH2 0x57 JUMPI PUSH1 0x0 CALLDATALOAD PUSH1 0xE0 SHR DUP1 PUSH4 0x54B02B3B EQ PUSH2 0x5C JUMPI DUP1 PUSH4 0xBE5D23D3 EQ PUSH2 0x96 JUMPI DUP1 PUSH4 0xDC90579A EQ PUSH2 0xAD JUMPI DUP1 PUSH4 0xDD6902FA EQ PUSH2 0xCD JUMPI DUP1 PUSH4 0xE1FC334F EQ PUSH2 0xE0 JUMPI JUMPDEST PUSH1 0x0 DUP1 REVERT JUMPDEST PUSH2 0x80 PUSH1 0x40 MLOAD DUP1 PUSH1 0x40 ADD PUSH1 0x40 MSTORE DUP1 PUSH1 0x5 DUP2 MSTORE PUSH1 0x20 ADD PUSH5 0x4D656F7721 PUSH1 0xD8 SHL DUP2 MSTORE POP DUP2 JUMP JUMPDEST PUSH1 0x40 MLOAD PUSH2 0x8D SWAP2 SWAP1 PUSH2 0x11E4 JUMP JUMPDEST PUSH1 0x40 MLOAD DUP1 SWAP2 SUB SWAP1 RETURN JUMPDEST PUSH2 0x9F PUSH2 0x2710 DUP2 JUMP JUMPDEST PUSH1 0x40 MLOAD SWAP1 DUP2 MSTORE PUSH1 0x20 ADD PUSH2 0x8D JUMP JUMPDEST PUSH2 0xC0 PUSH2 0xBB CALLDATASIZE PUSH1 0x4 PUSH2 0x106D JUMP JUMPDEST PUSH2 0xF5 JUMP JUMPDEST PUSH1 0x40 MLOAD PUSH2 0x8D SWAP2 SWAP1 PUSH2 0x1239 JUMP JUMPDEST PUSH2 0x9F PUSH2 0xDB CALLDATASIZE PUSH1 0x4 PUSH2 0x1086 JUMP JUMPDEST PUSH2 0x3B8 JUMP JUMPDEST PUSH2 0xE8 PUSH2 0x405 JUMP JUMPDEST PUSH1 0x40 MLOAD PUSH2 0x8D SWAP2 SWAP1 PUSH2 0x1317 JUMP JUMPDEST PUSH2 0xFD PUSH2 0xEC2 JUMP JUMPDEST PUSH1 0x0 PUSH2 0x107 PUSH2 0x405 JUMP JUMPDEST SWAP1 POP PUSH1 0x40 MLOAD DUP1 PUSH2 0x160 ADD PUSH1 0x40 MSTORE DUP1 PUSH2 0x12D DUP4 PUSH1 0x0 ADD MLOAD PUSH2 0x128 DUP8 PUSH1 0x0 PUSH2 0x3B8 JUMP JUMPDEST PUSH2 0xB5D JUMP JUMPDEST PUSH1 0x20 DUP2 GT ISZERO PUSH2 0x13E JUMPI PUSH2 0x13E PUSH2 0x1467 JUMP JUMPDEST PUSH1 0x20 DUP2 GT ISZERO PUSH2 0x14F JUMPI PUSH2 0x14F PUSH2 0x1467 JUMP JUMPDEST DUP2 MSTORE PUSH1 0x20 ADD PUSH2 0x16C DUP4 PUSH1 0x20 ADD MLOAD PUSH2 0x167 DUP8 PUSH1 0x1 PUSH2 0x3B8 JUMP JUMPDEST PUSH2 0xC42 JUMP JUMPDEST PUSH1 0xA DUP2 GT ISZERO PUSH2 0x17D JUMPI PUSH2 0x17D PUSH2 0x1467 JUMP JUMPDEST PUSH1 0xA DUP2 GT ISZERO PUSH2 0x18E JUMPI PUSH2 0x18E PUSH2 0x1467 JUMP JUMPDEST DUP2 MSTORE PUSH1 0x20 ADD PUSH2 0x1AB DUP4 PUSH1 0x40 ADD MLOAD PUSH2 0x1A6 DUP8 PUSH1 0x2 PUSH2 0x3B8 JUMP JUMPDEST PUSH2 0xCC2 JUMP JUMPDEST PUSH1 0xE DUP2 GT ISZERO PUSH2 0x1BC JUMPI PUSH2 0x1BC PUSH2 0x1467 JUMP JUMPDEST PUSH1 0xE DUP2 GT ISZERO PUSH2 0x1CD JUMPI PUSH2 0x1CD PUSH2 0x1467 JUMP JUMPDEST DUP2 MSTORE PUSH1 0x20 ADD PUSH2 0x1EA DUP4 PUSH1 0x60 ADD MLOAD PUSH2 0x1E5 DUP8 PUSH1 0x3 PUSH2 0x3B8 JUMP JUMPDEST PUSH2 0xD42 JUMP JUMPDEST PUSH1 0x8 DUP2 GT ISZERO PUSH2 0x1FB JUMPI PUSH2 0x1FB PUSH2 0x1467 JUMP JUMPDEST PUSH1 0x8 DUP2 GT ISZERO PUSH2 0x20C JUMPI PUSH2 0x20C PUSH2 0x1467 JUMP JUMPDEST DUP2 MSTORE PUSH1 0x20 ADD PUSH2 0x229 DUP4 PUSH1 0x80 ADD MLOAD PUSH2 0x224 DUP8 PUSH1 0x4 PUSH2 0x3B8 JUMP JUMPDEST PUSH2 0xDC2 JUMP JUMPDEST PUSH1 0x13 DUP2 GT ISZERO PUSH2 0x23A JUMPI PUSH2 0x23A PUSH2 0x1467 JUMP JUMPDEST PUSH1 0x13 DUP2 GT ISZERO PUSH2 0x24B JUMPI PUSH2 0x24B PUSH2 0x1467 JUMP JUMPDEST DUP2 MSTORE PUSH1 0x20 ADD PUSH2 0x268 DUP4 PUSH1 0xA0 ADD MLOAD PUSH2 0x263 DUP8 PUSH1 0x5 PUSH2 0x3B8 JUMP JUMPDEST PUSH2 0xE42 JUMP JUMPDEST PUSH1 0x14 DUP2 GT ISZERO PUSH2 0x279 JUMPI PUSH2 0x279 PUSH2 0x1467 JUMP JUMPDEST PUSH1 0x14 DUP2 GT ISZERO PUSH2 0x28A JUMPI PUSH2 0x28A PUSH2 0x1467 JUMP JUMPDEST DUP2 MSTORE PUSH1 0x20 ADD PUSH2 0x2A2 DUP4 PUSH1 0xC0 ADD MLOAD PUSH2 0x224 DUP8 PUSH1 0x6 PUSH2 0x3B8 JUMP JUMPDEST PUSH1 0x13 DUP2 GT ISZERO PUSH2 0x2B3 JUMPI PUSH2 0x2B3 PUSH2 0x1467 JUMP JUMPDEST PUSH1 0x13 DUP2 GT ISZERO PUSH2 0x2C4 JUMPI PUSH2 0x2C4 PUSH2 0x1467 JUMP JUMPDEST DUP2 MSTORE PUSH1 0x20 ADD PUSH2 0x2DC DUP4 PUSH1 0xE0 ADD MLOAD PUSH2 0x263 DUP8 PUSH1 0x7 PUSH2 0x3B8 JUMP JUMPDEST PUSH1 0x14 DUP2 GT ISZERO PUSH2 0x2ED JUMPI PUSH2 0x2ED PUSH2 0x1467 JUMP JUMPDEST PUSH1 0x14 DUP2 GT ISZERO PUSH2 0x2FE JUMPI PUSH2 0x2FE PUSH2 0x1467 JUMP JUMPDEST DUP2 MSTORE PUSH1 0x20 ADD PUSH2 0x317 DUP4 PUSH2 0x100 ADD MLOAD PUSH2 0x263 DUP8 PUSH1 0x8 PUSH2 0x3B8 JUMP JUMPDEST PUSH1 0x14 DUP2 GT ISZERO PUSH2 0x328 JUMPI PUSH2 0x328 PUSH2 0x1467 JUMP JUMPDEST PUSH1 0x14 DUP2 GT ISZERO PUSH2 0x339 JUMPI PUSH2 0x339 PUSH2 0x1467 JUMP JUMPDEST DUP2 MSTORE PUSH1 0x20 ADD PUSH2 0x352 DUP4 PUSH2 0x120 ADD MLOAD PUSH2 0x263 DUP8 PUSH1 0x9 PUSH2 0x3B8 JUMP JUMPDEST PUSH1 0x14 DUP2 GT ISZERO PUSH2 0x363 JUMPI PUSH2 0x363 PUSH2 0x1467 JUMP JUMPDEST PUSH1 0x14 DUP2 GT ISZERO PUSH2 0x374 JUMPI PUSH2 0x374 PUSH2 0x1467 JUMP JUMPDEST DUP2 MSTORE PUSH1 0x20 ADD PUSH2 0x38D DUP4 PUSH2 0x140 ADD MLOAD PUSH2 0x263 DUP8 PUSH1 0xA PUSH2 0x3B8 JUMP JUMPDEST PUSH1 0x14 DUP2 GT ISZERO PUSH2 0x39E JUMPI PUSH2 0x39E PUSH2 0x1467 JUMP JUMPDEST PUSH1 0x14 DUP2 GT ISZERO PUSH2 0x3AF JUMPI PUSH2 0x3AF PUSH2 0x1467 JUMP JUMPDEST SWAP1 MSTORE SWAP4 SWAP3 POP POP POP JUMP JUMPDEST PUSH1 0x0 DUP1 DUP4 DUP4 PUSH1 0x40 MLOAD PUSH1 0x20 ADD PUSH2 0x3D7 SWAP3 SWAP2 SWAP1 SWAP2 DUP3 MSTORE PUSH1 0x20 DUP3 ADD MSTORE PUSH1 0x40 ADD SWAP1 JUMP JUMPDEST PUSH1 0x40 DUP1 MLOAD PUSH1 0x1F NOT DUP2 DUP5 SUB ADD DUP2 MSTORE SWAP2 SWAP1 MSTORE DUP1 MLOAD PUSH1 0x20 SWAP1 SWAP2 ADD KECCAK256 SWAP1 POP PUSH2 0x3FD PUSH2 0x2710 DUP3 PUSH2 0x142F JUMP JUMPDEST SWAP5 SWAP4 POP POP POP POP JUMP JUMPDEST PUSH2 0x40D PUSH2 0xF1D JUMP JUMPDEST PUSH1 0x40 MLOAD DUP1 PUSH2 0x160 ADD PUSH1 0x40 MSTORE DUP1 PUSH1 0x40 MLOAD DUP1 PUSH2 0x440 ADD PUSH1 0x40 MSTORE DUP1 PUSH2 0x1F4 DUP2 MSTORE PUSH1 0x20 ADD PUSH2 0x44C DUP2 MSTORE PUSH1 0x20 ADD PUSH2 0x258 DUP2 MSTORE PUSH1 0x20 ADD PUSH2 0x3E8 DUP2 MSTORE PUSH1 0x20 ADD PUSH2 0x384 DUP2 MSTORE PUSH1 0x20 ADD PUSH2 0x578 DUP2 MSTORE PUSH1 0x20 ADD PUSH2 0x2BC DUP2 MSTORE PUSH1 0x20 ADD PUSH2 0x7D0 DUP2 MSTORE PUSH1 0x20 ADD PUSH2 0x320 DUP2 MSTORE PUSH1 0x20 ADD PUSH2 0x190 DUP2 MSTORE PUSH1 0x20 ADD PUSH2 0x10E DUP2 MSTORE PUSH1 0x20 ADD PUSH1 0x1E DUP2 MSTORE PUSH1 0x20 ADD PUSH1 0x64 DUP2 MSTORE PUSH1 0x20 ADD PUSH1 0x1 DUP2 MSTORE PUSH1 0x20 ADD PUSH1 0x6 DUP2 MSTORE PUSH1 0x20 ADD PUSH1 0xB DUP2 MSTORE PUSH1 0x20 ADD PUSH1 0x10 DUP2 MSTORE PUSH1 0x20 ADD PUSH1 0x2 DUP2 MSTORE PUSH1 0x20 ADD PUSH1 0x7 DUP2 MSTORE PUSH1 0x20 ADD PUSH1 0xC DUP2 MSTORE PUSH1 0x20 ADD PUSH1 0x11 DUP2 MSTORE PUSH1 0x20 ADD PUSH1 0x3 DUP2 MSTORE PUSH1 0x20 ADD PUSH1 0x8 DUP2 MSTORE PUSH1 0x20 ADD PUSH1 0xD DUP2 MSTORE PUSH1 0x20 ADD PUSH1 0x12 DUP2 MSTORE PUSH1 0x20 ADD PUSH1 0x4 DUP2 MSTORE PUSH1 0x20 ADD PUSH1 0x9 DUP2 MSTORE PUSH1 0x20 ADD PUSH1 0xE DUP2 MSTORE PUSH1 0x20 ADD PUSH1 0x13 DUP2 MSTORE PUSH1 0x20 ADD PUSH1 0x5 DUP2 MSTORE PUSH1 0x20 ADD PUSH1 0xA DUP2 MSTORE PUSH1 0x20 ADD PUSH1 0xF DUP2 MSTORE PUSH1 0x20 ADD PUSH1 0xA DUP2 MSTORE PUSH1 0x20 ADD PUSH2 0x2710 DUP2 MSTORE POP DUP2 MSTORE PUSH1 0x20 ADD PUSH1 0x40 MLOAD DUP1 PUSH2 0x180 ADD PUSH1 0x40 MSTORE DUP1 PUSH1 0xFA DUP2 MSTORE PUSH1 0x20 ADD PUSH1 0x96 DUP2 MSTORE PUSH1 0x20 ADD PUSH2 0x12C DUP2 MSTORE PUSH1 0x20 ADD PUSH1 0xC8 DUP2 MSTORE PUSH1 0x20 ADD PUSH1 0x28 DUP2 MSTORE PUSH1 0x20 ADD PUSH1 0xA DUP2 MSTORE PUSH1 0x20 ADD PUSH1 0x50 DUP2 MSTORE PUSH1 0x20 ADD PUSH1 0x46 DUP2 MSTORE PUSH1 0x20 ADD PUSH2 0x190 DUP2 MSTORE PUSH1 0x20 ADD PUSH1 0x64 DUP2 MSTORE PUSH1 0x20 ADD PUSH2 0x20D0 DUP2 MSTORE PUSH1 0x20 ADD PUSH2 0x2710 DUP2 MSTORE POP DUP2 MSTORE PUSH1 0x20 ADD PUSH1 0x40 MLOAD DUP1 PUSH2 0x200 ADD PUSH1 0x40 MSTORE DUP1 PUSH1 0x5A DUP2 MSTORE PUSH1 0x20 ADD PUSH2 0x258 DUP2 MSTORE PUSH1 0x20 ADD PUSH1 0x4B DUP2 MSTORE PUSH1 0x20 ADD PUSH2 0x190 DUP2 MSTORE PUSH1 0x20 ADD PUSH2 0x384 DUP2 MSTORE PUSH1 0x20 ADD PUSH2 0xA8C DUP2 MSTORE PUSH1 0x20 ADD PUSH2 0x834 DUP2 MSTORE PUSH1 0x20 ADD PUSH1 0x9B DUP2 MSTORE PUSH1 0x20 ADD PUSH2 0xA28 DUP2 MSTORE PUSH1 0x20 ADD PUSH2 0x118 DUP2 MSTORE PUSH1 0x20 ADD PUSH1 0x23 DUP2 MSTORE PUSH1 0x20 ADD PUSH1 0x1 DUP2 MSTORE PUSH1 0x20 ADD PUSH1 0x5 DUP2 MSTORE PUSH1 0x20 ADD PUSH1 0x32 DUP2 MSTORE PUSH1 0x20 ADD PUSH1 0x9 DUP2 MSTORE PUSH1 0x20 ADD PUSH2 0x2710 DUP2 MSTORE POP DUP2 MSTORE PUSH1 0x20 ADD PUSH1 0x40 MLOAD DUP1 PUSH2 0x140 ADD PUSH1 0x40 MSTORE DUP1 PUSH2 0x4B0 DUP2 MSTORE PUSH1 0x20 ADD PUSH1 0xA DUP2 MSTORE PUSH1 0x20 ADD PUSH2 0x7D0 DUP2 MSTORE PUSH1 0x20 ADD PUSH2 0x578 DUP2 MSTORE PUSH1 0x20 ADD PUSH1 0x5A DUP2 MSTORE PUSH1 0x20 ADD PUSH2 0x708 DUP2 MSTORE PUSH1 0x20 ADD PUSH2 0x3E8 DUP2 MSTORE PUSH1 0x20 ADD PUSH2 0x640 DUP2 MSTORE PUSH1 0x20 ADD PUSH2 0x384 DUP2 MSTORE PUSH1 0x20 ADD PUSH2 0x2710 DUP2 MSTORE POP DUP2 MSTORE PUSH1 0x20 ADD PUSH1 0x40 MLOAD DUP1 PUSH2 0x2A0 ADD PUSH1 0x40 MSTORE DUP1 PUSH2 0x258 DUP2 MSTORE PUSH1 0x20 ADD PUSH1 0x4 DUP2 MSTORE PUSH1 0x20 ADD PUSH2 0x3E8 DUP2 MSTORE PUSH1 0x20 ADD PUSH2 0x4B0 DUP2 MSTORE PUSH1 0x20 ADD PUSH2 0x4B0 DUP2 MSTORE PUSH1 0x20 ADD PUSH1 0x1 DUP2 MSTORE PUSH1 0x20 ADD PUSH2 0x1F4 DUP2 MSTORE PUSH1 0x20 ADD PUSH2 0x12C DUP2 MSTORE PUSH1 0x20 ADD PUSH2 0x2BC DUP2 MSTORE PUSH1 0x20 ADD PUSH2 0x640 DUP2 MSTORE PUSH1 0x20 ADD PUSH2 0x190 DUP2 MSTORE PUSH1 0x20 ADD PUSH2 0x1C2 DUP2 MSTORE PUSH1 0x20 ADD PUSH1 0x5 DUP2 MSTORE PUSH1 0x20 ADD PUSH1 0x7 DUP2 MSTORE PUSH1 0x20 ADD PUSH1 0x50 DUP2 MSTORE PUSH1 0x20 ADD PUSH1 0x3 DUP2 MSTORE PUSH1 0x20 ADD PUSH2 0x28A DUP2 MSTORE PUSH1 0x20 ADD PUSH2 0x15E DUP2 MSTORE PUSH1 0x20 ADD PUSH2 0x2EE DUP2 MSTORE PUSH1 0x20 ADD PUSH1 0xC8 DUP2 MSTORE PUSH1 0x20 ADD PUSH2 0x2710 DUP2 MSTORE POP DUP2 MSTORE PUSH1 0x20 ADD PUSH1 0x40 MLOAD DUP1 PUSH2 0x2C0 ADD PUSH1 0x40 MSTORE DUP1 PUSH2 0x44C DUP2 MSTORE PUSH1 0x20 ADD PUSH1 0xC8 DUP2 MSTORE PUSH1 0x20 ADD PUSH2 0x320 DUP2 MSTORE PUSH1 0x20 ADD PUSH2 0x1F4 DUP2 MSTORE PUSH1 0x20 ADD PUSH1 0xC8 DUP2 MSTORE PUSH1 0x20 ADD PUSH2 0x2BC DUP2 MSTORE PUSH1 0x20 ADD PUSH2 0x578 DUP2 MSTORE PUSH1 0x20 ADD PUSH2 0x190 DUP2 MSTORE PUSH1 0x20 ADD PUSH2 0x320 DUP2 MSTORE PUSH1 0x20 ADD PUSH2 0x258 DUP2 MSTORE PUSH1 0x20 ADD PUSH2 0x4B0 DUP2 MSTORE PUSH1 0x20 ADD PUSH1 0x28 DUP2 MSTORE PUSH1 0x20 ADD PUSH1 0x2 DUP2 MSTORE PUSH1 0x20 ADD PUSH2 0x15E DUP2 MSTORE PUSH1 0x20 ADD PUSH1 0xFA DUP2 MSTORE PUSH1 0x20 ADD PUSH2 0x1C2 DUP2 MSTORE PUSH1 0x20 ADD PUSH1 0x5 DUP2 MSTORE PUSH1 0x20 ADD PUSH1 0x32 DUP2 MSTORE PUSH1 0x20 ADD PUSH2 0x12C DUP2 MSTORE PUSH1 0x20 ADD PUSH2 0x28A DUP2 MSTORE PUSH1 0x20 ADD PUSH1 0x3 DUP2 MSTORE PUSH1 0x20 ADD PUSH2 0x2710 DUP2 MSTORE POP DUP2 MSTORE PUSH1 0x20 ADD PUSH1 0x40 MLOAD DUP1 PUSH2 0x2A0 ADD PUSH1 0x40 MSTORE DUP1 PUSH2 0x4B0 DUP2 MSTORE PUSH1 0x20 ADD PUSH2 0x44C DUP2 MSTORE PUSH1 0x20 ADD PUSH1 0x1 DUP2 MSTORE PUSH1 0x20 ADD PUSH2 0x514 DUP2 MSTORE PUSH1 0x20 ADD PUSH2 0x258 DUP2 MSTORE PUSH1 0x20 ADD PUSH2 0x12C DUP2 MSTORE PUSH1 0x20 ADD PUSH2 0x3E8 DUP2 MSTORE PUSH1 0x20 ADD PUSH2 0x190 DUP2 MSTORE PUSH1 0x20 ADD PUSH2 0x15E DUP2 MSTORE PUSH1 0x20 ADD PUSH2 0x384 DUP2 MSTORE PUSH1 0x20 ADD PUSH1 0xFA DUP2 MSTORE PUSH1 0x20 ADD PUSH1 0x3C DUP2 MSTORE PUSH1 0x20 ADD PUSH1 0x4 DUP2 MSTORE PUSH1 0x20 ADD PUSH2 0x12C DUP2 MSTORE PUSH1 0x20 ADD PUSH2 0x226 DUP2 MSTORE PUSH1 0x20 ADD PUSH2 0x1F4 DUP2 MSTORE PUSH1 0x20 ADD PUSH1 0x1E DUP2 MSTORE PUSH1 0x20 ADD PUSH2 0x3B6 DUP2 MSTORE PUSH1 0x20 ADD PUSH1 0xC8 DUP2 MSTORE PUSH1 0x20 ADD PUSH1 0x5 DUP2 MSTORE PUSH1 0x20 ADD PUSH2 0x2710 DUP2 MSTORE POP DUP2 MSTORE PUSH1 0x20 ADD PUSH1 0x40 MLOAD DUP1 PUSH2 0x2C0 ADD PUSH1 0x40 MSTORE DUP1 PUSH1 0x5A DUP2 MSTORE PUSH1 0x20 ADD PUSH2 0x320 DUP2 MSTORE PUSH1 0x20 ADD PUSH1 0x1 DUP2 MSTORE PUSH1 0x20 ADD PUSH2 0x578 DUP2 MSTORE PUSH1 0x20 ADD PUSH2 0x4B0 DUP2 MSTORE PUSH1 0x20 ADD PUSH2 0x384 DUP2 MSTORE PUSH1 0x20 ADD PUSH2 0x2BC DUP2 MSTORE PUSH1 0x20 ADD PUSH2 0x226 DUP2 MSTORE PUSH1 0x20 ADD PUSH2 0x514 DUP2 MSTORE PUSH1 0x20 ADD PUSH2 0x3E8 DUP2 MSTORE PUSH1 0x20 ADD PUSH1 0x6 DUP2 MSTORE PUSH1 0x20 ADD PUSH2 0x190 DUP2 MSTORE PUSH1 0x20 ADD PUSH2 0x258 DUP2 MSTORE PUSH1 0x20 ADD PUSH1 0xC8 DUP2 MSTORE PUSH1 0x20 ADD PUSH1 0x32 DUP2 MSTORE PUSH1 0x20 ADD PUSH1 0x3C DUP2 MSTORE PUSH1 0x20 ADD PUSH1 0x96 DUP2 MSTORE PUSH1 0x20 ADD PUSH1 0xFA DUP2 MSTORE PUSH1 0x20 ADD PUSH1 0x28 DUP2 MSTORE PUSH1 0x20 ADD PUSH2 0x12C DUP2 MSTORE PUSH1 0x20 ADD PUSH1 0x3 DUP2 MSTORE PUSH1 0x20 ADD PUSH2 0x2710 DUP2 MSTORE POP DUP2 MSTORE PUSH1 0x20 ADD PUSH1 0x40 MLOAD DUP1 PUSH2 0x2C0 ADD PUSH1 0x40 MSTORE DUP1 PUSH2 0x190 DUP2 MSTORE PUSH1 0x20 ADD PUSH2 0x3E8 DUP2 MSTORE PUSH1 0x20 ADD PUSH2 0x384 DUP2 MSTORE PUSH1 0x20 ADD PUSH2 0x258 DUP2 MSTORE PUSH1 0x20 ADD PUSH2 0x352 DUP2 MSTORE PUSH1 0x20 ADD PUSH2 0x514 DUP2 MSTORE PUSH1 0x20 ADD PUSH2 0x4B0 DUP2 MSTORE PUSH1 0x20 ADD PUSH2 0x320 DUP2 MSTORE PUSH1 0x20 ADD PUSH2 0x1F4 DUP2 MSTORE PUSH1 0x20 ADD PUSH2 0x2BC DUP2 MSTORE PUSH1 0x20 ADD PUSH1 0xFA DUP2 MSTORE PUSH1 0x20 ADD PUSH1 0xC8 DUP2 MSTORE PUSH1 0x20 ADD PUSH1 0x96 DUP2 MSTORE PUSH1 0x20 ADD PUSH1 0xC8 DUP2 MSTORE PUSH1 0x20 ADD PUSH2 0x1F4 DUP2 MSTORE PUSH1 0x20 ADD PUSH1 0x3C DUP2 MSTORE PUSH1 0x20 ADD PUSH2 0x15E DUP2 MSTORE PUSH1 0x20 ADD PUSH1 0x1E DUP2 MSTORE PUSH1 0x20 ADD PUSH1 0x1 DUP2 MSTORE PUSH1 0x20 ADD PUSH1 0x6 DUP2 MSTORE PUSH1 0x20 ADD PUSH1 0x3 DUP2 MSTORE PUSH1 0x20 ADD PUSH2 0x2710 DUP2 MSTORE POP DUP2 MSTORE PUSH1 0x20 ADD PUSH1 0x40 MLOAD DUP1 PUSH2 0x2C0 ADD PUSH1 0x40 MSTORE DUP1 PUSH2 0x190 DUP2 MSTORE PUSH1 0x20 ADD PUSH1 0x1 DUP2 MSTORE PUSH1 0x20 ADD PUSH1 0xC8 DUP2 MSTORE PUSH1 0x20 ADD PUSH1 0x5A DUP2 MSTORE PUSH1 0x20 ADD PUSH2 0x4B0 DUP2 MSTORE PUSH1 0x20 ADD PUSH2 0x1F4 DUP2 MSTORE PUSH1 0x20 ADD PUSH1 0xC8 DUP2 MSTORE PUSH1 0x20 ADD PUSH2 0x3E8 DUP2 MSTORE PUSH1 0x20 ADD PUSH2 0x12C DUP2 MSTORE PUSH1 0x20 ADD PUSH2 0x258 DUP2 MSTORE PUSH1 0x20 ADD PUSH2 0xBB8 DUP2 MSTORE PUSH1 0x20 ADD PUSH1 0xFA DUP2 MSTORE PUSH1 0x20 ADD PUSH2 0x1C2 DUP2 MSTORE PUSH1 0x20 ADD PUSH1 0x69 DUP2 MSTORE PUSH1 0x20 ADD PUSH1 0x7 DUP2 MSTORE PUSH1 0x20 ADD PUSH1 0x5 DUP2 MSTORE PUSH1 0x20 ADD PUSH2 0x177 DUP2 MSTORE PUSH1 0x20 ADD PUSH2 0x2D5 DUP2 MSTORE PUSH1 0x20 ADD PUSH2 0x23F DUP2 MSTORE PUSH1 0x20 ADD PUSH1 0x4 DUP2 MSTORE PUSH1 0x20 ADD PUSH1 0xD DUP2 MSTORE PUSH1 0x20 ADD PUSH2 0x2710 DUP2 MSTORE POP DUP2 MSTORE PUSH1 0x20 ADD PUSH1 0x40 MLOAD DUP1 PUSH2 0x2C0 ADD PUSH1 0x40 MSTORE DUP1 PUSH2 0x3E8 DUP2 MSTORE PUSH1 0x20 ADD PUSH2 0x1A4 DUP2 MSTORE PUSH1 0x20 ADD PUSH2 0x44C DUP2 MSTORE PUSH1 0x20 ADD PUSH2 0x514 DUP2 MSTORE PUSH1 0x20 ADD PUSH1 0x32 DUP2 MSTORE PUSH1 0x20 ADD PUSH2 0x4B0 DUP2 MSTORE PUSH1 0x20 ADD PUSH2 0x5AA DUP2 MSTORE PUSH1 0x20 ADD PUSH1 0x7 DUP2 MSTORE PUSH1 0x20 ADD PUSH1 0x1E DUP2 MSTORE PUSH1 0x20 ADD PUSH2 0x1F4 DUP2 MSTORE PUSH1 0x20 ADD PUSH2 0x190 DUP2 MSTORE PUSH1 0x20 ADD PUSH2 0x226 DUP2 MSTORE PUSH1 0x20 ADD PUSH1 0xC8 DUP2 MSTORE PUSH1 0x20 ADD PUSH2 0x28A DUP2 MSTORE PUSH1 0x20 ADD PUSH2 0x1CC DUP2 MSTORE PUSH1 0x20 ADD PUSH1 0x1 DUP2 MSTORE PUSH1 0x20 ADD PUSH1 0x14 DUP2 MSTORE PUSH1 0x20 ADD PUSH1 0x36 DUP2 MSTORE PUSH1 0x20 ADD PUSH1 0x2 DUP2 MSTORE PUSH1 0x20 ADD PUSH2 0x258 DUP2 MSTORE PUSH1 0x20 ADD PUSH1 0x6 DUP2 MSTORE PUSH1 0x20 ADD PUSH2 0x2710 DUP2 MSTORE POP DUP2 MSTORE POP SWAP1 POP SWAP1 JUMP JUMPDEST PUSH1 0x0 DUP1 DUP1 JUMPDEST PUSH1 0x22 DUP2 LT ISZERO PUSH2 0xBDD JUMPI DUP2 DUP5 LT ISZERO DUP1 ISZERO PUSH2 0xB9A JUMPI POP DUP5 DUP2 PUSH1 0x22 DUP2 LT PUSH2 0xB88 JUMPI PUSH2 0xB88 PUSH2 0x147D JUMP JUMPDEST PUSH1 0x20 MUL ADD MLOAD PUSH2 0xB97 SWAP1 DUP4 PUSH2 0x13FC JUMP JUMPDEST DUP5 LT JUMPDEST ISZERO PUSH2 0xBA8 JUMPI SWAP2 POP PUSH2 0xC3C SWAP1 POP JUMP JUMPDEST DUP5 DUP2 PUSH1 0x22 DUP2 LT PUSH2 0xBBA JUMPI PUSH2 0xBBA PUSH2 0x147D JUMP JUMPDEST PUSH1 0x20 MUL ADD MLOAD PUSH2 0xBC9 SWAP1 DUP4 PUSH2 0x13FC JUMP JUMPDEST SWAP2 POP DUP1 PUSH2 0xBD5 DUP2 PUSH2 0x1414 JUMP JUMPDEST SWAP2 POP POP PUSH2 0xB62 JUMP JUMPDEST POP PUSH1 0x40 MLOAD PUSH3 0x461BCD PUSH1 0xE5 SHL DUP2 MSTORE PUSH1 0x20 PUSH1 0x4 DUP3 ADD MSTORE PUSH1 0x29 PUSH1 0x24 DUP3 ADD MSTORE PUSH32 0x476F7420612076616C7565206F757473696465206F6620746865206D61784368 PUSH1 0x44 DUP3 ADD MSTORE PUSH9 0x616E636556616C7565 PUSH1 0xB8 SHL PUSH1 0x64 DUP3 ADD MSTORE PUSH1 0x84 ADD PUSH1 0x40 MLOAD DUP1 SWAP2 SUB SWAP1 REVERT JUMPDEST SWAP3 SWAP2 POP POP JUMP JUMPDEST PUSH1 0x0 DUP1 DUP1 JUMPDEST PUSH1 0xC DUP2 LT ISZERO PUSH2 0xBDD JUMPI DUP2 DUP5 LT ISZERO DUP1 ISZERO PUSH2 0xC7F JUMPI POP DUP5 DUP2 PUSH1 0xC DUP2 LT PUSH2 0xC6D JUMPI PUSH2 0xC6D PUSH2 0x147D JUMP JUMPDEST PUSH1 0x20 MUL ADD MLOAD PUSH2 0xC7C SWAP1 DUP4 PUSH2 0x13FC JUMP JUMPDEST DUP5 LT JUMPDEST ISZERO PUSH2 0xC8D JUMPI SWAP2 POP PUSH2 0xC3C SWAP1 POP JUMP JUMPDEST DUP5 DUP2 PUSH1 0xC DUP2 LT PUSH2 0xC9F JUMPI PUSH2 0xC9F PUSH2 0x147D JUMP JUMPDEST PUSH1 0x20 MUL ADD MLOAD PUSH2 0xCAE SWAP1 DUP4 PUSH2 0x13FC JUMP JUMPDEST SWAP2 POP DUP1 PUSH2 0xCBA DUP2 PUSH2 0x1414 JUMP JUMPDEST SWAP2 POP POP PUSH2 0xC47 JUMP JUMPDEST PUSH1 0x0 DUP1 DUP1 JUMPDEST PUSH1 0x10 DUP2 LT ISZERO PUSH2 0xBDD JUMPI DUP2 DUP5 LT ISZERO DUP1 ISZERO PUSH2 0xCFF JUMPI POP DUP5 DUP2 PUSH1 0x10 DUP2 LT PUSH2 0xCED JUMPI PUSH2 0xCED PUSH2 0x147D JUMP JUMPDEST PUSH1 0x20 MUL ADD MLOAD PUSH2 0xCFC SWAP1 DUP4 PUSH2 0x13FC JUMP JUMPDEST DUP5 LT JUMPDEST ISZERO PUSH2 0xD0D JUMPI SWAP2 POP PUSH2 0xC3C SWAP1 POP JUMP JUMPDEST DUP5 DUP2 PUSH1 0x10 DUP2 LT PUSH2 0xD1F JUMPI PUSH2 0xD1F PUSH2 0x147D JUMP JUMPDEST PUSH1 0x20 MUL ADD MLOAD PUSH2 0xD2E SWAP1 DUP4 PUSH2 0x13FC JUMP JUMPDEST SWAP2 POP DUP1 PUSH2 0xD3A DUP2 PUSH2 0x1414 JUMP JUMPDEST SWAP2 POP POP PUSH2 0xCC7 JUMP JUMPDEST PUSH1 0x0 DUP1 DUP1 JUMPDEST PUSH1 0xA DUP2 LT ISZERO PUSH2 0xBDD JUMPI DUP2 DUP5 LT ISZERO DUP1 ISZERO PUSH2 0xD7F JUMPI POP DUP5 DUP2 PUSH1 0xA DUP2 LT PUSH2 0xD6D JUMPI PUSH2 0xD6D PUSH2 0x147D JUMP JUMPDEST PUSH1 0x20 MUL ADD MLOAD PUSH2 0xD7C SWAP1 DUP4 PUSH2 0x13FC JUMP JUMPDEST DUP5 LT JUMPDEST ISZERO PUSH2 0xD8D JUMPI SWAP2 POP PUSH2 0xC3C SWAP1 POP JUMP JUMPDEST DUP5 DUP2 PUSH1 0xA DUP2 LT PUSH2 0xD9F JUMPI PUSH2 0xD9F PUSH2 0x147D JUMP JUMPDEST PUSH1 0x20 MUL ADD MLOAD PUSH2 0xDAE SWAP1 DUP4 PUSH2 0x13FC JUMP JUMPDEST SWAP2 POP DUP1 PUSH2 0xDBA DUP2 PUSH2 0x1414 JUMP JUMPDEST SWAP2 POP POP PUSH2 0xD47 JUMP JUMPDEST PUSH1 0x0 DUP1 DUP1 JUMPDEST PUSH1 0x15 DUP2 LT ISZERO PUSH2 0xBDD JUMPI DUP2 DUP5 LT ISZERO DUP1 ISZERO PUSH2 0xDFF JUMPI POP DUP5 DUP2 PUSH1 0x15 DUP2 LT PUSH2 0xDED JUMPI PUSH2 0xDED PUSH2 0x147D JUMP JUMPDEST PUSH1 0x20 MUL ADD MLOAD PUSH2 0xDFC SWAP1 DUP4 PUSH2 0x13FC JUMP JUMPDEST DUP5 LT JUMPDEST ISZERO PUSH2 0xE0D JUMPI SWAP2 POP PUSH2 0xC3C SWAP1 POP JUMP JUMPDEST DUP5 DUP2 PUSH1 0x15 DUP2 LT PUSH2 0xE1F JUMPI PUSH2 0xE1F PUSH2 0x147D JUMP JUMPDEST PUSH1 0x20 MUL ADD MLOAD PUSH2 0xE2E SWAP1 DUP4 PUSH2 0x13FC JUMP JUMPDEST SWAP2 POP DUP1 PUSH2 0xE3A DUP2 PUSH2 0x1414 JUMP JUMPDEST SWAP2 POP POP PUSH2 0xDC7 JUMP JUMPDEST PUSH1 0x0 DUP1 DUP1 JUMPDEST PUSH1 0x16 DUP2 LT ISZERO PUSH2 0xBDD JUMPI DUP2 DUP5 LT ISZERO DUP1 ISZERO PUSH2 0xE7F JUMPI POP DUP5 DUP2 PUSH1 0x16 DUP2 LT PUSH2 0xE6D JUMPI PUSH2 0xE6D PUSH2 0x147D JUMP JUMPDEST PUSH1 0x20 MUL ADD MLOAD PUSH2 0xE7C SWAP1 DUP4 PUSH2 0x13FC JUMP JUMPDEST DUP5 LT JUMPDEST ISZERO PUSH2 0xE8D JUMPI SWAP2 POP PUSH2 0xC3C SWAP1 POP JUMP JUMPDEST DUP5 DUP2 PUSH1 0x16 DUP2 LT PUSH2 0xE9F JUMPI PUSH2 0xE9F PUSH2 0x147D JUMP JUMPDEST PUSH1 0x20 MUL ADD MLOAD PUSH2 0xEAE SWAP1 DUP4 PUSH2 0x13FC JUMP JUMPDEST SWAP2 POP DUP1 PUSH2 0xEBA DUP2 PUSH2 0x1414 JUMP JUMPDEST SWAP2 POP POP PUSH2 0xE47 JUMP JUMPDEST PUSH1 0x40 DUP1 MLOAD PUSH2 0x160 DUP2 ADD SWAP1 SWAP2 MSTORE DUP1 PUSH1 0x0 DUP2 MSTORE PUSH1 0x20 ADD PUSH1 0x0 DUP2 MSTORE PUSH1 0x20 ADD PUSH1 0x0 DUP2 MSTORE PUSH1 0x20 ADD PUSH1 0x0 DUP2 MSTORE PUSH1 0x20 ADD PUSH1 0x0 DUP2 MSTORE PUSH1 0x20 ADD PUSH1 0x0 DUP2 MSTORE PUSH1 0x20 ADD PUSH1 0x0 DUP2 MSTORE PUSH1 0x20 ADD PUSH1 0x0 DUP2 MSTORE PUSH1 0x20 ADD PUSH1 0x0 DUP2 MSTORE PUSH1 0x20 ADD PUSH1 0x0 DUP2 MSTORE PUSH1 0x20 ADD PUSH1 0x0 JUMPDEST SWAP1 MSTORE SWAP1 JUMP JUMPDEST PUSH1 0x40 MLOAD DUP1 PUSH2 0x160 ADD PUSH1 0x40 MSTORE DUP1 PUSH2 0xF31 PUSH2 0xFB3 JUMP JUMPDEST DUP2 MSTORE PUSH1 0x20 ADD PUSH2 0xF3E PUSH2 0xFD2 JUMP JUMPDEST DUP2 MSTORE PUSH1 0x20 ADD PUSH2 0xF4B PUSH2 0xFF1 JUMP JUMPDEST DUP2 MSTORE PUSH1 0x20 ADD PUSH2 0xF58 PUSH2 0x1010 JUMP JUMPDEST DUP2 MSTORE PUSH1 0x20 ADD PUSH2 0xF65 PUSH2 0x102F JUMP JUMPDEST DUP2 MSTORE PUSH1 0x20 ADD PUSH2 0xF72 PUSH2 0x104E JUMP JUMPDEST DUP2 MSTORE PUSH1 0x20 ADD PUSH2 0xF7F PUSH2 0x102F JUMP JUMPDEST DUP2 MSTORE PUSH1 0x20 ADD PUSH2 0xF8C PUSH2 0x104E JUMP JUMPDEST DUP2 MSTORE PUSH1 0x20 ADD PUSH2 0xF99 PUSH2 0x104E JUMP JUMPDEST DUP2 MSTORE PUSH1 0x20 ADD PUSH2 0xFA6 PUSH2 0x104E JUMP JUMPDEST DUP2 MSTORE PUSH1 0x20 ADD PUSH2 0xF18 PUSH2 0x104E JUMP JUMPDEST PUSH1 0x40 MLOAD DUP1 PUSH2 0x440 ADD PUSH1 0x40 MSTORE DUP1 PUSH1 0x22 SWAP1 PUSH1 0x20 DUP3 MUL DUP1 CALLDATASIZE DUP4 CALLDATACOPY POP SWAP2 SWAP3 SWAP2 POP POP JUMP JUMPDEST PUSH1 0x40 MLOAD DUP1 PUSH2 0x180 ADD PUSH1 0x40 MSTORE DUP1 PUSH1 0xC SWAP1 PUSH1 0x20 DUP3 MUL DUP1 CALLDATASIZE DUP4 CALLDATACOPY POP SWAP2 SWAP3 SWAP2 POP POP JUMP JUMPDEST PUSH1 0x40 MLOAD DUP1 PUSH2 0x200 ADD PUSH1 0x40 MSTORE DUP1 PUSH1 0x10 SWAP1 PUSH1 0x20 DUP3 MUL DUP1 CALLDATASIZE DUP4 CALLDATACOPY POP SWAP2 SWAP3 SWAP2 POP POP JUMP JUMPDEST PUSH1 0x40 MLOAD DUP1 PUSH2 0x140 ADD PUSH1 0x40 MSTORE DUP1 PUSH1 0xA SWAP1 PUSH1 0x20 DUP3 MUL DUP1 CALLDATASIZE DUP4 CALLDATACOPY POP SWAP2 SWAP3 SWAP2 POP POP JUMP JUMPDEST PUSH1 0x40 MLOAD DUP1 PUSH2 0x2A0 ADD PUSH1 0x40 MSTORE DUP1 PUSH1 0x15 SWAP1 PUSH1 0x20 DUP3 MUL DUP1 CALLDATASIZE DUP4 CALLDATACOPY POP SWAP2 SWAP3 SWAP2 POP POP JUMP JUMPDEST PUSH1 0x40 MLOAD DUP1 PUSH2 0x2C0 ADD PUSH1 0x40 MSTORE DUP1 PUSH1 0x16 SWAP1 PUSH1 0x20 DUP3 MUL DUP1 CALLDATASIZE DUP4 CALLDATACOPY POP SWAP2 SWAP3 SWAP2 POP POP JUMP JUMPDEST PUSH1 0x0 PUSH1 0x20 DUP3 DUP5 SUB SLT ISZERO PUSH2 0x107F JUMPI PUSH1 0x0 DUP1 REVERT JUMPDEST POP CALLDATALOAD SWAP2 SWAP1 POP JUMP JUMPDEST PUSH1 0x0 DUP1 PUSH1 0x40 DUP4 DUP6 SUB SLT ISZERO PUSH2 0x1099 JUMPI PUSH1 0x0 DUP1 REVERT JUMPDEST POP POP DUP1 CALLDATALOAD SWAP3 PUSH1 0x20 SWAP1 SWAP2 ADD CALLDATALOAD SWAP2 POP JUMP JUMPDEST DUP1 PUSH1 0x0 JUMPDEST PUSH1 0xA DUP2 LT ISZERO PUSH2 0x10CB JUMPI DUP2 MLOAD DUP5 MSTORE PUSH1 0x20 SWAP4 DUP5 ADD SWAP4 SWAP1 SWAP2 ADD SWAP1 PUSH1 0x1 ADD PUSH2 0x10AC JUMP JUMPDEST POP POP POP POP JUMP JUMPDEST DUP1 PUSH1 0x0 JUMPDEST PUSH1 0xC DUP2 LT ISZERO PUSH2 0x10CB JUMPI DUP2 MLOAD DUP5 MSTORE PUSH1 0x20 SWAP4 DUP5 ADD SWAP4 SWAP1 SWAP2 ADD SWAP1 PUSH1 0x1 ADD PUSH2 0x10D5 JUMP JUMPDEST DUP1 PUSH1 0x0 JUMPDEST PUSH1 0x10 DUP2 LT ISZERO PUSH2 0x10CB JUMPI DUP2 MLOAD DUP5 MSTORE PUSH1 0x20 SWAP4 DUP5 ADD SWAP4 SWAP1 SWAP2 ADD SWAP1 PUSH1 0x1 ADD PUSH2 0x10F8 JUMP JUMPDEST DUP1 PUSH1 0x0 JUMPDEST PUSH1 0x15 DUP2 LT ISZERO PUSH2 0x10CB JUMPI DUP2 MLOAD DUP5 MSTORE PUSH1 0x20 SWAP4 DUP5 ADD SWAP4 SWAP1 SWAP2 ADD SWAP1 PUSH1 0x1 ADD PUSH2 0x111B JUMP JUMPDEST DUP1 PUSH1 0x0 JUMPDEST PUSH1 0x16 DUP2 LT ISZERO PUSH2 0x10CB JUMPI DUP2 MLOAD DUP5 MSTORE PUSH1 0x20 SWAP4 DUP5 ADD SWAP4 SWAP1 SWAP2 ADD SWAP1 PUSH1 0x1 ADD PUSH2 0x113E JUMP JUMPDEST DUP1 PUSH1 0x0 JUMPDEST PUSH1 0x22 DUP2 LT ISZERO PUSH2 0x10CB JUMPI DUP2 MLOAD DUP5 MSTORE PUSH1 0x20 SWAP4 DUP5 ADD SWAP4 SWAP1 SWAP2 ADD SWAP1 PUSH1 0x1 ADD PUSH2 0x1161 JUMP JUMPDEST PUSH1 0x21 DUP2 LT PUSH2 0x1190 JUMPI PUSH2 0x1190 PUSH2 0x1467 JUMP JUMPDEST SWAP1 MSTORE JUMP JUMPDEST PUSH1 0x15 DUP2 LT PUSH2 0x1190 JUMPI PUSH2 0x1190 PUSH2 0x1467 JUMP JUMPDEST PUSH1 0xF DUP2 LT PUSH2 0x1190 JUMPI PUSH2 0x1190 PUSH2 0x1467 JUMP JUMPDEST PUSH1 0x9 DUP2 LT PUSH2 0x1190 JUMPI PUSH2 0x1190 PUSH2 0x1467 JUMP JUMPDEST PUSH1 0xB DUP2 LT PUSH2 0x1190 JUMPI PUSH2 0x1190 PUSH2 0x1467 JUMP JUMPDEST PUSH1 0x14 DUP2 LT PUSH2 0x1190 JUMPI PUSH2 0x1190 PUSH2 0x1467 JUMP JUMPDEST PUSH1 0x0 PUSH1 0x20 DUP1 DUP4 MSTORE DUP4 MLOAD DUP1 DUP3 DUP6 ADD MSTORE PUSH1 0x0 JUMPDEST DUP2 DUP2 LT ISZERO PUSH2 0x1211 JUMPI DUP6 DUP2 ADD DUP4 ADD MLOAD DUP6 DUP3 ADD PUSH1 0x40 ADD MSTORE DUP3 ADD PUSH2 0x11F5 JUMP JUMPDEST DUP2 DUP2 GT ISZERO PUSH2 0x1223 JUMPI PUSH1 0x0 PUSH1 0x40 DUP4 DUP8 ADD ADD MSTORE JUMPDEST POP PUSH1 0x1F ADD PUSH1 0x1F NOT AND SWAP3 SWAP1 SWAP3 ADD PUSH1 0x40 ADD SWAP4 SWAP3 POP POP POP JUMP JUMPDEST PUSH1 0x0 PUSH2 0x160 DUP3 ADD SWAP1 POP PUSH2 0x124D DUP3 DUP5 MLOAD PUSH2 0x1180 JUMP JUMPDEST PUSH1 0x20 DUP4 ADD MLOAD PUSH2 0x125F PUSH1 0x20 DUP5 ADD DUP3 PUSH2 0x11C4 JUMP JUMPDEST POP PUSH1 0x40 DUP4 ADD MLOAD PUSH2 0x1272 PUSH1 0x40 DUP5 ADD DUP3 PUSH2 0x11A4 JUMP JUMPDEST POP PUSH1 0x60 DUP4 ADD MLOAD PUSH2 0x1285 PUSH1 0x60 DUP5 ADD DUP3 PUSH2 0x11B4 JUMP JUMPDEST POP PUSH1 0x80 DUP4 ADD MLOAD PUSH2 0x1298 PUSH1 0x80 DUP5 ADD DUP3 PUSH2 0x11D4 JUMP JUMPDEST POP PUSH1 0xA0 DUP4 ADD MLOAD PUSH2 0x12AB PUSH1 0xA0 DUP5 ADD DUP3 PUSH2 0x1194 JUMP JUMPDEST POP PUSH1 0xC0 DUP4 ADD MLOAD PUSH2 0x12BE PUSH1 0xC0 DUP5 ADD DUP3 PUSH2 0x11D4 JUMP JUMPDEST POP PUSH1 0xE0 DUP4 ADD MLOAD PUSH2 0x12D1 PUSH1 0xE0 DUP5 ADD DUP3 PUSH2 0x1194 JUMP JUMPDEST POP PUSH2 0x100 DUP1 DUP5 ADD MLOAD PUSH2 0x12E5 DUP3 DUP6 ADD DUP3 PUSH2 0x1194 JUMP JUMPDEST POP POP PUSH2 0x120 DUP1 DUP5 ADD MLOAD PUSH2 0x12FA DUP3 DUP6 ADD DUP3 PUSH2 0x1194 JUMP JUMPDEST POP POP PUSH2 0x140 DUP1 DUP5 ADD MLOAD PUSH2 0x130F DUP3 DUP6 ADD DUP3 PUSH2 0x1194 JUMP JUMPDEST POP POP SWAP3 SWAP2 POP POP JUMP JUMPDEST PUSH1 0x0 PUSH2 0x1C00 DUP3 ADD SWAP1 POP PUSH2 0x132B DUP3 DUP5 MLOAD PUSH2 0x115D JUMP JUMPDEST PUSH1 0x20 DUP4 ADD MLOAD PUSH2 0x133E PUSH2 0x440 DUP5 ADD DUP3 PUSH2 0x10D1 JUMP JUMPDEST POP PUSH1 0x40 DUP4 ADD MLOAD PUSH2 0x1352 PUSH2 0x5C0 DUP5 ADD DUP3 PUSH2 0x10F4 JUMP JUMPDEST POP PUSH1 0x60 DUP4 ADD MLOAD PUSH2 0x1366 PUSH2 0x7C0 DUP5 ADD DUP3 PUSH2 0x10A8 JUMP JUMPDEST POP PUSH1 0x80 DUP4 ADD MLOAD PUSH2 0x137A PUSH2 0x900 DUP5 ADD DUP3 PUSH2 0x1117 JUMP JUMPDEST POP PUSH1 0xA0 DUP4 ADD MLOAD PUSH2 0x138E PUSH2 0xBA0 DUP5 ADD DUP3 PUSH2 0x113A JUMP JUMPDEST POP PUSH1 0xC0 DUP4 ADD MLOAD PUSH2 0x13A2 PUSH2 0xE60 DUP5 ADD DUP3 PUSH2 0x1117 JUMP JUMPDEST POP PUSH1 0xE0 DUP4 ADD MLOAD PUSH2 0x13B6 PUSH2 0x1100 DUP5 ADD DUP3 PUSH2 0x113A JUMP JUMPDEST POP PUSH2 0x100 DUP4 ADD MLOAD PUSH2 0x13CB PUSH2 0x13C0 DUP5 ADD DUP3 PUSH2 0x113A JUMP JUMPDEST POP PUSH2 0x120 DUP4 ADD MLOAD PUSH2 0x13E0 PUSH2 0x1680 DUP5 ADD DUP3 PUSH2 0x113A JUMP JUMPDEST POP PUSH2 0x140 DUP4 ADD MLOAD PUSH2 0x13F5 PUSH2 0x1940 DUP5 ADD DUP3 PUSH2 0x113A JUMP JUMPDEST POP SWAP3 SWAP2 POP POP JUMP JUMPDEST PUSH1 0x0 DUP3 NOT DUP3 GT ISZERO PUSH2 0x140F JUMPI PUSH2 0x140F PUSH2 0x1451 JUMP JUMPDEST POP ADD SWAP1 JUMP JUMPDEST PUSH1 0x0 PUSH1 0x0 NOT DUP3 EQ ISZERO PUSH2 0x1428 JUMPI PUSH2 0x1428 PUSH2 0x1451 JUMP JUMPDEST POP PUSH1 0x1 ADD SWAP1 JUMP JUMPDEST PUSH1 0x0 DUP3 PUSH2 0x144C JUMPI PUSH4 0x4E487B71 PUSH1 0xE0 SHL PUSH1 0x0 MSTORE PUSH1 0x12 PUSH1 0x4 MSTORE PUSH1 0x24 PUSH1 0x0 REVERT JUMPDEST POP MOD SWAP1 JUMP JUMPDEST PUSH4 0x4E487B71 PUSH1 0xE0 SHL PUSH1 0x0 MSTORE PUSH1 0x11 PUSH1 0x4 MSTORE PUSH1 0x24 PUSH1 0x0 REVERT JUMPDEST PUSH4 0x4E487B71 PUSH1 0xE0 SHL PUSH1 0x0 MSTORE PUSH1 0x21 PUSH1 0x4 MSTORE PUSH1 0x24 PUSH1 0x0 REVERT JUMPDEST PUSH4 0x4E487B71 PUSH1 0xE0 SHL PUSH1 0x0 MSTORE PUSH1 0x32 PUSH1 0x4 MSTORE PUSH1 0x24 PUSH1 0x0 REVERT INVALID LOG2 PUSH5 0x6970667358 0x22 SLT KECCAK256 PUSH16 0x17D74F780247A86D5E1107C727346F1F 0xC2 0xCE SWAP4 DIFFICULTY PUSH14 0xB1251151FAC04F07C5DE64736F6C PUSH4 0x43000807 STOP CALLER ",
  "sha1": "09d72bbc4c8060c287d78dc4a1ada465f73641d8",
  "source": "// SPDX-License-Identifier: MIT\n/** \n██████╗ ███████╗████████╗██████╗  ██████╗      ██████╗ █████╗ ████████╗███████╗    \n██╔══██╗██╔════╝╚══██╔══╝██╔══██╗██╔═══██╗    ██╔════╝██╔══██╗╚══██╔══╝██╔════╝    \n██████╔╝█████╗     ██║   ██████╔╝██║   ██║    ██║     ███████║   ██║   ███████╗    \n██╔══██╗██╔══╝     ██║   ██╔══██╗██║   ██║    ██║     ██╔══██║   ██║   ╚════██║    \n██║  ██║███████╗   ██║   ██║  ██║╚██████╔╝    ╚██████╗██║  ██║   ██║   ███████║    \n╚═╝  ╚═╝╚══════╝   ╚═╝   ╚═╝  ╚═╝ ╚═════╝      ╚═════╝╚═╝  ╚═╝   ╚═╝   ╚══════╝    \n                                                                                   \n███╗   ███╗███████╗████████╗ █████╗ ██████╗  █████╗ ████████╗ █████╗               \n████╗ ████║██╔════╝╚══██╔══╝██╔══██╗██╔══██╗██╔══██╗╚══██╔══╝██╔══██╗              \n██╔████╔██║█████╗     ██║   ███████║██║  ██║███████║   ██║   ███████║              \n██║╚██╔╝██║██╔══╝     ██║   ██╔══██║██║  ██║██╔══██║   ██║   ██╔══██║              \n██║ ╚═╝ ██║███████╗   ██║   ██║  ██║██████╔╝██║  ██║   ██║   ██║  ██║              \n╚═╝     ╚═╝╚══════╝   ╚═╝   ╚═╝  ╚═╝╚═════╝ ╚═╝  ╚═╝   ╚═╝   ╚═╝  ╚═╝              \n                                                                          \n<<https://github.com/retro-cats/retro-cats-contracts>>\n\n*/\npragma solidity 0.8.7;\n/*\n* @title Our contract for describing what a cat looks like.\n* @dev This contract has almost 0 functionality, except for rngToCat\n* which is used to \"say\" what the random number (the DNA) \n* of a cat would result in for a cat\n*/\ncontract RetroCatsMetadata {\n    uint256 internal s_maxChanceValue = 10000;\n    struct RetroCat {\n        Background background;\n        Frame frame;\n        Breed breed;\n        Eyes eyes;\n        Hair hair;\n        Bling bling;\n        Head head;\n        Item item;\n        Ring ring;\n        Earring earring;\n        Vice vice; \n    }\n\n    struct TraitMetadata {\n        uint256[34] backgrounds;\n        uint256[12] frames;\n        uint256[16] breeds;\n        uint256[10] eyes;\n        uint256[21] hairs;\n        uint256[22] blings;\n        uint256[21] heads;\n        uint256[22] items;\n        uint256[22] rings;\n        uint256[22] earrings;\n        uint256[22] vices;\n    }\n\n\n    enum Background{Black, Blue, Green, Grey, Orange, Pink, Purple, Red, Yellow, LightBlue, LightGreen, LightPink, LightYellow, D1B, D1O, D1P, D1Y, D2B, D2O, D2P, D2Y, D3B, D3O, D3P, D3Y, D4B, D4O, D4P, D4Y, D5B, D5O, D5P, D5Y}\n    enum Frame{Black, Brass, Browne, Glit, Gold, Leather, Pine, Silver, White, Wood, None}\n    enum Breed{Bengal, Calico, Chimera, HighColor, Mitted, Solid, Tabby, Tortie, Tuxedo, Van, Cloud, Lightning, Mister, Spotty, Tiger}\n    enum Eyes{BlueOpen, BlueWink, Closed, GreenOpen, GreenWink, OrangeOpen, OrangeWink, YellowOpen, YellowWink}\n    enum Hair{ Braid, Dreads, Fro, LongFlipped, LongStraight, Mullet, Muttonchops, Pageboy, ShortFlipped, None, BrownShag, GingerBangs, GingerShag, LongRocker, Pigtails, PunkSpikes, StackedPerm, TinyBraids, TVMom, Wedge }\n    enum Bling{BlueNeckscarf, CopperBracelet, DiscoChest, HandlebarMustache, LongMustache, LoveBeads, MoonNecklaces, PeaceNecklace, PearlNecklace, PukaShellNecklace, CollarCuffs, FeatherBoa, CameoChoker, Woodenbeads, GoldFringe, TurquoiseNecklace, OrangeBoa, CoralNecklace, SilverFringe, SilverMoon, SunnyBeads}\n    enum Head{AviatorGlasses, Daisy, Eyepatch, Headband, Headscarf, HeartGlasses, NewsboyCap, RoundGlasses, SquareGlasses, TopHat, BraidedHeadband, DaisyHeadband, DiscoHat, GoldTBand, GrandmaGlasses, GrandpaGlasses, GreenGlasses, RainbowScarf, RedBeret, TinselWig}\n    enum Item{Atari, Disco, Ether, FlooyDisc, Houseplants, LandscapePainting, LavaLamp, PalmSurboard, Record, RedGuitar, TennisRacket, NerfFootball, Skateboard, Personalcomputer, Afghan, Fondue, LawnDarts, Rollerskates, Phone, Bicycle, Chair}\n    enum Ring{Emerald, MoodBlue, MoodGreen, MoodPurple, MoodRed, Onyx, Ruby, Sapphire, Tortoiseshell, Turquoise, ChainRings, StackRings, NoseRing, MensGoldRing, MoonRing, EtherRing, OrbRing, GiantDiamond, TattooCat, TattooFish, TattooBird}\n    enum Earring{Coral, DiamondStuds, GoldBobs, GoldChandelier, GoldHoops, OrangeWhite, RubyStuds, SilverHoops, Tortoiseshell, Turquoise, None, BlueWhite, GreenWhite, SilverChandelier, SapphireStuds, EmeraldStuds, PearlBobs, GoldChains, SilverChains, PinkMod, GoldJellyfish}\n    enum Vice{Beer, Bong, Cigarette, Eggplant, JelloSalad, Joint, Mushrooms, PetRock, PurpleBagOfCoke, Whiskey, CheeseBall, ProtestSigns, TequilaSunrise, Grasshopper, PinaColada, QueensofDestructionCar, SPF4, SWPlush, SlideProjector, Tupperware, TigerMagazine}\n\n\n    uint256 public constant maxChanceValue = 10000;\n    string public constant purr = \"Meow!\";\n\n    /**\n    * @dev Percentages for each trait\n    * @dev each row will always end with 10000\n    * When picking a trait based on RNG, we will get a value between 0 - 99999\n    * We choose the trait based on the sum of the integers up to the index\n    * For example, if my random number is 251, and my array is [250, 200, 10000]\n    *      This means my trait is at the 1st index. 251 is higher than 250, but lower than\n    *      250 + 200\n    */\n    function traits() public pure returns(TraitMetadata memory allTraits) {\n        allTraits = TraitMetadata(\n            // backgrounds\n            [500, 1100, 600, 1000, 900, 1400, 700, 2000, 800, 400, 270, 30, 100, 1, 6, 11, 16, 2, 7, 12, 17, 3, 8, 13, 18, 4, 9, 14, 19, 5, 10, 15, 10, maxChanceValue],\n        // frames\n            [250, 150, 300, 200, 40, 10, 80, 70, 400, 100, 8400, maxChanceValue],\n            // breeds\n            [90, 600, 75, 400, 900, 2700, 2100, 155, 2600, 280, 35, 1, 5, 50, 9, maxChanceValue],\n            // eyes\n            [1200, 10, 2000, 1400, 90, 1800, 1000, 1600, 900, maxChanceValue],\n            // hairs\n            [600, 4, 1000, 1200, 1200, 1, 500, 300, 700, 1600, 400, 450, 5, 7, 80, 3, 650, 350, 750, 200, maxChanceValue],\n            // blings\n            [1100, 200, 800, 500, 200, 700, 1400, 400, 800, 600, 1200, 40, 2, 350, 250, 450, 5, 50, 300, 650, 3, maxChanceValue],\n            // heads\n            [1200, 1100, 1, 1300, 600, 300, 1000, 400, 350, 900, 250, 60, 4, 300, 550, 500, 30, 950, 200, 5, maxChanceValue],\n            // items\n            [90, 800, 1, 1400, 1200, 900, 700, 550, 1300, 1000, 6, 400, 600, 200, 50, 60, 150, 250, 40, 300, 3, maxChanceValue],\n            // rings\n            [400, 1000, 900, 600, 850, 1300, 1200, 800, 500, 700, 250, 200, 150, 200, 500, 60, 350, 30, 1, 6, 3, maxChanceValue],\n            // earings\n            [400, 1, 200, 90, 1200, 500, 200, 1000, 300, 600, 3000, 250, 450, 105, 7, 5, 375, 725, 575, 4, 13, maxChanceValue],\n            // vices\n            [1000, 420, 1100, 1300, 50, 1200, 1450, 7, 30, 500, 400, 550, 200, 650, 460, 1, 20, 54, 2, 600, 6, maxChanceValue]\n        );\n    }\n\n    function rngToCat(uint256 randomNumber) external pure returns (RetroCat memory retroCat){\n        TraitMetadata memory allTraits = traits();\n        \n        // retroCat = RetroCat(Background(traitIndexes[0]),Frame(1),Breed(1),Eyes(1),Hair(1),Bling(1),Head(1),Item(1),Ring(1),Earring(1),Vice(1));\n        retroCat = RetroCat({\n            background: Background(getTraitIndex(allTraits.backgrounds, getModdedRNG(randomNumber, 0))),\n            frame: Frame(getTraitIndex(allTraits.frames, getModdedRNG(randomNumber, 1))),\n            breed: Breed(getTraitIndex(allTraits.breeds, getModdedRNG(randomNumber, 2))),\n            eyes: Eyes(getTraitIndex(allTraits.eyes, getModdedRNG(randomNumber, 3))),\n            hair: Hair(getTraitIndex(allTraits.hairs, getModdedRNG(randomNumber, 4))),\n            bling: Bling(getTraitIndex(allTraits.blings, getModdedRNG(randomNumber, 5))),\n            head: Head(getTraitIndex(allTraits.heads, getModdedRNG(randomNumber, 6))),\n            item: Item(getTraitIndex(allTraits.items, getModdedRNG(randomNumber, 7))),\n            ring: Ring(getTraitIndex(allTraits.rings, getModdedRNG(randomNumber, 8))),\n            earring: Earring(getTraitIndex(allTraits.earrings, getModdedRNG(randomNumber, 9))),\n            vice: Vice(getTraitIndex(allTraits.vices, getModdedRNG(randomNumber, 10)))\n        });\n    }\n\n    function getModdedRNG(uint256 randomNumber, uint256 seed) public pure returns(uint256 modded_rng){\n        uint256 newRng = uint256(keccak256(abi.encode(randomNumber, seed)));\n        modded_rng = newRng % maxChanceValue;\n    }\n\n    function getTraitIndex(uint256[10] memory traitArray, uint256 moddedRNG) private pure returns(uint256){\n        uint256 cumulativeSum = 0;\n        for(uint i =0; i<traitArray.length; i++){\n            if(moddedRNG >= cumulativeSum && moddedRNG < cumulativeSum + traitArray[i]){\n                return i;\n            }\n            cumulativeSum = cumulativeSum + traitArray[i];\n        }\n        revert(\"Got a value outside of the maxChanceValue\");\n    }\n\n    function getTraitIndex(uint256[12] memory traitArray, uint256 moddedRNG) private pure returns(uint256){\n        uint256 cumulativeSum = 0;\n        for(uint i =0; i<traitArray.length; i++){\n            if(moddedRNG >= cumulativeSum && moddedRNG < cumulativeSum + traitArray[i]){\n                return i;\n            }\n            cumulativeSum = cumulativeSum + traitArray[i];\n        }\n        revert(\"Got a value outside of the maxChanceValue\");\n    }\n\n    function getTraitIndex(uint256[16] memory traitArray, uint256 moddedRNG) private pure returns(uint256){\n    uint256 cumulativeSum = 0;\n        for(uint i =0; i<traitArray.length; i++){\n            if(moddedRNG >= cumulativeSum && moddedRNG < cumulativeSum + traitArray[i]){\n                return i;\n            }\n            cumulativeSum = cumulativeSum + traitArray[i];\n        }\n        revert(\"Got a value outside of the maxChanceValue\");\n    }\n\n    function getTraitIndex(uint256[21] memory traitArray, uint256 moddedRNG) private pure returns(uint256){\n        uint256 cumulativeSum = 0;\n        for(uint i =0; i<traitArray.length; i++){\n            if(moddedRNG >= cumulativeSum && moddedRNG < cumulativeSum + traitArray[i]){\n                return i;\n            }\n            cumulativeSum = cumulativeSum + traitArray[i];\n        }\n        revert(\"Got a value outside of the maxChanceValue\");\n    }\n\n    function getTraitIndex(uint256[22] memory traitArray, uint256 moddedRNG) private pure returns(uint256){\n        uint256 cumulativeSum = 0;\n        for(uint i =0; i<traitArray.length; i++){\n            if(moddedRNG >= cumulativeSum && moddedRNG < cumulativeSum + traitArray[i]){\n                return i;\n            }\n            cumulativeSum = cumulativeSum + traitArray[i];\n        }\n        revert(\"Got a value outside of the maxChanceValue\");\n    }\n\n    function getTraitIndex(uint256[34] memory traitArray, uint256 moddedRNG) private pure returns(uint256){\n        uint256 cumulativeSum = 0;\n        for(uint i =0; i<traitArray.length; i++){\n            if(moddedRNG >= cumulativeSum && moddedRNG < cumulativeSum + traitArray[i]){\n                return i;\n            }\n            cumulativeSum = cumulativeSum + traitArray[i];\n        }\n        revert(\"Got a value outside of the maxChanceValue\");\n    }\n}\n",
  "sourcePath": "contracts/RetroCatsMetadata.sol",
  "type": "contract"
}