{"abi":[{"inputs":[{"internalType":"address","name":"_vrfCoordinator","type":"address"},{"internalType":"address","name":"_linkToken","type":"address"},{"internalType":"bytes32","name":"_keyHash","type":"bytes32"},{"internalType":"uint256","name":"_fee","type":"uint256"},{"internalType":"address","name":"_retroCatsMetadata","type":"address"},{"internalType":"address","name":"_chainlinkKeeperRegistryContract","type":"address"},{"internalType":"uint256","name":"_vrfCallInterval","type":"uint256"}],"stateMutability":"nonpayable","type":"constructor","name":"constructor"},{"anonymous":false,"inputs":[{"indexed":true,"internalType":"address","name":"owner","type":"address"},{"indexed":true,"internalType":"address","name":"approved","type":"address"},{"indexed":true,"internalType":"uint256","name":"tokenId","type":"uint256"}],"name":"Approval","type":"event"},{"anonymous":false,"inputs":[{"indexed":true,"internalType":"address","name":"owner","type":"address"},{"indexed":true,"internalType":"address","name":"operator","type":"address"},{"indexed":false,"internalType":"bool","name":"approved","type":"bool"}],"name":"ApprovalForAll","type":"event"},{"anonymous":false,"inputs":[{"indexed":true,"internalType":"address","name":"previousOwner","type":"address"},{"indexed":true,"internalType":"address","name":"newOwner","type":"address"}],"name":"OwnershipTransferred","type":"event"},{"anonymous":false,"inputs":[{"indexed":true,"internalType":"address","name":"from","type":"address"},{"indexed":true,"internalType":"address","name":"to","type":"address"},{"indexed":true,"internalType":"uint256","name":"tokenId","type":"uint256"}],"name":"Transfer","type":"event"},{"anonymous":false,"inputs":[{"indexed":true,"internalType":"uint256","name":"tokenId","type":"uint256"},{"indexed":true,"internalType":"uint256","name":"randomNumber","type":"uint256"}],"name":"randomNumberAssigned","type":"event"},{"anonymous":false,"inputs":[{"indexed":false,"internalType":"uint256","name":"tokenId","type":"uint256"}],"name":"requestedNewCat","type":"event"},{"anonymous":false,"inputs":[{"indexed":true,"internalType":"bytes32","name":"requestId","type":"bytes32"}],"name":"requestedNewChainlinkVRF","type":"event"},{"inputs":[{"internalType":"string","name":"_baseURI","type":"string"}],"name":"_setBaseURI","outputs":[],"stateMutability":"nonpayable","type":"function"},{"inputs":[{"internalType":"address","name":"_retroCatMetadata","type":"address"}],"name":"_setRetroCatMetadata","outputs":[],"stateMutability":"nonpayable","type":"function"},{"inputs":[{"internalType":"address","name":"to","type":"address"},{"internalType":"uint256","name":"tokenId","type":"uint256"}],"name":"approve","outputs":[],"stateMutability":"nonpayable","type":"function"},{"inputs":[{"internalType":"address","name":"owner","type":"address"}],"name":"balanceOf","outputs":[{"internalType":"uint256","name":"","type":"uint256"}],"stateMutability":"view","type":"function"},{"inputs":[{"internalType":"bytes","name":"checkData","type":"bytes"}],"name":"checkUpkeep","outputs":[{"internalType":"bool","name":"upkeepNeeded","type":"bool"},{"internalType":"bytes","name":"performData","type":"bytes"}],"stateMutability":"nonpayable","type":"function"},{"inputs":[{"internalType":"uint256","name":"tokenId","type":"uint256"}],"name":"getApproved","outputs":[{"internalType":"address","name":"","type":"address"}],"stateMutability":"view","type":"function"},{"inputs":[{"internalType":"address","name":"owner","type":"address"},{"internalType":"address","name":"operator","type":"address"}],"name":"isApprovedForAll","outputs":[{"internalType":"bool","name":"","type":"bool"}],"stateMutability":"view","type":"function"},{"inputs":[],"name":"mint_cat","outputs":[{"internalType":"uint256","name":"tokenId","type":"uint256"}],"stateMutability":"payable","type":"function"},{"inputs":[],"name":"name","outputs":[{"internalType":"string","name":"","type":"string"}],"stateMutability":"view","type":"function"},{"inputs":[],"name":"owner","outputs":[{"internalType":"address","name":"","type":"address"}],"stateMutability":"view","type":"function"},{"inputs":[{"internalType":"uint256","name":"tokenId","type":"uint256"}],"name":"ownerOf","outputs":[{"internalType":"address","name":"","type":"address"}],"stateMutability":"view","type":"function"},{"inputs":[{"internalType":"bytes","name":"performData","type":"bytes"}],"name":"performUpkeep","outputs":[],"stateMutability":"nonpayable","type":"function"},{"inputs":[{"internalType":"bytes32","name":"requestId","type":"bytes32"},{"internalType":"uint256","name":"randomness","type":"uint256"}],"name":"rawFulfillRandomness","outputs":[],"stateMutability":"nonpayable","type":"function"},{"inputs":[],"name":"renounceOwnership","outputs":[],"stateMutability":"nonpayable","type":"function"},{"inputs":[],"name":"s_catfee","outputs":[{"internalType":"uint256","name":"","type":"uint256"}],"stateMutability":"view","type":"function"},{"inputs":[],"name":"s_chainlinkKeeperRegistryContract","outputs":[{"internalType":"address","name":"","type":"address"}],"stateMutability":"view","type":"function"},{"inputs":[],"name":"s_fee","outputs":[{"internalType":"uint256","name":"","type":"uint256"}],"stateMutability":"view","type":"function"},{"inputs":[],"name":"s_retroCatsMetadata","outputs":[{"internalType":"address","name":"","type":"address"}],"stateMutability":"view","type":"function"},{"inputs":[],"name":"s_tokenCounter","outputs":[{"internalType":"uint256","name":"","type":"uint256"}],"stateMutability":"view","type":"function"},{"inputs":[{"internalType":"uint256","name":"","type":"uint256"}],"name":"s_tokenIdRandomnessNeededQueue","outputs":[{"internalType":"uint256","name":"","type":"uint256"}],"stateMutability":"view","type":"function"},{"inputs":[{"internalType":"uint256","name":"","type":"uint256"}],"name":"s_tokenIdToRandomNumber","outputs":[{"internalType":"uint256","name":"","type":"uint256"}],"stateMutability":"view","type":"function"},{"inputs":[],"name":"s_vrfCallInterval","outputs":[{"internalType":"uint256","name":"","type":"uint256"}],"stateMutability":"view","type":"function"},{"inputs":[{"internalType":"address","name":"from","type":"address"},{"internalType":"address","name":"to","type":"address"},{"internalType":"uint256","name":"tokenId","type":"uint256"}],"name":"safeTransferFrom","outputs":[],"stateMutability":"nonpayable","type":"function"},{"inputs":[{"internalType":"address","name":"from","type":"address"},{"internalType":"address","name":"to","type":"address"},{"internalType":"uint256","name":"tokenId","type":"uint256"},{"internalType":"bytes","name":"_data","type":"bytes"}],"name":"safeTransferFrom","outputs":[],"stateMutability":"nonpayable","type":"function"},{"inputs":[{"internalType":"address","name":"operator","type":"address"},{"internalType":"bool","name":"approved","type":"bool"}],"name":"setApprovalForAll","outputs":[],"stateMutability":"nonpayable","type":"function"},{"inputs":[{"internalType":"uint256","name":"_catfee","type":"uint256"}],"name":"setCatFee","outputs":[],"stateMutability":"nonpayable","type":"function"},{"inputs":[{"internalType":"uint256","name":"tokenId","type":"uint256"},{"internalType":"string","name":"_tokenURI","type":"string"}],"name":"setTokenURI","outputs":[],"stateMutability":"nonpayable","type":"function"},{"inputs":[{"internalType":"uint256","name":"newInterval","type":"uint256"}],"name":"setVRFCallInterval","outputs":[],"stateMutability":"nonpayable","type":"function"},{"inputs":[{"internalType":"bytes4","name":"interfaceId","type":"bytes4"}],"name":"supportsInterface","outputs":[{"internalType":"bool","name":"","type":"bool"}],"stateMutability":"view","type":"function"},{"inputs":[],"name":"symbol","outputs":[{"internalType":"string","name":"","type":"string"}],"stateMutability":"view","type":"function"},{"inputs":[{"internalType":"uint256","name":"tokenId","type":"uint256"}],"name":"tokenURI","outputs":[{"internalType":"string","name":"","type":"string"}],"stateMutability":"view","type":"function"},{"inputs":[{"internalType":"address","name":"from","type":"address"},{"internalType":"address","name":"to","type":"address"},{"internalType":"uint256","name":"tokenId","type":"uint256"}],"name":"transferFrom","outputs":[],"stateMutability":"nonpayable","type":"function"},{"inputs":[{"internalType":"address","name":"newOwner","type":"address"}],"name":"transferOwnership","outputs":[],"stateMutability":"nonpayable","type":"function"},{"inputs":[],"name":"withdraw","outputs":[],"stateMutability":"nonpayable","type":"function"},{"inputs":[],"name":"withdrawLink","outputs":[],"stateMutability":"nonpayable","type":"function"}],"bytecode":"60c06040523480156200001157600080fd5b5060405162002a9f38038062002a9f833981016040819052620000349162000281565b86866040518060400160405280600a815260200169526574726f204361747360b01b81525060405180604001604052806005815260200164524554524f60d81b815250620000916200008b6200016a60201b60201c565b6200016e565b8151620000a6906001906020850190620001be565b508051620000bc906002906020840190620001be565b5050506001600160601b0319606092831b811660a052911b16608090815260016009556000600a55600c869055600d8590556012829055601480546001600160a01b038681166001600160a01b0319928316179092556011805492861692909116919091179055604080519182019052604f80825262002a50602083013980516200015091600b91602090910190620001be565b505066470de4df8200006015555062000337945050505050565b3390565b600080546001600160a01b038381166001600160a01b0319831681178455604051919092169283917f8be0079c531659141344cd1fd0a4f28419497f9722a3daafe3b4186f6b6457e09190a35050565b828054620001cc90620002fa565b90600052602060002090601f016020900481019282620001f057600085556200023b565b82601f106200020b57805160ff19168380011785556200023b565b828001600101855582156200023b579182015b828111156200023b5782518255916020019190600101906200021e565b50620002499291506200024d565b5090565b5b808211156200024957600081556001016200024e565b80516001600160a01b03811681146200027c57600080fd5b919050565b600080600080600080600060e0888a0312156200029c578283fd5b620002a78862000264565b9650620002b76020890162000264565b95506040880151945060608801519350620002d56080890162000264565b9250620002e560a0890162000264565b915060c0880151905092959891949750929550565b600181811c908216806200030f57607f821691505b602082108114156200033157634e487b7160e01b600052602260045260246000fd5b50919050565b60805160601c60a05160601c6126df62000371600039600081816111380152611996015260008181610fdd015261196701526126df6000f3fe6080604052600436106102045760003560e01c8063709239c911610118578063a22cb465116100a0578063c8c2f4fa1161006f578063c8c2f4fa146105b2578063d693c6cf146105df578063e985e9c5146105f5578063f2fde38b1461063e578063f690b69d1461065e57610204565b8063a22cb46514610532578063b88d4fde14610552578063c14b154514610572578063c87b56dd1461059257610204565b80638dc654a2116100e75780638dc654a2146104a85780639325951a146104bd57806394985ddd146104dd57806395d89b41146104fd5780639fea4ada1461051257610204565b8063709239c91461043f57806370a0823114610455578063715018a6146104755780638da5cb5b1461048a57610204565b806331b5b9071161019b5780634585e33b1161016a5780634585e33b146103b3578063596c2328146103d35780636352211e146103e957806365d59542146104095780636e04ff0d1461041157610204565b806331b5b9071461033e5780633ccfd60b1461035e5780633e5a21361461037357806342842e0e1461039357610204565b80630b21a83b116101d75780630b21a83b146102ba578063162094c4146102de578063233d027c146102fe57806323b872dd1461031e57610204565b806301ffc9a71461020957806306fdde031461023e578063081812fc14610260578063095ea7b314610298575b600080fd5b34801561021557600080fd5b5061022961022436600461224f565b61067e565b60405190151581526020015b60405180910390f35b34801561024a57600080fd5b506102536106d2565b604051610235919061247f565b34801561026c57600080fd5b5061028061027b366004612327565b610764565b6040516001600160a01b039091168152602001610235565b3480156102a457600080fd5b506102b86102b33660046121e9565b6107fe565b005b3480156102c657600080fd5b506102d0600a5481565b604051908152602001610235565b3480156102ea57600080fd5b506102b86102f9366004612357565b610914565b34801561030a57600080fd5b506102b8610319366004612327565b610973565b34801561032a57600080fd5b506102b86103393660046120ff565b6109a2565b34801561034a57600080fd5b506102b86103593660046122f4565b6109d3565b34801561036a57600080fd5b506102b8610a10565b34801561037f57600080fd5b50601154610280906001600160a01b031681565b34801561039f57600080fd5b506102b86103ae3660046120ff565b610a85565b3480156103bf57600080fd5b506102b86103ce366004612287565b610aa0565b3480156103df57600080fd5b506102d0600d5481565b3480156103f557600080fd5b50610280610404366004612327565b610c43565b6102d0610cba565b34801561041d57600080fd5b5061043161042c366004612287565b610e99565b604051610235929190612464565b34801561044b57600080fd5b506102d060125481565b34801561046157600080fd5b506102d06104703660046120b3565b610ee1565b34801561048157600080fd5b506102b8610f68565b34801561049657600080fd5b506000546001600160a01b0316610280565b3480156104b457600080fd5b506102b8610f9e565b3480156104c957600080fd5b50601454610280906001600160a01b031681565b3480156104e957600080fd5b506102b86104f836600461222e565b61112d565b34801561050957600080fd5b506102536111af565b34801561051e57600080fd5b506102d061052d366004612327565b6111be565b34801561053e57600080fd5b506102b861054d3660046121b3565b6111df565b34801561055e57600080fd5b506102b861056d36600461213a565b6112b1565b34801561057e57600080fd5b506102b861058d3660046120b3565b6112e8565b34801561059e57600080fd5b506102536105ad366004612327565b611334565b3480156105be57600080fd5b506102d06105cd366004612327565b60106020526000908152604090205481565b3480156105eb57600080fd5b506102d060155481565b34801561060157600080fd5b506102296106103660046120cd565b6001600160a01b03918216600090815260066020908152604080832093909416825291909152205460ff1690565b34801561064a57600080fd5b506102b86106593660046120b3565b61140f565b34801561066a57600080fd5b506102b8610679366004612327565b6114a7565b60006001600160e01b031982166380ac58cd60e01b14806106af57506001600160e01b03198216635b5e139f60e01b145b806106ca57506301ffc9a760e01b6001600160e01b03198316145b90505b919050565b6060600180546106e1906125d9565b80601f016020809104026020016040519081016040528092919081815260200182805461070d906125d9565b801561075a5780601f1061072f5761010080835404028352916020019161075a565b820191906000526020600020905b81548152906001019060200180831161073d57829003601f168201915b5050505050905090565b6000818152600360205260408120546001600160a01b03166107e25760405162461bcd60e51b815260206004820152602c60248201527f4552433732313a20617070726f76656420717565727920666f72206e6f6e657860448201526b34b9ba32b73a103a37b5b2b760a11b60648201526084015b60405180910390fd5b506000908152600560205260409020546001600160a01b031690565b600061080982610c43565b9050806001600160a01b0316836001600160a01b031614156108775760405162461bcd60e51b815260206004820152602160248201527f4552433732313a20617070726f76616c20746f2063757272656e74206f776e656044820152603960f91b60648201526084016107d9565b336001600160a01b038216148061089357506108938133610610565b6109055760405162461bcd60e51b815260206004820152603860248201527f4552433732313a20617070726f76652063616c6c6572206973206e6f74206f7760448201527f6e6572206e6f7220617070726f76656420666f7220616c6c000000000000000060648201526084016107d9565b61090f83836114d6565b505050565b6000546001600160a01b0316331461093e5760405162461bcd60e51b81526004016107d9906124e4565b610949335b83611544565b6109655760405162461bcd60e51b81526004016107d990612519565b61096f828261163b565b5050565b6000546001600160a01b0316331461099d5760405162461bcd60e51b81526004016107d9906124e4565b601555565b6109ac3382611544565b6109c85760405162461bcd60e51b81526004016107d990612519565b61090f8383836116d5565b6000546001600160a01b031633146109fd5760405162461bcd60e51b81526004016107d9906124e4565b805161096f90600b906020840190611f6e565b6000546001600160a01b03163314610a3a5760405162461bcd60e51b81526004016107d9906124e4565b47610a4d6000546001600160a01b031690565b6001600160a01b03166108fc829081150290604051600060405180830381858888f1935050505015801561096f573d6000803e3d6000fd5b61090f838383604051806020016040528060008152506112b1565b6011546001600160a01b03163314610b0d5760405162461bcd60e51b815260206004820152602a60248201527f526574726f436174733a2043616c6c6572206973206e6f74206120436861696e6044820152696c696e6b204e6f64652160b01b60648201526084016107d9565b601354610b6a5760405162461bcd60e51b815260206004820152602560248201527f526574726f436174733a205468657265206973206e6f7468696e6720696e2071604482015264756575652160d81b60648201526084016107d9565b60008060138281548110610b8e57634e487b7160e01b600052603260045260246000fd5b60009182526020808320909101546040805144938101939093524390830152426060808401919091526bffffffffffffffffffffffff193290911b1660808301523a609483015260b48201819052925060d40160408051601f19818403018152828252805160209182012060008681526010909252918120829055909250829184917fb98a68a35eede7a0353068c023cf5e57077cbe7099f89806090aba0302ade34691a3610c3c83611875565b5050505050565b6000818152600360205260408120546001600160a01b0316806106ca5760405162461bcd60e51b815260206004820152602960248201527f4552433732313a206f776e657220717565727920666f72206e6f6e657869737460448201526832b73a103a37b5b2b760b91b60648201526084016107d9565b600060026009541415610d0f5760405162461bcd60e51b815260206004820152601f60248201527f5265656e7472616e637947756172643a207265656e7472616e742063616c6c0060448201526064016107d9565b6002600955601554341015610d665760405162461bcd60e51b815260206004820152601960248201527f596f75206d75737420706179207468652063617420666565210000000000000060448201526064016107d9565b50600a54610d743382611949565b601254600a54610d84919061262f565b610e17576000610d98600c54600d54611963565b6000818152600f602052604090819020849055519091507f4dd7d0343ca2ba4d424fec6c54658c1caa13698ae25fbb598920bbf1c765997390610dde9084815260200190565b60405180910390a160405181907f6b200b23c1d48a948f260702dffe8d791e8f196b57bdf0d7d5f76bcf0b974d6290600090a250610e80565b601380546001810182556000919091527f66de8ffda797e3de9c05e8fc57b3bf0ec28a930d40b0d285d93c06501cf6a090018190556040518181527f4dd7d0343ca2ba4d424fec6c54658c1caa13698ae25fbb598920bbf1c76599739060200160405180910390a15b600a54610e8e90600161256a565b600a55600160095590565b601354604080516020601f8501819004810282018101909252838152911515916060918590859081908401838280828437600092019190915250949792965091945050505050565b60006001600160a01b038216610f4c5760405162461bcd60e51b815260206004820152602a60248201527f4552433732313a2062616c616e636520717565727920666f7220746865207a65604482015269726f206164647265737360b01b60648201526084016107d9565b506001600160a01b031660009081526004602052604090205490565b6000546001600160a01b03163314610f925760405162461bcd60e51b81526004016107d9906124e4565b610f9c6000611aee565b565b6000546001600160a01b03163314610fc85760405162461bcd60e51b81526004016107d9906124e4565b6040516370a0823160e01b81523060048201527f0000000000000000000000000000000000000000000000000000000000000000906001600160a01b0382169063a9059cbb90339083906370a082319060240160206040518083038186803b15801561103357600080fd5b505afa158015611047573d6000803e3d6000fd5b505050506040513d601f19601f8201168201806040525081019061106b919061233f565b6040516001600160e01b031960e085901b1681526001600160a01b0390921660048301526024820152604401602060405180830381600087803b1580156110b157600080fd5b505af11580156110c5573d6000803e3d6000fd5b505050506040513d601f19601f820116820180604052508101906110e99190612212565b61112a5760405162461bcd60e51b81526020600482015260126024820152712ab730b13632903a37903a3930b739b332b960711b60448201526064016107d9565b50565b336001600160a01b037f000000000000000000000000000000000000000000000000000000000000000016146111a55760405162461bcd60e51b815260206004820152601f60248201527f4f6e6c7920565246436f6f7264696e61746f722063616e2066756c66696c6c0060448201526064016107d9565b61096f8282611b3e565b6060600280546106e1906125d9565b601381815481106111ce57600080fd5b600091825260209091200154905081565b6001600160a01b0382163314156112385760405162461bcd60e51b815260206004820152601960248201527f4552433732313a20617070726f766520746f2063616c6c65720000000000000060448201526064016107d9565b3360008181526006602090815260408083206001600160a01b0387168085529252909120805460ff1916841515179055906001600160a01b03167f17307eab39ab6107e8899845ad3d59bd9653f200f220920489ca2b5937696c31836040516112a5911515815260200190565b60405180910390a35050565b6112ba33610943565b6112d65760405162461bcd60e51b81526004016107d990612519565b6112e284848484611b92565b50505050565b6000546001600160a01b031633146113125760405162461bcd60e51b81526004016107d9906124e4565b601480546001600160a01b0319166001600160a01b0392909216919091179055565b6000818152600360205260409020546060906001600160a01b03166113b35760405162461bcd60e51b815260206004820152602f60248201527f4552433732314d657461646174613a2055524920717565727920666f72206e6f60448201526e3732bc34b9ba32b73a103a37b5b2b760891b60648201526084016107d9565b60006113bd611bc5565b905060008151116113dd5760405180602001604052806000815250611408565b806113e784611bd4565b6040516020016113f89291906123c8565b6040516020818303038152906040525b9392505050565b6000546001600160a01b031633146114395760405162461bcd60e51b81526004016107d9906124e4565b6001600160a01b03811661149e5760405162461bcd60e51b815260206004820152602660248201527f4f776e61626c653a206e6577206f776e657220697320746865207a65726f206160448201526564647265737360d01b60648201526084016107d9565b61112a81611aee565b6000546001600160a01b031633146114d15760405162461bcd60e51b81526004016107d9906124e4565b601255565b600081815260056020526040902080546001600160a01b0319166001600160a01b038416908117909155819061150b82610c43565b6001600160a01b03167f8c5be1e5ebec7d5bd14f71427d1e84f3dd0314c0f7b2291e5b200ac8c7c3b92560405160405180910390a45050565b6000818152600360205260408120546001600160a01b03166115bd5760405162461bcd60e51b815260206004820152602c60248201527f4552433732313a206f70657261746f7220717565727920666f72206e6f6e657860448201526b34b9ba32b73a103a37b5b2b760a11b60648201526084016107d9565b60006115c883610c43565b9050806001600160a01b0316846001600160a01b031614806116035750836001600160a01b03166115f884610764565b6001600160a01b0316145b8061163357506001600160a01b0380821660009081526006602090815260408083209388168352929052205460ff165b949350505050565b6000828152600360205260409020546001600160a01b03166116b65760405162461bcd60e51b815260206004820152602e60248201527f45524337323155524953746f726167653a2055524920736574206f66206e6f6e60448201526d32bc34b9ba32b73a103a37b5b2b760911b60648201526084016107d9565b6000828152600760209081526040909120825161090f92840190611f6e565b826001600160a01b03166116e882610c43565b6001600160a01b0316146117505760405162461bcd60e51b815260206004820152602960248201527f4552433732313a207472616e73666572206f6620746f6b656e2074686174206960448201526839903737ba1037bbb760b91b60648201526084016107d9565b6001600160a01b0382166117b25760405162461bcd60e51b8152602060048201526024808201527f4552433732313a207472616e7366657220746f20746865207a65726f206164646044820152637265737360e01b60648201526084016107d9565b6117bd6000826114d6565b6001600160a01b03831660009081526004602052604081208054600192906117e6908490612596565b90915550506001600160a01b038216600090815260046020526040812080546001929061181490849061256a565b909155505060008181526003602052604080822080546001600160a01b0319166001600160a01b0386811691821790925591518493918716917fddf252ad1be2c89b69c2b068fc378daa952ba7f163c4a11628f55a4df523b3ef91a4505050565b60135481106118835761112a565b805b60135461189490600190612596565b8110156119105760136118a882600161256a565b815481106118c657634e487b7160e01b600052603260045260246000fd5b9060005260206000200154601382815481106118f257634e487b7160e01b600052603260045260246000fd5b6000918252602090912001558061190881612614565b915050611885565b50601380548061193057634e487b7160e01b600052603160045260246000fd5b6001900381819060005260206000200160009055905550565b61096f828260405180602001604052806000815250611cef565b60007f00000000000000000000000000000000000000000000000000000000000000006001600160a01b0316634000aea07f0000000000000000000000000000000000000000000000000000000000000000848660006040516020016119d3929190918252602082015260400190565b6040516020818303038152906040526040518463ffffffff1660e01b8152600401611a0093929190612434565b602060405180830381600087803b158015611a1a57600080fd5b505af1158015611a2e573d6000803e3d6000fd5b505050506040513d601f19601f82011682018060405250810190611a529190612212565b50600083815260086020818152604080842054815180840189905280830186905230606082015260808082018390528351808303909101815260a090910190925281519183019190912093879052919052611aae90600161256a565b6000858152600860205260409020556116338482604080516020808201949094528082019290925280518083038201815260609092019052805191012090565b600080546001600160a01b038381166001600160a01b0319831681178455604051919092169283917f8be0079c531659141344cd1fd0a4f28419497f9722a3daafe3b4186f6b6457e09190a35050565b600e8190556000828152600f60209081526040808320548084526010909252808320849055519091839183917fb98a68a35eede7a0353068c023cf5e57077cbe7099f89806090aba0302ade34691a3505050565b611b9d8484846116d5565b611ba984848484611d22565b6112e25760405162461bcd60e51b81526004016107d990612492565b6060600b80546106e1906125d9565b606081611bf957506040805180820190915260018152600360fc1b60208201526106cd565b8160005b8115611c235780611c0d81612614565b9150611c1c9050600a83612582565b9150611bfd565b60008167ffffffffffffffff811115611c4c57634e487b7160e01b600052604160045260246000fd5b6040519080825280601f01601f191660200182016040528015611c76576020820181803683370190505b5090505b841561163357611c8b600183612596565b9150611c98600a8661262f565b611ca390603061256a565b60f81b818381518110611cc657634e487b7160e01b600052603260045260246000fd5b60200101906001600160f81b031916908160001a905350611ce8600a86612582565b9450611c7a565b611cf98383611e2c565b611d066000848484611d22565b61090f5760405162461bcd60e51b81526004016107d990612492565b60006001600160a01b0384163b15611e2457604051630a85bd0160e11b81526001600160a01b0385169063150b7a0290611d669033908990889088906004016123f7565b602060405180830381600087803b158015611d8057600080fd5b505af1925050508015611db0575060408051601f3d908101601f19168201909252611dad9181019061226b565b60015b611e0a573d808015611dde576040519150601f19603f3d011682016040523d82523d6000602084013e611de3565b606091505b508051611e025760405162461bcd60e51b81526004016107d990612492565b805181602001fd5b6001600160e01b031916630a85bd0160e11b149050611633565b506001611633565b6001600160a01b038216611e825760405162461bcd60e51b815260206004820181905260248201527f4552433732313a206d696e7420746f20746865207a65726f206164647265737360448201526064016107d9565b6000818152600360205260409020546001600160a01b031615611ee75760405162461bcd60e51b815260206004820152601c60248201527f4552433732313a20746f6b656e20616c7265616479206d696e7465640000000060448201526064016107d9565b6001600160a01b0382166000908152600460205260408120805460019290611f1090849061256a565b909155505060008181526003602052604080822080546001600160a01b0319166001600160a01b03861690811790915590518392907fddf252ad1be2c89b69c2b068fc378daa952ba7f163c4a11628f55a4df523b3ef908290a45050565b828054611f7a906125d9565b90600052602060002090601f016020900481019282611f9c5760008555611fe2565b82601f10611fb557805160ff1916838001178555611fe2565b82800160010185558215611fe2579182015b82811115611fe2578251825591602001919060010190611fc7565b50611fee929150611ff2565b5090565b5b80821115611fee5760008155600101611ff3565b600067ffffffffffffffff808411156120225761202261266f565b604051601f8501601f19908116603f0116810190828211818310171561204a5761204a61266f565b8160405280935085815286868601111561206357600080fd5b858560208301376000602087830101525050509392505050565b80356001600160a01b03811681146106cd57600080fd5b600082601f8301126120a4578081fd5b61140883833560208501612007565b6000602082840312156120c4578081fd5b6114088261207d565b600080604083850312156120df578081fd5b6120e88361207d565b91506120f66020840161207d565b90509250929050565b600080600060608486031215612113578081fd5b61211c8461207d565b925061212a6020850161207d565b9150604084013590509250925092565b6000806000806080858703121561214f578081fd5b6121588561207d565b93506121666020860161207d565b925060408501359150606085013567ffffffffffffffff811115612188578182fd5b8501601f81018713612198578182fd5b6121a787823560208401612007565b91505092959194509250565b600080604083850312156121c5578182fd5b6121ce8361207d565b915060208301356121de81612685565b809150509250929050565b600080604083850312156121fb578182fd5b6122048361207d565b946020939093013593505050565b600060208284031215612223578081fd5b815161140881612685565b60008060408385031215612240578182fd5b50508035926020909101359150565b600060208284031215612260578081fd5b813561140881612693565b60006020828403121561227c578081fd5b815161140881612693565b60008060208385031215612299578182fd5b823567ffffffffffffffff808211156122b0578384fd5b818501915085601f8301126122c3578384fd5b8135818111156122d1578485fd5b8660208285010111156122e2578485fd5b60209290920196919550909350505050565b600060208284031215612305578081fd5b813567ffffffffffffffff81111561231b578182fd5b61163384828501612094565b600060208284031215612338578081fd5b5035919050565b600060208284031215612350578081fd5b5051919050565b60008060408385031215612369578182fd5b82359150602083013567ffffffffffffffff811115612386578182fd5b61239285828601612094565b9150509250929050565b600081518084526123b48160208601602086016125ad565b601f01601f19169290920160200192915050565b600083516123da8184602088016125ad565b8351908301906123ee8183602088016125ad565b01949350505050565b6001600160a01b038581168252841660208201526040810183905260806060820181905260009061242a9083018461239c565b9695505050505050565b600060018060a01b03851682528360208301526060604083015261245b606083018461239c565b95945050505050565b6000831515825260406020830152611633604083018461239c565b600060208252611408602083018461239c565b60208082526032908201527f4552433732313a207472616e7366657220746f206e6f6e20455243373231526560408201527131b2b4bb32b91034b6b83632b6b2b73a32b960711b606082015260800190565b6020808252818101527f4f776e61626c653a2063616c6c6572206973206e6f7420746865206f776e6572604082015260600190565b60208082526031908201527f4552433732313a207472616e736665722063616c6c6572206973206e6f74206f6040820152701ddb995c881b9bdc88185c1c1c9bdd9959607a1b606082015260800190565b6000821982111561257d5761257d612643565b500190565b60008261259157612591612659565b500490565b6000828210156125a8576125a8612643565b500390565b60005b838110156125c85781810151838201526020016125b0565b838111156112e25750506000910152565b600181811c908216806125ed57607f821691505b6020821081141561260e57634e487b7160e01b600052602260045260246000fd5b50919050565b600060001982141561262857612628612643565b5060010190565b60008261263e5761263e612659565b500690565b634e487b7160e01b600052601160045260246000fd5b634e487b7160e01b600052601260045260246000fd5b634e487b7160e01b600052604160045260246000fd5b801515811461112a57600080fd5b6001600160e01b03198116811461112a57600080fdfea2646970667358221220fd2203cd72b16465f3a4149f8b97d86a6e7c2f4d36e7adb35e5b3f7e4aadfed564736f6c6343000803003368747470733a2f2f75732d63656e7472616c312d726574726f2d636174732e636c6f756466756e6374696f6e732e6e65742f726574726f2d636174732d66756e6374696f6e3f746f6b656e5f69643d","bytecodeSha1":"da39a3ee5e6b4b0d3255bfef95601890afd80709","compiler":{"evm_version":"istanbul","optimizer":{"enabled":true,"runs":200},"version":"0.8.3+commit.8d00100c"},"contractName":"RetroCats","language":"Solidity","natspec":{"kind":"dev","methods":{"_setBaseURI(string)":{"details":"Sets the BaseURI for computing {tokenURI}. "},"approve(address,uint256)":{"details":"See {IERC721-approve}."},"balanceOf(address)":{"details":"See {IERC721-balanceOf}."},"checkUpkeep(bytes)":{"notice":"Checks to see if their are any tokenIds that don't have  a random number & tokenURI associated with them","params":{"checkData":"should be empty, needed for keeper network"}},"constructor":{"notice":"Deploys the retrocats factory contract","params":{"_linkToken":"The address of the Chainlink token","_vrfCoordinator":"The address of the VRF Coordinator  The VRF Coordinator does the due dilligence to ensure the number returned is truly random. "}},"getApproved(uint256)":{"details":"See {IERC721-getApproved}."},"isApprovedForAll(address,address)":{"details":"See {IERC721-isApprovedForAll}."},"mint_cat()":{"details":"We only trigger a chainlink VRF call every s_vrfCallInterval mints. Otherwise, we will have the Chainlink Keeper Network create our  random number, so others can't exploit searching for randomness. We do this as a cost saving mechanism. Since keepers is cheaper than  Chainlink VRF calls, but we still want true randomness. ","notice":"Mints a new random cat"},"name()":{"details":"See {IERC721Metadata-name}."},"owner()":{"details":"Returns the address of the current owner."},"ownerOf(uint256)":{"details":"See {IERC721-ownerOf}."},"renounceOwnership()":{"details":"Leaves the contract without owner. It will not be possible to call `onlyOwner` functions anymore. Can only be called by the current owner. NOTE: Renouncing ownership will leave the contract without an owner, thereby removing any functionality that is only available to the owner."},"safeTransferFrom(address,address,uint256)":{"details":"See {IERC721-safeTransferFrom}."},"safeTransferFrom(address,address,uint256,bytes)":{"details":"See {IERC721-safeTransferFrom}."},"setApprovalForAll(address,bool)":{"details":"See {IERC721-setApprovalForAll}."},"supportsInterface(bytes4)":{"details":"See {IERC165-supportsInterface}."},"symbol()":{"details":"See {IERC721Metadata-symbol}."},"tokenURI(uint256)":{"details":"See {IERC721Metadata-tokenURI}."},"transferFrom(address,address,uint256)":{"details":"See {IERC721-transferFrom}."},"transferOwnership(address)":{"details":"Transfers ownership of the contract to a new account (`newOwner`). Can only be called by the current owner."}},"stateVariables":{"s_vrfCallInterval":{"details":"Every X cats minted will trigger a new random number from the chainlink VRF. That X number, is this variable."}},"version":1},"opcodes":"PUSH1 0x80 PUSH1 0x40 MSTORE PUSH1 0x4 CALLDATASIZE LT PUSH2 0x204 JUMPI PUSH1 0x0 CALLDATALOAD PUSH1 0xE0 SHR DUP1 PUSH4 0x709239C9 GT PUSH2 0x118 JUMPI DUP1 PUSH4 0xA22CB465 GT PUSH2 0xA0 JUMPI DUP1 PUSH4 0xC8C2F4FA GT PUSH2 0x6F JUMPI DUP1 PUSH4 0xC8C2F4FA EQ PUSH2 0x5B2 JUMPI DUP1 PUSH4 0xD693C6CF EQ PUSH2 0x5DF JUMPI DUP1 PUSH4 0xE985E9C5 EQ PUSH2 0x5F5 JUMPI DUP1 PUSH4 0xF2FDE38B EQ PUSH2 0x63E JUMPI DUP1 PUSH4 0xF690B69D EQ PUSH2 0x65E JUMPI PUSH2 0x204 JUMP JUMPDEST DUP1 PUSH4 0xA22CB465 EQ PUSH2 0x532 JUMPI DUP1 PUSH4 0xB88D4FDE EQ PUSH2 0x552 JUMPI DUP1 PUSH4 0xC14B1545 EQ PUSH2 0x572 JUMPI DUP1 PUSH4 0xC87B56DD EQ PUSH2 0x592 JUMPI PUSH2 0x204 JUMP JUMPDEST DUP1 PUSH4 0x8DC654A2 GT PUSH2 0xE7 JUMPI DUP1 PUSH4 0x8DC654A2 EQ PUSH2 0x4A8 JUMPI DUP1 PUSH4 0x9325951A EQ PUSH2 0x4BD JUMPI DUP1 PUSH4 0x94985DDD EQ PUSH2 0x4DD JUMPI DUP1 PUSH4 0x95D89B41 EQ PUSH2 0x4FD JUMPI DUP1 PUSH4 0x9FEA4ADA EQ PUSH2 0x512 JUMPI PUSH2 0x204 JUMP JUMPDEST DUP1 PUSH4 0x709239C9 EQ PUSH2 0x43F JUMPI DUP1 PUSH4 0x70A08231 EQ PUSH2 0x455 JUMPI DUP1 PUSH4 0x715018A6 EQ PUSH2 0x475 JUMPI DUP1 PUSH4 0x8DA5CB5B EQ PUSH2 0x48A JUMPI PUSH2 0x204 JUMP JUMPDEST DUP1 PUSH4 0x31B5B907 GT PUSH2 0x19B JUMPI DUP1 PUSH4 0x4585E33B GT PUSH2 0x16A JUMPI DUP1 PUSH4 0x4585E33B EQ PUSH2 0x3B3 JUMPI DUP1 PUSH4 0x596C2328 EQ PUSH2 0x3D3 JUMPI DUP1 PUSH4 0x6352211E EQ PUSH2 0x3E9 JUMPI DUP1 PUSH4 0x65D59542 EQ PUSH2 0x409 JUMPI DUP1 PUSH4 0x6E04FF0D EQ PUSH2 0x411 JUMPI PUSH2 0x204 JUMP JUMPDEST DUP1 PUSH4 0x31B5B907 EQ PUSH2 0x33E JUMPI DUP1 PUSH4 0x3CCFD60B EQ PUSH2 0x35E JUMPI DUP1 PUSH4 0x3E5A2136 EQ PUSH2 0x373 JUMPI DUP1 PUSH4 0x42842E0E EQ PUSH2 0x393 JUMPI PUSH2 0x204 JUMP JUMPDEST DUP1 PUSH4 0xB21A83B GT PUSH2 0x1D7 JUMPI DUP1 PUSH4 0xB21A83B EQ PUSH2 0x2BA JUMPI DUP1 PUSH4 0x162094C4 EQ PUSH2 0x2DE JUMPI DUP1 PUSH4 0x233D027C EQ PUSH2 0x2FE JUMPI DUP1 PUSH4 0x23B872DD EQ PUSH2 0x31E JUMPI PUSH2 0x204 JUMP JUMPDEST DUP1 PUSH4 0x1FFC9A7 EQ PUSH2 0x209 JUMPI DUP1 PUSH4 0x6FDDE03 EQ PUSH2 0x23E JUMPI DUP1 PUSH4 0x81812FC EQ PUSH2 0x260 JUMPI DUP1 PUSH4 0x95EA7B3 EQ PUSH2 0x298 JUMPI JUMPDEST PUSH1 0x0 DUP1 REVERT JUMPDEST CALLVALUE DUP1 ISZERO PUSH2 0x215 JUMPI PUSH1 0x0 DUP1 REVERT JUMPDEST POP PUSH2 0x229 PUSH2 0x224 CALLDATASIZE PUSH1 0x4 PUSH2 0x224F JUMP JUMPDEST PUSH2 0x67E JUMP JUMPDEST PUSH1 0x40 MLOAD SWAP1 ISZERO ISZERO DUP2 MSTORE PUSH1 0x20 ADD JUMPDEST PUSH1 0x40 MLOAD DUP1 SWAP2 SUB SWAP1 RETURN JUMPDEST CALLVALUE DUP1 ISZERO PUSH2 0x24A JUMPI PUSH1 0x0 DUP1 REVERT JUMPDEST POP PUSH2 0x253 PUSH2 0x6D2 JUMP JUMPDEST PUSH1 0x40 MLOAD PUSH2 0x235 SWAP2 SWAP1 PUSH2 0x247F JUMP JUMPDEST CALLVALUE DUP1 ISZERO PUSH2 0x26C JUMPI PUSH1 0x0 DUP1 REVERT JUMPDEST POP PUSH2 0x280 PUSH2 0x27B CALLDATASIZE PUSH1 0x4 PUSH2 0x2327 JUMP JUMPDEST PUSH2 0x764 JUMP JUMPDEST PUSH1 0x40 MLOAD PUSH1 0x1 PUSH1 0x1 PUSH1 0xA0 SHL SUB SWAP1 SWAP2 AND DUP2 MSTORE PUSH1 0x20 ADD PUSH2 0x235 JUMP JUMPDEST CALLVALUE DUP1 ISZERO PUSH2 0x2A4 JUMPI PUSH1 0x0 DUP1 REVERT JUMPDEST POP PUSH2 0x2B8 PUSH2 0x2B3 CALLDATASIZE PUSH1 0x4 PUSH2 0x21E9 JUMP JUMPDEST PUSH2 0x7FE JUMP JUMPDEST STOP JUMPDEST CALLVALUE DUP1 ISZERO PUSH2 0x2C6 JUMPI PUSH1 0x0 DUP1 REVERT JUMPDEST POP PUSH2 0x2D0 PUSH1 0xA SLOAD DUP2 JUMP JUMPDEST PUSH1 0x40 MLOAD SWAP1 DUP2 MSTORE PUSH1 0x20 ADD PUSH2 0x235 JUMP JUMPDEST CALLVALUE DUP1 ISZERO PUSH2 0x2EA JUMPI PUSH1 0x0 DUP1 REVERT JUMPDEST POP PUSH2 0x2B8 PUSH2 0x2F9 CALLDATASIZE PUSH1 0x4 PUSH2 0x2357 JUMP JUMPDEST PUSH2 0x914 JUMP JUMPDEST CALLVALUE DUP1 ISZERO PUSH2 0x30A JUMPI PUSH1 0x0 DUP1 REVERT JUMPDEST POP PUSH2 0x2B8 PUSH2 0x319 CALLDATASIZE PUSH1 0x4 PUSH2 0x2327 JUMP JUMPDEST PUSH2 0x973 JUMP JUMPDEST CALLVALUE DUP1 ISZERO PUSH2 0x32A JUMPI PUSH1 0x0 DUP1 REVERT JUMPDEST POP PUSH2 0x2B8 PUSH2 0x339 CALLDATASIZE PUSH1 0x4 PUSH2 0x20FF JUMP JUMPDEST PUSH2 0x9A2 JUMP JUMPDEST CALLVALUE DUP1 ISZERO PUSH2 0x34A JUMPI PUSH1 0x0 DUP1 REVERT JUMPDEST POP PUSH2 0x2B8 PUSH2 0x359 CALLDATASIZE PUSH1 0x4 PUSH2 0x22F4 JUMP JUMPDEST PUSH2 0x9D3 JUMP JUMPDEST CALLVALUE DUP1 ISZERO PUSH2 0x36A JUMPI PUSH1 0x0 DUP1 REVERT JUMPDEST POP PUSH2 0x2B8 PUSH2 0xA10 JUMP JUMPDEST CALLVALUE DUP1 ISZERO PUSH2 0x37F JUMPI PUSH1 0x0 DUP1 REVERT JUMPDEST POP PUSH1 0x11 SLOAD PUSH2 0x280 SWAP1 PUSH1 0x1 PUSH1 0x1 PUSH1 0xA0 SHL SUB AND DUP2 JUMP JUMPDEST CALLVALUE DUP1 ISZERO PUSH2 0x39F JUMPI PUSH1 0x0 DUP1 REVERT JUMPDEST POP PUSH2 0x2B8 PUSH2 0x3AE CALLDATASIZE PUSH1 0x4 PUSH2 0x20FF JUMP JUMPDEST PUSH2 0xA85 JUMP JUMPDEST CALLVALUE DUP1 ISZERO PUSH2 0x3BF JUMPI PUSH1 0x0 DUP1 REVERT JUMPDEST POP PUSH2 0x2B8 PUSH2 0x3CE CALLDATASIZE PUSH1 0x4 PUSH2 0x2287 JUMP JUMPDEST PUSH2 0xAA0 JUMP JUMPDEST CALLVALUE DUP1 ISZERO PUSH2 0x3DF JUMPI PUSH1 0x0 DUP1 REVERT JUMPDEST POP PUSH2 0x2D0 PUSH1 0xD SLOAD DUP2 JUMP JUMPDEST CALLVALUE DUP1 ISZERO PUSH2 0x3F5 JUMPI PUSH1 0x0 DUP1 REVERT JUMPDEST POP PUSH2 0x280 PUSH2 0x404 CALLDATASIZE PUSH1 0x4 PUSH2 0x2327 JUMP JUMPDEST PUSH2 0xC43 JUMP JUMPDEST PUSH2 0x2D0 PUSH2 0xCBA JUMP JUMPDEST CALLVALUE DUP1 ISZERO PUSH2 0x41D JUMPI PUSH1 0x0 DUP1 REVERT JUMPDEST POP PUSH2 0x431 PUSH2 0x42C CALLDATASIZE PUSH1 0x4 PUSH2 0x2287 JUMP JUMPDEST PUSH2 0xE99 JUMP JUMPDEST PUSH1 0x40 MLOAD PUSH2 0x235 SWAP3 SWAP2 SWAP1 PUSH2 0x2464 JUMP JUMPDEST CALLVALUE DUP1 ISZERO PUSH2 0x44B JUMPI PUSH1 0x0 DUP1 REVERT JUMPDEST POP PUSH2 0x2D0 PUSH1 0x12 SLOAD DUP2 JUMP JUMPDEST CALLVALUE DUP1 ISZERO PUSH2 0x461 JUMPI PUSH1 0x0 DUP1 REVERT JUMPDEST POP PUSH2 0x2D0 PUSH2 0x470 CALLDATASIZE PUSH1 0x4 PUSH2 0x20B3 JUMP JUMPDEST PUSH2 0xEE1 JUMP JUMPDEST CALLVALUE DUP1 ISZERO PUSH2 0x481 JUMPI PUSH1 0x0 DUP1 REVERT JUMPDEST POP PUSH2 0x2B8 PUSH2 0xF68 JUMP JUMPDEST CALLVALUE DUP1 ISZERO PUSH2 0x496 JUMPI PUSH1 0x0 DUP1 REVERT JUMPDEST POP PUSH1 0x0 SLOAD PUSH1 0x1 PUSH1 0x1 PUSH1 0xA0 SHL SUB AND PUSH2 0x280 JUMP JUMPDEST CALLVALUE DUP1 ISZERO PUSH2 0x4B4 JUMPI PUSH1 0x0 DUP1 REVERT JUMPDEST POP PUSH2 0x2B8 PUSH2 0xF9E JUMP JUMPDEST CALLVALUE DUP1 ISZERO PUSH2 0x4C9 JUMPI PUSH1 0x0 DUP1 REVERT JUMPDEST POP PUSH1 0x14 SLOAD PUSH2 0x280 SWAP1 PUSH1 0x1 PUSH1 0x1 PUSH1 0xA0 SHL SUB AND DUP2 JUMP JUMPDEST CALLVALUE DUP1 ISZERO PUSH2 0x4E9 JUMPI PUSH1 0x0 DUP1 REVERT JUMPDEST POP PUSH2 0x2B8 PUSH2 0x4F8 CALLDATASIZE PUSH1 0x4 PUSH2 0x222E JUMP JUMPDEST PUSH2 0x112D JUMP JUMPDEST CALLVALUE DUP1 ISZERO PUSH2 0x509 JUMPI PUSH1 0x0 DUP1 REVERT JUMPDEST POP PUSH2 0x253 PUSH2 0x11AF JUMP JUMPDEST CALLVALUE DUP1 ISZERO PUSH2 0x51E JUMPI PUSH1 0x0 DUP1 REVERT JUMPDEST POP PUSH2 0x2D0 PUSH2 0x52D CALLDATASIZE PUSH1 0x4 PUSH2 0x2327 JUMP JUMPDEST PUSH2 0x11BE JUMP JUMPDEST CALLVALUE DUP1 ISZERO PUSH2 0x53E JUMPI PUSH1 0x0 DUP1 REVERT JUMPDEST POP PUSH2 0x2B8 PUSH2 0x54D CALLDATASIZE PUSH1 0x4 PUSH2 0x21B3 JUMP JUMPDEST PUSH2 0x11DF JUMP JUMPDEST CALLVALUE DUP1 ISZERO PUSH2 0x55E JUMPI PUSH1 0x0 DUP1 REVERT JUMPDEST POP PUSH2 0x2B8 PUSH2 0x56D CALLDATASIZE PUSH1 0x4 PUSH2 0x213A JUMP JUMPDEST PUSH2 0x12B1 JUMP JUMPDEST CALLVALUE DUP1 ISZERO PUSH2 0x57E JUMPI PUSH1 0x0 DUP1 REVERT JUMPDEST POP PUSH2 0x2B8 PUSH2 0x58D CALLDATASIZE PUSH1 0x4 PUSH2 0x20B3 JUMP JUMPDEST PUSH2 0x12E8 JUMP JUMPDEST CALLVALUE DUP1 ISZERO PUSH2 0x59E JUMPI PUSH1 0x0 DUP1 REVERT JUMPDEST POP PUSH2 0x253 PUSH2 0x5AD CALLDATASIZE PUSH1 0x4 PUSH2 0x2327 JUMP JUMPDEST PUSH2 0x1334 JUMP JUMPDEST CALLVALUE DUP1 ISZERO PUSH2 0x5BE JUMPI PUSH1 0x0 DUP1 REVERT JUMPDEST POP PUSH2 0x2D0 PUSH2 0x5CD CALLDATASIZE PUSH1 0x4 PUSH2 0x2327 JUMP JUMPDEST PUSH1 0x10 PUSH1 0x20 MSTORE PUSH1 0x0 SWAP1 DUP2 MSTORE PUSH1 0x40 SWAP1 KECCAK256 SLOAD DUP2 JUMP JUMPDEST CALLVALUE DUP1 ISZERO PUSH2 0x5EB JUMPI PUSH1 0x0 DUP1 REVERT JUMPDEST POP PUSH2 0x2D0 PUSH1 0x15 SLOAD DUP2 JUMP JUMPDEST CALLVALUE DUP1 ISZERO PUSH2 0x601 JUMPI PUSH1 0x0 DUP1 REVERT JUMPDEST POP PUSH2 0x229 PUSH2 0x610 CALLDATASIZE PUSH1 0x4 PUSH2 0x20CD JUMP JUMPDEST PUSH1 0x1 PUSH1 0x1 PUSH1 0xA0 SHL SUB SWAP2 DUP3 AND PUSH1 0x0 SWAP1 DUP2 MSTORE PUSH1 0x6 PUSH1 0x20 SWAP1 DUP2 MSTORE PUSH1 0x40 DUP1 DUP4 KECCAK256 SWAP4 SWAP1 SWAP5 AND DUP3 MSTORE SWAP2 SWAP1 SWAP2 MSTORE KECCAK256 SLOAD PUSH1 0xFF AND SWAP1 JUMP JUMPDEST CALLVALUE DUP1 ISZERO PUSH2 0x64A JUMPI PUSH1 0x0 DUP1 REVERT JUMPDEST POP PUSH2 0x2B8 PUSH2 0x659 CALLDATASIZE PUSH1 0x4 PUSH2 0x20B3 JUMP JUMPDEST PUSH2 0x140F JUMP JUMPDEST CALLVALUE DUP1 ISZERO PUSH2 0x66A JUMPI PUSH1 0x0 DUP1 REVERT JUMPDEST POP PUSH2 0x2B8 PUSH2 0x679 CALLDATASIZE PUSH1 0x4 PUSH2 0x2327 JUMP JUMPDEST PUSH2 0x14A7 JUMP JUMPDEST PUSH1 0x0 PUSH1 0x1 PUSH1 0x1 PUSH1 0xE0 SHL SUB NOT DUP3 AND PUSH4 0x80AC58CD PUSH1 0xE0 SHL EQ DUP1 PUSH2 0x6AF JUMPI POP PUSH1 0x1 PUSH1 0x1 PUSH1 0xE0 SHL SUB NOT DUP3 AND PUSH4 0x5B5E139F PUSH1 0xE0 SHL EQ JUMPDEST DUP1 PUSH2 0x6CA JUMPI POP PUSH4 0x1FFC9A7 PUSH1 0xE0 SHL PUSH1 0x1 PUSH1 0x1 PUSH1 0xE0 SHL SUB NOT DUP4 AND EQ JUMPDEST SWAP1 POP JUMPDEST SWAP2 SWAP1 POP JUMP JUMPDEST PUSH1 0x60 PUSH1 0x1 DUP1 SLOAD PUSH2 0x6E1 SWAP1 PUSH2 0x25D9 JUMP JUMPDEST DUP1 PUSH1 0x1F ADD PUSH1 0x20 DUP1 SWAP2 DIV MUL PUSH1 0x20 ADD PUSH1 0x40 MLOAD SWAP1 DUP2 ADD PUSH1 0x40 MSTORE DUP1 SWAP3 SWAP2 SWAP1 DUP2 DUP2 MSTORE PUSH1 0x20 ADD DUP3 DUP1 SLOAD PUSH2 0x70D SWAP1 PUSH2 0x25D9 JUMP JUMPDEST DUP1 ISZERO PUSH2 0x75A JUMPI DUP1 PUSH1 0x1F LT PUSH2 0x72F JUMPI PUSH2 0x100 DUP1 DUP4 SLOAD DIV MUL DUP4 MSTORE SWAP2 PUSH1 0x20 ADD SWAP2 PUSH2 0x75A JUMP JUMPDEST DUP3 ADD SWAP2 SWAP1 PUSH1 0x0 MSTORE PUSH1 0x20 PUSH1 0x0 KECCAK256 SWAP1 JUMPDEST DUP2 SLOAD DUP2 MSTORE SWAP1 PUSH1 0x1 ADD SWAP1 PUSH1 0x20 ADD DUP1 DUP4 GT PUSH2 0x73D JUMPI DUP3 SWAP1 SUB PUSH1 0x1F AND DUP3 ADD SWAP2 JUMPDEST POP POP POP POP POP SWAP1 POP SWAP1 JUMP JUMPDEST PUSH1 0x0 DUP2 DUP2 MSTORE PUSH1 0x3 PUSH1 0x20 MSTORE PUSH1 0x40 DUP2 KECCAK256 SLOAD PUSH1 0x1 PUSH1 0x1 PUSH1 0xA0 SHL SUB AND PUSH2 0x7E2 JUMPI PUSH1 0x40 MLOAD PUSH3 0x461BCD PUSH1 0xE5 SHL DUP2 MSTORE PUSH1 0x20 PUSH1 0x4 DUP3 ADD MSTORE PUSH1 0x2C PUSH1 0x24 DUP3 ADD MSTORE PUSH32 0x4552433732313A20617070726F76656420717565727920666F72206E6F6E6578 PUSH1 0x44 DUP3 ADD MSTORE PUSH12 0x34B9BA32B73A103A37B5B2B7 PUSH1 0xA1 SHL PUSH1 0x64 DUP3 ADD MSTORE PUSH1 0x84 ADD JUMPDEST PUSH1 0x40 MLOAD DUP1 SWAP2 SUB SWAP1 REVERT JUMPDEST POP PUSH1 0x0 SWAP1 DUP2 MSTORE PUSH1 0x5 PUSH1 0x20 MSTORE PUSH1 0x40 SWAP1 KECCAK256 SLOAD PUSH1 0x1 PUSH1 0x1 PUSH1 0xA0 SHL SUB AND SWAP1 JUMP JUMPDEST PUSH1 0x0 PUSH2 0x809 DUP3 PUSH2 0xC43 JUMP JUMPDEST SWAP1 POP DUP1 PUSH1 0x1 PUSH1 0x1 PUSH1 0xA0 SHL SUB AND DUP4 PUSH1 0x1 PUSH1 0x1 PUSH1 0xA0 SHL SUB AND EQ ISZERO PUSH2 0x877 JUMPI PUSH1 0x40 MLOAD PUSH3 0x461BCD PUSH1 0xE5 SHL DUP2 MSTORE PUSH1 0x20 PUSH1 0x4 DUP3 ADD MSTORE PUSH1 0x21 PUSH1 0x24 DUP3 ADD MSTORE PUSH32 0x4552433732313A20617070726F76616C20746F2063757272656E74206F776E65 PUSH1 0x44 DUP3 ADD MSTORE PUSH1 0x39 PUSH1 0xF9 SHL PUSH1 0x64 DUP3 ADD MSTORE PUSH1 0x84 ADD PUSH2 0x7D9 JUMP JUMPDEST CALLER PUSH1 0x1 PUSH1 0x1 PUSH1 0xA0 SHL SUB DUP3 AND EQ DUP1 PUSH2 0x893 JUMPI POP PUSH2 0x893 DUP2 CALLER PUSH2 0x610 JUMP JUMPDEST PUSH2 0x905 JUMPI PUSH1 0x40 MLOAD PUSH3 0x461BCD PUSH1 0xE5 SHL DUP2 MSTORE PUSH1 0x20 PUSH1 0x4 DUP3 ADD MSTORE PUSH1 0x38 PUSH1 0x24 DUP3 ADD MSTORE PUSH32 0x4552433732313A20617070726F76652063616C6C6572206973206E6F74206F77 PUSH1 0x44 DUP3 ADD MSTORE PUSH32 0x6E6572206E6F7220617070726F76656420666F7220616C6C0000000000000000 PUSH1 0x64 DUP3 ADD MSTORE PUSH1 0x84 ADD PUSH2 0x7D9 JUMP JUMPDEST PUSH2 0x90F DUP4 DUP4 PUSH2 0x14D6 JUMP JUMPDEST POP POP POP JUMP JUMPDEST PUSH1 0x0 SLOAD PUSH1 0x1 PUSH1 0x1 PUSH1 0xA0 SHL SUB AND CALLER EQ PUSH2 0x93E JUMPI PUSH1 0x40 MLOAD PUSH3 0x461BCD PUSH1 0xE5 SHL DUP2 MSTORE PUSH1 0x4 ADD PUSH2 0x7D9 SWAP1 PUSH2 0x24E4 JUMP JUMPDEST PUSH2 0x949 CALLER JUMPDEST DUP4 PUSH2 0x1544 JUMP JUMPDEST PUSH2 0x965 JUMPI PUSH1 0x40 MLOAD PUSH3 0x461BCD PUSH1 0xE5 SHL DUP2 MSTORE PUSH1 0x4 ADD PUSH2 0x7D9 SWAP1 PUSH2 0x2519 JUMP JUMPDEST PUSH2 0x96F DUP3 DUP3 PUSH2 0x163B JUMP JUMPDEST POP POP JUMP JUMPDEST PUSH1 0x0 SLOAD PUSH1 0x1 PUSH1 0x1 PUSH1 0xA0 SHL SUB AND CALLER EQ PUSH2 0x99D JUMPI PUSH1 0x40 MLOAD PUSH3 0x461BCD PUSH1 0xE5 SHL DUP2 MSTORE PUSH1 0x4 ADD PUSH2 0x7D9 SWAP1 PUSH2 0x24E4 JUMP JUMPDEST PUSH1 0x15 SSTORE JUMP JUMPDEST PUSH2 0x9AC CALLER DUP3 PUSH2 0x1544 JUMP JUMPDEST PUSH2 0x9C8 JUMPI PUSH1 0x40 MLOAD PUSH3 0x461BCD PUSH1 0xE5 SHL DUP2 MSTORE PUSH1 0x4 ADD PUSH2 0x7D9 SWAP1 PUSH2 0x2519 JUMP JUMPDEST PUSH2 0x90F DUP4 DUP4 DUP4 PUSH2 0x16D5 JUMP JUMPDEST PUSH1 0x0 SLOAD PUSH1 0x1 PUSH1 0x1 PUSH1 0xA0 SHL SUB AND CALLER EQ PUSH2 0x9FD JUMPI PUSH1 0x40 MLOAD PUSH3 0x461BCD PUSH1 0xE5 SHL DUP2 MSTORE PUSH1 0x4 ADD PUSH2 0x7D9 SWAP1 PUSH2 0x24E4 JUMP JUMPDEST DUP1 MLOAD PUSH2 0x96F SWAP1 PUSH1 0xB SWAP1 PUSH1 0x20 DUP5 ADD SWAP1 PUSH2 0x1F6E JUMP JUMPDEST PUSH1 0x0 SLOAD PUSH1 0x1 PUSH1 0x1 PUSH1 0xA0 SHL SUB AND CALLER EQ PUSH2 0xA3A JUMPI PUSH1 0x40 MLOAD PUSH3 0x461BCD PUSH1 0xE5 SHL DUP2 MSTORE PUSH1 0x4 ADD PUSH2 0x7D9 SWAP1 PUSH2 0x24E4 JUMP JUMPDEST SELFBALANCE PUSH2 0xA4D PUSH1 0x0 SLOAD PUSH1 0x1 PUSH1 0x1 PUSH1 0xA0 SHL SUB AND SWAP1 JUMP JUMPDEST PUSH1 0x1 PUSH1 0x1 PUSH1 0xA0 SHL SUB AND PUSH2 0x8FC DUP3 SWAP1 DUP2 ISZERO MUL SWAP1 PUSH1 0x40 MLOAD PUSH1 0x0 PUSH1 0x40 MLOAD DUP1 DUP4 SUB DUP2 DUP6 DUP9 DUP9 CALL SWAP4 POP POP POP POP ISZERO DUP1 ISZERO PUSH2 0x96F JUMPI RETURNDATASIZE PUSH1 0x0 DUP1 RETURNDATACOPY RETURNDATASIZE PUSH1 0x0 REVERT JUMPDEST PUSH2 0x90F DUP4 DUP4 DUP4 PUSH1 0x40 MLOAD DUP1 PUSH1 0x20 ADD PUSH1 0x40 MSTORE DUP1 PUSH1 0x0 DUP2 MSTORE POP PUSH2 0x12B1 JUMP JUMPDEST PUSH1 0x11 SLOAD PUSH1 0x1 PUSH1 0x1 PUSH1 0xA0 SHL SUB AND CALLER EQ PUSH2 0xB0D JUMPI PUSH1 0x40 MLOAD PUSH3 0x461BCD PUSH1 0xE5 SHL DUP2 MSTORE PUSH1 0x20 PUSH1 0x4 DUP3 ADD MSTORE PUSH1 0x2A PUSH1 0x24 DUP3 ADD MSTORE PUSH32 0x526574726F436174733A2043616C6C6572206973206E6F74206120436861696E PUSH1 0x44 DUP3 ADD MSTORE PUSH10 0x6C696E6B204E6F646521 PUSH1 0xB0 SHL PUSH1 0x64 DUP3 ADD MSTORE PUSH1 0x84 ADD PUSH2 0x7D9 JUMP JUMPDEST PUSH1 0x13 SLOAD PUSH2 0xB6A JUMPI PUSH1 0x40 MLOAD PUSH3 0x461BCD PUSH1 0xE5 SHL DUP2 MSTORE PUSH1 0x20 PUSH1 0x4 DUP3 ADD MSTORE PUSH1 0x25 PUSH1 0x24 DUP3 ADD MSTORE PUSH32 0x526574726F436174733A205468657265206973206E6F7468696E6720696E2071 PUSH1 0x44 DUP3 ADD MSTORE PUSH5 0x7565756521 PUSH1 0xD8 SHL PUSH1 0x64 DUP3 ADD MSTORE PUSH1 0x84 ADD PUSH2 0x7D9 JUMP JUMPDEST PUSH1 0x0 DUP1 PUSH1 0x13 DUP3 DUP2 SLOAD DUP2 LT PUSH2 0xB8E JUMPI PUSH4 0x4E487B71 PUSH1 0xE0 SHL PUSH1 0x0 MSTORE PUSH1 0x32 PUSH1 0x4 MSTORE PUSH1 0x24 PUSH1 0x0 REVERT JUMPDEST PUSH1 0x0 SWAP2 DUP3 MSTORE PUSH1 0x20 DUP1 DUP4 KECCAK256 SWAP1 SWAP2 ADD SLOAD PUSH1 0x40 DUP1 MLOAD DIFFICULTY SWAP4 DUP2 ADD SWAP4 SWAP1 SWAP4 MSTORE NUMBER SWAP1 DUP4 ADD MSTORE TIMESTAMP PUSH1 0x60 DUP1 DUP5 ADD SWAP2 SWAP1 SWAP2 MSTORE PUSH12 0xFFFFFFFFFFFFFFFFFFFFFFFF NOT ORIGIN SWAP1 SWAP2 SHL AND PUSH1 0x80 DUP4 ADD MSTORE GASPRICE PUSH1 0x94 DUP4 ADD MSTORE PUSH1 0xB4 DUP3 ADD DUP2 SWAP1 MSTORE SWAP3 POP PUSH1 0xD4 ADD PUSH1 0x40 DUP1 MLOAD PUSH1 0x1F NOT DUP2 DUP5 SUB ADD DUP2 MSTORE DUP3 DUP3 MSTORE DUP1 MLOAD PUSH1 0x20 SWAP2 DUP3 ADD KECCAK256 PUSH1 0x0 DUP7 DUP2 MSTORE PUSH1 0x10 SWAP1 SWAP3 MSTORE SWAP2 DUP2 KECCAK256 DUP3 SWAP1 SSTORE SWAP1 SWAP3 POP DUP3 SWAP2 DUP5 SWAP2 PUSH32 0xB98A68A35EEDE7A0353068C023CF5E57077CBE7099F89806090ABA0302ADE346 SWAP2 LOG3 PUSH2 0xC3C DUP4 PUSH2 0x1875 JUMP JUMPDEST POP POP POP POP POP JUMP JUMPDEST PUSH1 0x0 DUP2 DUP2 MSTORE PUSH1 0x3 PUSH1 0x20 MSTORE PUSH1 0x40 DUP2 KECCAK256 SLOAD PUSH1 0x1 PUSH1 0x1 PUSH1 0xA0 SHL SUB AND DUP1 PUSH2 0x6CA JUMPI PUSH1 0x40 MLOAD PUSH3 0x461BCD PUSH1 0xE5 SHL DUP2 MSTORE PUSH1 0x20 PUSH1 0x4 DUP3 ADD MSTORE PUSH1 0x29 PUSH1 0x24 DUP3 ADD MSTORE PUSH32 0x4552433732313A206F776E657220717565727920666F72206E6F6E6578697374 PUSH1 0x44 DUP3 ADD MSTORE PUSH9 0x32B73A103A37B5B2B7 PUSH1 0xB9 SHL PUSH1 0x64 DUP3 ADD MSTORE PUSH1 0x84 ADD PUSH2 0x7D9 JUMP JUMPDEST PUSH1 0x0 PUSH1 0x2 PUSH1 0x9 SLOAD EQ ISZERO PUSH2 0xD0F JUMPI PUSH1 0x40 MLOAD PUSH3 0x461BCD PUSH1 0xE5 SHL DUP2 MSTORE PUSH1 0x20 PUSH1 0x4 DUP3 ADD MSTORE PUSH1 0x1F PUSH1 0x24 DUP3 ADD MSTORE PUSH32 0x5265656E7472616E637947756172643A207265656E7472616E742063616C6C00 PUSH1 0x44 DUP3 ADD MSTORE PUSH1 0x64 ADD PUSH2 0x7D9 JUMP JUMPDEST PUSH1 0x2 PUSH1 0x9 SSTORE PUSH1 0x15 SLOAD CALLVALUE LT ISZERO PUSH2 0xD66 JUMPI PUSH1 0x40 MLOAD PUSH3 0x461BCD PUSH1 0xE5 SHL DUP2 MSTORE PUSH1 0x20 PUSH1 0x4 DUP3 ADD MSTORE PUSH1 0x19 PUSH1 0x24 DUP3 ADD MSTORE PUSH32 0x596F75206D757374207061792074686520636174206665652100000000000000 PUSH1 0x44 DUP3 ADD MSTORE PUSH1 0x64 ADD PUSH2 0x7D9 JUMP JUMPDEST POP PUSH1 0xA SLOAD PUSH2 0xD74 CALLER DUP3 PUSH2 0x1949 JUMP JUMPDEST PUSH1 0x12 SLOAD PUSH1 0xA SLOAD PUSH2 0xD84 SWAP2 SWAP1 PUSH2 0x262F JUMP JUMPDEST PUSH2 0xE17 JUMPI PUSH1 0x0 PUSH2 0xD98 PUSH1 0xC SLOAD PUSH1 0xD SLOAD PUSH2 0x1963 JUMP JUMPDEST PUSH1 0x0 DUP2 DUP2 MSTORE PUSH1 0xF PUSH1 0x20 MSTORE PUSH1 0x40 SWAP1 DUP2 SWAP1 KECCAK256 DUP5 SWAP1 SSTORE MLOAD SWAP1 SWAP2 POP PUSH32 0x4DD7D0343CA2BA4D424FEC6C54658C1CAA13698AE25FBB598920BBF1C7659973 SWAP1 PUSH2 0xDDE SWAP1 DUP5 DUP2 MSTORE PUSH1 0x20 ADD SWAP1 JUMP JUMPDEST PUSH1 0x40 MLOAD DUP1 SWAP2 SUB SWAP1 LOG1 PUSH1 0x40 MLOAD DUP2 SWAP1 PUSH32 0x6B200B23C1D48A948F260702DFFE8D791E8F196B57BDF0D7D5F76BCF0B974D62 SWAP1 PUSH1 0x0 SWAP1 LOG2 POP PUSH2 0xE80 JUMP JUMPDEST PUSH1 0x13 DUP1 SLOAD PUSH1 0x1 DUP2 ADD DUP3 SSTORE PUSH1 0x0 SWAP2 SWAP1 SWAP2 MSTORE PUSH32 0x66DE8FFDA797E3DE9C05E8FC57B3BF0EC28A930D40B0D285D93C06501CF6A090 ADD DUP2 SWAP1 SSTORE PUSH1 0x40 MLOAD DUP2 DUP2 MSTORE PUSH32 0x4DD7D0343CA2BA4D424FEC6C54658C1CAA13698AE25FBB598920BBF1C7659973 SWAP1 PUSH1 0x20 ADD PUSH1 0x40 MLOAD DUP1 SWAP2 SUB SWAP1 LOG1 JUMPDEST PUSH1 0xA SLOAD PUSH2 0xE8E SWAP1 PUSH1 0x1 PUSH2 0x256A JUMP JUMPDEST PUSH1 0xA SSTORE PUSH1 0x1 PUSH1 0x9 SSTORE SWAP1 JUMP JUMPDEST PUSH1 0x13 SLOAD PUSH1 0x40 DUP1 MLOAD PUSH1 0x20 PUSH1 0x1F DUP6 ADD DUP2 SWAP1 DIV DUP2 MUL DUP3 ADD DUP2 ADD SWAP1 SWAP3 MSTORE DUP4 DUP2 MSTORE SWAP2 ISZERO ISZERO SWAP2 PUSH1 0x60 SWAP2 DUP6 SWAP1 DUP6 SWAP1 DUP2 SWAP1 DUP5 ADD DUP4 DUP3 DUP1 DUP3 DUP5 CALLDATACOPY PUSH1 0x0 SWAP3 ADD SWAP2 SWAP1 SWAP2 MSTORE POP SWAP5 SWAP8 SWAP3 SWAP7 POP SWAP2 SWAP5 POP POP POP POP POP JUMP JUMPDEST PUSH1 0x0 PUSH1 0x1 PUSH1 0x1 PUSH1 0xA0 SHL SUB DUP3 AND PUSH2 0xF4C JUMPI PUSH1 0x40 MLOAD PUSH3 0x461BCD PUSH1 0xE5 SHL DUP2 MSTORE PUSH1 0x20 PUSH1 0x4 DUP3 ADD MSTORE PUSH1 0x2A PUSH1 0x24 DUP3 ADD MSTORE PUSH32 0x4552433732313A2062616C616E636520717565727920666F7220746865207A65 PUSH1 0x44 DUP3 ADD MSTORE PUSH10 0x726F2061646472657373 PUSH1 0xB0 SHL PUSH1 0x64 DUP3 ADD MSTORE PUSH1 0x84 ADD PUSH2 0x7D9 JUMP JUMPDEST POP PUSH1 0x1 PUSH1 0x1 PUSH1 0xA0 SHL SUB AND PUSH1 0x0 SWAP1 DUP2 MSTORE PUSH1 0x4 PUSH1 0x20 MSTORE PUSH1 0x40 SWAP1 KECCAK256 SLOAD SWAP1 JUMP JUMPDEST PUSH1 0x0 SLOAD PUSH1 0x1 PUSH1 0x1 PUSH1 0xA0 SHL SUB AND CALLER EQ PUSH2 0xF92 JUMPI PUSH1 0x40 MLOAD PUSH3 0x461BCD PUSH1 0xE5 SHL DUP2 MSTORE PUSH1 0x4 ADD PUSH2 0x7D9 SWAP1 PUSH2 0x24E4 JUMP JUMPDEST PUSH2 0xF9C PUSH1 0x0 PUSH2 0x1AEE JUMP JUMPDEST JUMP JUMPDEST PUSH1 0x0 SLOAD PUSH1 0x1 PUSH1 0x1 PUSH1 0xA0 SHL SUB AND CALLER EQ PUSH2 0xFC8 JUMPI PUSH1 0x40 MLOAD PUSH3 0x461BCD PUSH1 0xE5 SHL DUP2 MSTORE PUSH1 0x4 ADD PUSH2 0x7D9 SWAP1 PUSH2 0x24E4 JUMP JUMPDEST PUSH1 0x40 MLOAD PUSH4 0x70A08231 PUSH1 0xE0 SHL DUP2 MSTORE ADDRESS PUSH1 0x4 DUP3 ADD MSTORE PUSH32 0x0 SWAP1 PUSH1 0x1 PUSH1 0x1 PUSH1 0xA0 SHL SUB DUP3 AND SWAP1 PUSH4 0xA9059CBB SWAP1 CALLER SWAP1 DUP4 SWAP1 PUSH4 0x70A08231 SWAP1 PUSH1 0x24 ADD PUSH1 0x20 PUSH1 0x40 MLOAD DUP1 DUP4 SUB DUP2 DUP7 DUP1 EXTCODESIZE ISZERO DUP1 ISZERO PUSH2 0x1033 JUMPI PUSH1 0x0 DUP1 REVERT JUMPDEST POP GAS STATICCALL ISZERO DUP1 ISZERO PUSH2 0x1047 JUMPI RETURNDATASIZE PUSH1 0x0 DUP1 RETURNDATACOPY RETURNDATASIZE PUSH1 0x0 REVERT JUMPDEST POP POP POP POP PUSH1 0x40 MLOAD RETURNDATASIZE PUSH1 0x1F NOT PUSH1 0x1F DUP3 ADD AND DUP3 ADD DUP1 PUSH1 0x40 MSTORE POP DUP2 ADD SWAP1 PUSH2 0x106B SWAP2 SWAP1 PUSH2 0x233F JUMP JUMPDEST PUSH1 0x40 MLOAD PUSH1 0x1 PUSH1 0x1 PUSH1 0xE0 SHL SUB NOT PUSH1 0xE0 DUP6 SWAP1 SHL AND DUP2 MSTORE PUSH1 0x1 PUSH1 0x1 PUSH1 0xA0 SHL SUB SWAP1 SWAP3 AND PUSH1 0x4 DUP4 ADD MSTORE PUSH1 0x24 DUP3 ADD MSTORE PUSH1 0x44 ADD PUSH1 0x20 PUSH1 0x40 MLOAD DUP1 DUP4 SUB DUP2 PUSH1 0x0 DUP8 DUP1 EXTCODESIZE ISZERO DUP1 ISZERO PUSH2 0x10B1 JUMPI PUSH1 0x0 DUP1 REVERT JUMPDEST POP GAS CALL ISZERO DUP1 ISZERO PUSH2 0x10C5 JUMPI RETURNDATASIZE PUSH1 0x0 DUP1 RETURNDATACOPY RETURNDATASIZE PUSH1 0x0 REVERT JUMPDEST POP POP POP POP PUSH1 0x40 MLOAD RETURNDATASIZE PUSH1 0x1F NOT PUSH1 0x1F DUP3 ADD AND DUP3 ADD DUP1 PUSH1 0x40 MSTORE POP DUP2 ADD SWAP1 PUSH2 0x10E9 SWAP2 SWAP1 PUSH2 0x2212 JUMP JUMPDEST PUSH2 0x112A JUMPI PUSH1 0x40 MLOAD PUSH3 0x461BCD PUSH1 0xE5 SHL DUP2 MSTORE PUSH1 0x20 PUSH1 0x4 DUP3 ADD MSTORE PUSH1 0x12 PUSH1 0x24 DUP3 ADD MSTORE PUSH18 0x2AB730B13632903A37903A3930B739B332B9 PUSH1 0x71 SHL PUSH1 0x44 DUP3 ADD MSTORE PUSH1 0x64 ADD PUSH2 0x7D9 JUMP JUMPDEST POP JUMP JUMPDEST CALLER PUSH1 0x1 PUSH1 0x1 PUSH1 0xA0 SHL SUB PUSH32 0x0 AND EQ PUSH2 0x11A5 JUMPI PUSH1 0x40 MLOAD PUSH3 0x461BCD PUSH1 0xE5 SHL DUP2 MSTORE PUSH1 0x20 PUSH1 0x4 DUP3 ADD MSTORE PUSH1 0x1F PUSH1 0x24 DUP3 ADD MSTORE PUSH32 0x4F6E6C7920565246436F6F7264696E61746F722063616E2066756C66696C6C00 PUSH1 0x44 DUP3 ADD MSTORE PUSH1 0x64 ADD PUSH2 0x7D9 JUMP JUMPDEST PUSH2 0x96F DUP3 DUP3 PUSH2 0x1B3E JUMP JUMPDEST PUSH1 0x60 PUSH1 0x2 DUP1 SLOAD PUSH2 0x6E1 SWAP1 PUSH2 0x25D9 JUMP JUMPDEST PUSH1 0x13 DUP2 DUP2 SLOAD DUP2 LT PUSH2 0x11CE JUMPI PUSH1 0x0 DUP1 REVERT JUMPDEST PUSH1 0x0 SWAP2 DUP3 MSTORE PUSH1 0x20 SWAP1 SWAP2 KECCAK256 ADD SLOAD SWAP1 POP DUP2 JUMP JUMPDEST PUSH1 0x1 PUSH1 0x1 PUSH1 0xA0 SHL SUB DUP3 AND CALLER EQ ISZERO PUSH2 0x1238 JUMPI PUSH1 0x40 MLOAD PUSH3 0x461BCD PUSH1 0xE5 SHL DUP2 MSTORE PUSH1 0x20 PUSH1 0x4 DUP3 ADD MSTORE PUSH1 0x19 PUSH1 0x24 DUP3 ADD MSTORE PUSH32 0x4552433732313A20617070726F766520746F2063616C6C657200000000000000 PUSH1 0x44 DUP3 ADD MSTORE PUSH1 0x64 ADD PUSH2 0x7D9 JUMP JUMPDEST CALLER PUSH1 0x0 DUP2 DUP2 MSTORE PUSH1 0x6 PUSH1 0x20 SWAP1 DUP2 MSTORE PUSH1 0x40 DUP1 DUP4 KECCAK256 PUSH1 0x1 PUSH1 0x1 PUSH1 0xA0 SHL SUB DUP8 AND DUP1 DUP6 MSTORE SWAP3 MSTORE SWAP1 SWAP2 KECCAK256 DUP1 SLOAD PUSH1 0xFF NOT AND DUP5 ISZERO ISZERO OR SWAP1 SSTORE SWAP1 PUSH1 0x1 PUSH1 0x1 PUSH1 0xA0 SHL SUB AND PUSH32 0x17307EAB39AB6107E8899845AD3D59BD9653F200F220920489CA2B5937696C31 DUP4 PUSH1 0x40 MLOAD PUSH2 0x12A5 SWAP2 ISZERO ISZERO DUP2 MSTORE PUSH1 0x20 ADD SWAP1 JUMP JUMPDEST PUSH1 0x40 MLOAD DUP1 SWAP2 SUB SWAP1 LOG3 POP POP JUMP JUMPDEST PUSH2 0x12BA CALLER PUSH2 0x943 JUMP JUMPDEST PUSH2 0x12D6 JUMPI PUSH1 0x40 MLOAD PUSH3 0x461BCD PUSH1 0xE5 SHL DUP2 MSTORE PUSH1 0x4 ADD PUSH2 0x7D9 SWAP1 PUSH2 0x2519 JUMP JUMPDEST PUSH2 0x12E2 DUP5 DUP5 DUP5 DUP5 PUSH2 0x1B92 JUMP JUMPDEST POP POP POP POP JUMP JUMPDEST PUSH1 0x0 SLOAD PUSH1 0x1 PUSH1 0x1 PUSH1 0xA0 SHL SUB AND CALLER EQ PUSH2 0x1312 JUMPI PUSH1 0x40 MLOAD PUSH3 0x461BCD PUSH1 0xE5 SHL DUP2 MSTORE PUSH1 0x4 ADD PUSH2 0x7D9 SWAP1 PUSH2 0x24E4 JUMP JUMPDEST PUSH1 0x14 DUP1 SLOAD PUSH1 0x1 PUSH1 0x1 PUSH1 0xA0 SHL SUB NOT AND PUSH1 0x1 PUSH1 0x1 PUSH1 0xA0 SHL SUB SWAP3 SWAP1 SWAP3 AND SWAP2 SWAP1 SWAP2 OR SWAP1 SSTORE JUMP JUMPDEST PUSH1 0x0 DUP2 DUP2 MSTORE PUSH1 0x3 PUSH1 0x20 MSTORE PUSH1 0x40 SWAP1 KECCAK256 SLOAD PUSH1 0x60 SWAP1 PUSH1 0x1 PUSH1 0x1 PUSH1 0xA0 SHL SUB AND PUSH2 0x13B3 JUMPI PUSH1 0x40 MLOAD PUSH3 0x461BCD PUSH1 0xE5 SHL DUP2 MSTORE PUSH1 0x20 PUSH1 0x4 DUP3 ADD MSTORE PUSH1 0x2F PUSH1 0x24 DUP3 ADD MSTORE PUSH32 0x4552433732314D657461646174613A2055524920717565727920666F72206E6F PUSH1 0x44 DUP3 ADD MSTORE PUSH15 0x3732BC34B9BA32B73A103A37B5B2B7 PUSH1 0x89 SHL PUSH1 0x64 DUP3 ADD MSTORE PUSH1 0x84 ADD PUSH2 0x7D9 JUMP JUMPDEST PUSH1 0x0 PUSH2 0x13BD PUSH2 0x1BC5 JUMP JUMPDEST SWAP1 POP PUSH1 0x0 DUP2 MLOAD GT PUSH2 0x13DD JUMPI PUSH1 0x40 MLOAD DUP1 PUSH1 0x20 ADD PUSH1 0x40 MSTORE DUP1 PUSH1 0x0 DUP2 MSTORE POP PUSH2 0x1408 JUMP JUMPDEST DUP1 PUSH2 0x13E7 DUP5 PUSH2 0x1BD4 JUMP JUMPDEST PUSH1 0x40 MLOAD PUSH1 0x20 ADD PUSH2 0x13F8 SWAP3 SWAP2 SWAP1 PUSH2 0x23C8 JUMP JUMPDEST PUSH1 0x40 MLOAD PUSH1 0x20 DUP2 DUP4 SUB SUB DUP2 MSTORE SWAP1 PUSH1 0x40 MSTORE JUMPDEST SWAP4 SWAP3 POP POP POP JUMP JUMPDEST PUSH1 0x0 SLOAD PUSH1 0x1 PUSH1 0x1 PUSH1 0xA0 SHL SUB AND CALLER EQ PUSH2 0x1439 JUMPI PUSH1 0x40 MLOAD PUSH3 0x461BCD PUSH1 0xE5 SHL DUP2 MSTORE PUSH1 0x4 ADD PUSH2 0x7D9 SWAP1 PUSH2 0x24E4 JUMP JUMPDEST PUSH1 0x1 PUSH1 0x1 PUSH1 0xA0 SHL SUB DUP2 AND PUSH2 0x149E JUMPI PUSH1 0x40 MLOAD PUSH3 0x461BCD PUSH1 0xE5 SHL DUP2 MSTORE PUSH1 0x20 PUSH1 0x4 DUP3 ADD MSTORE PUSH1 0x26 PUSH1 0x24 DUP3 ADD MSTORE PUSH32 0x4F776E61626C653A206E6577206F776E657220697320746865207A65726F2061 PUSH1 0x44 DUP3 ADD MSTORE PUSH6 0x646472657373 PUSH1 0xD0 SHL PUSH1 0x64 DUP3 ADD MSTORE PUSH1 0x84 ADD PUSH2 0x7D9 JUMP JUMPDEST PUSH2 0x112A DUP2 PUSH2 0x1AEE JUMP JUMPDEST PUSH1 0x0 SLOAD PUSH1 0x1 PUSH1 0x1 PUSH1 0xA0 SHL SUB AND CALLER EQ PUSH2 0x14D1 JUMPI PUSH1 0x40 MLOAD PUSH3 0x461BCD PUSH1 0xE5 SHL DUP2 MSTORE PUSH1 0x4 ADD PUSH2 0x7D9 SWAP1 PUSH2 0x24E4 JUMP JUMPDEST PUSH1 0x12 SSTORE JUMP JUMPDEST PUSH1 0x0 DUP2 DUP2 MSTORE PUSH1 0x5 PUSH1 0x20 MSTORE PUSH1 0x40 SWAP1 KECCAK256 DUP1 SLOAD PUSH1 0x1 PUSH1 0x1 PUSH1 0xA0 SHL SUB NOT AND PUSH1 0x1 PUSH1 0x1 PUSH1 0xA0 SHL SUB DUP5 AND SWAP1 DUP2 OR SWAP1 SWAP2 SSTORE DUP2 SWAP1 PUSH2 0x150B DUP3 PUSH2 0xC43 JUMP JUMPDEST PUSH1 0x1 PUSH1 0x1 PUSH1 0xA0 SHL SUB AND PUSH32 0x8C5BE1E5EBEC7D5BD14F71427D1E84F3DD0314C0F7B2291E5B200AC8C7C3B925 PUSH1 0x40 MLOAD PUSH1 0x40 MLOAD DUP1 SWAP2 SUB SWAP1 LOG4 POP POP JUMP JUMPDEST PUSH1 0x0 DUP2 DUP2 MSTORE PUSH1 0x3 PUSH1 0x20 MSTORE PUSH1 0x40 DUP2 KECCAK256 SLOAD PUSH1 0x1 PUSH1 0x1 PUSH1 0xA0 SHL SUB AND PUSH2 0x15BD JUMPI PUSH1 0x40 MLOAD PUSH3 0x461BCD PUSH1 0xE5 SHL DUP2 MSTORE PUSH1 0x20 PUSH1 0x4 DUP3 ADD MSTORE PUSH1 0x2C PUSH1 0x24 DUP3 ADD MSTORE PUSH32 0x4552433732313A206F70657261746F7220717565727920666F72206E6F6E6578 PUSH1 0x44 DUP3 ADD MSTORE PUSH12 0x34B9BA32B73A103A37B5B2B7 PUSH1 0xA1 SHL PUSH1 0x64 DUP3 ADD MSTORE PUSH1 0x84 ADD PUSH2 0x7D9 JUMP JUMPDEST PUSH1 0x0 PUSH2 0x15C8 DUP4 PUSH2 0xC43 JUMP JUMPDEST SWAP1 POP DUP1 PUSH1 0x1 PUSH1 0x1 PUSH1 0xA0 SHL SUB AND DUP5 PUSH1 0x1 PUSH1 0x1 PUSH1 0xA0 SHL SUB AND EQ DUP1 PUSH2 0x1603 JUMPI POP DUP4 PUSH1 0x1 PUSH1 0x1 PUSH1 0xA0 SHL SUB AND PUSH2 0x15F8 DUP5 PUSH2 0x764 JUMP JUMPDEST PUSH1 0x1 PUSH1 0x1 PUSH1 0xA0 SHL SUB AND EQ JUMPDEST DUP1 PUSH2 0x1633 JUMPI POP PUSH1 0x1 PUSH1 0x1 PUSH1 0xA0 SHL SUB DUP1 DUP3 AND PUSH1 0x0 SWAP1 DUP2 MSTORE PUSH1 0x6 PUSH1 0x20 SWAP1 DUP2 MSTORE PUSH1 0x40 DUP1 DUP4 KECCAK256 SWAP4 DUP9 AND DUP4 MSTORE SWAP3 SWAP1 MSTORE KECCAK256 SLOAD PUSH1 0xFF AND JUMPDEST SWAP5 SWAP4 POP POP POP POP JUMP JUMPDEST PUSH1 0x0 DUP3 DUP2 MSTORE PUSH1 0x3 PUSH1 0x20 MSTORE PUSH1 0x40 SWAP1 KECCAK256 SLOAD PUSH1 0x1 PUSH1 0x1 PUSH1 0xA0 SHL SUB AND PUSH2 0x16B6 JUMPI PUSH1 0x40 MLOAD PUSH3 0x461BCD PUSH1 0xE5 SHL DUP2 MSTORE PUSH1 0x20 PUSH1 0x4 DUP3 ADD MSTORE PUSH1 0x2E PUSH1 0x24 DUP3 ADD MSTORE PUSH32 0x45524337323155524953746F726167653A2055524920736574206F66206E6F6E PUSH1 0x44 DUP3 ADD MSTORE PUSH14 0x32BC34B9BA32B73A103A37B5B2B7 PUSH1 0x91 SHL PUSH1 0x64 DUP3 ADD MSTORE PUSH1 0x84 ADD PUSH2 0x7D9 JUMP JUMPDEST PUSH1 0x0 DUP3 DUP2 MSTORE PUSH1 0x7 PUSH1 0x20 SWAP1 DUP2 MSTORE PUSH1 0x40 SWAP1 SWAP2 KECCAK256 DUP3 MLOAD PUSH2 0x90F SWAP3 DUP5 ADD SWAP1 PUSH2 0x1F6E JUMP JUMPDEST DUP3 PUSH1 0x1 PUSH1 0x1 PUSH1 0xA0 SHL SUB AND PUSH2 0x16E8 DUP3 PUSH2 0xC43 JUMP JUMPDEST PUSH1 0x1 PUSH1 0x1 PUSH1 0xA0 SHL SUB AND EQ PUSH2 0x1750 JUMPI PUSH1 0x40 MLOAD PUSH3 0x461BCD PUSH1 0xE5 SHL DUP2 MSTORE PUSH1 0x20 PUSH1 0x4 DUP3 ADD MSTORE PUSH1 0x29 PUSH1 0x24 DUP3 ADD MSTORE PUSH32 0x4552433732313A207472616E73666572206F6620746F6B656E20746861742069 PUSH1 0x44 DUP3 ADD MSTORE PUSH9 0x39903737BA1037BBB7 PUSH1 0xB9 SHL PUSH1 0x64 DUP3 ADD MSTORE PUSH1 0x84 ADD PUSH2 0x7D9 JUMP JUMPDEST PUSH1 0x1 PUSH1 0x1 PUSH1 0xA0 SHL SUB DUP3 AND PUSH2 0x17B2 JUMPI PUSH1 0x40 MLOAD PUSH3 0x461BCD PUSH1 0xE5 SHL DUP2 MSTORE PUSH1 0x20 PUSH1 0x4 DUP3 ADD MSTORE PUSH1 0x24 DUP1 DUP3 ADD MSTORE PUSH32 0x4552433732313A207472616E7366657220746F20746865207A65726F20616464 PUSH1 0x44 DUP3 ADD MSTORE PUSH4 0x72657373 PUSH1 0xE0 SHL PUSH1 0x64 DUP3 ADD MSTORE PUSH1 0x84 ADD PUSH2 0x7D9 JUMP JUMPDEST PUSH2 0x17BD PUSH1 0x0 DUP3 PUSH2 0x14D6 JUMP JUMPDEST PUSH1 0x1 PUSH1 0x1 PUSH1 0xA0 SHL SUB DUP4 AND PUSH1 0x0 SWAP1 DUP2 MSTORE PUSH1 0x4 PUSH1 0x20 MSTORE PUSH1 0x40 DUP2 KECCAK256 DUP1 SLOAD PUSH1 0x1 SWAP3 SWAP1 PUSH2 0x17E6 SWAP1 DUP5 SWAP1 PUSH2 0x2596 JUMP JUMPDEST SWAP1 SWAP2 SSTORE POP POP PUSH1 0x1 PUSH1 0x1 PUSH1 0xA0 SHL SUB DUP3 AND PUSH1 0x0 SWAP1 DUP2 MSTORE PUSH1 0x4 PUSH1 0x20 MSTORE PUSH1 0x40 DUP2 KECCAK256 DUP1 SLOAD PUSH1 0x1 SWAP3 SWAP1 PUSH2 0x1814 SWAP1 DUP5 SWAP1 PUSH2 0x256A JUMP JUMPDEST SWAP1 SWAP2 SSTORE POP POP PUSH1 0x0 DUP2 DUP2 MSTORE PUSH1 0x3 PUSH1 0x20 MSTORE PUSH1 0x40 DUP1 DUP3 KECCAK256 DUP1 SLOAD PUSH1 0x1 PUSH1 0x1 PUSH1 0xA0 SHL SUB NOT AND PUSH1 0x1 PUSH1 0x1 PUSH1 0xA0 SHL SUB DUP7 DUP2 AND SWAP2 DUP3 OR SWAP1 SWAP3 SSTORE SWAP2 MLOAD DUP5 SWAP4 SWAP2 DUP8 AND SWAP2 PUSH32 0xDDF252AD1BE2C89B69C2B068FC378DAA952BA7F163C4A11628F55A4DF523B3EF SWAP2 LOG4 POP POP POP JUMP JUMPDEST PUSH1 0x13 SLOAD DUP2 LT PUSH2 0x1883 JUMPI PUSH2 0x112A JUMP JUMPDEST DUP1 JUMPDEST PUSH1 0x13 SLOAD PUSH2 0x1894 SWAP1 PUSH1 0x1 SWAP1 PUSH2 0x2596 JUMP JUMPDEST DUP2 LT ISZERO PUSH2 0x1910 JUMPI PUSH1 0x13 PUSH2 0x18A8 DUP3 PUSH1 0x1 PUSH2 0x256A JUMP JUMPDEST DUP2 SLOAD DUP2 LT PUSH2 0x18C6 JUMPI PUSH4 0x4E487B71 PUSH1 0xE0 SHL PUSH1 0x0 MSTORE PUSH1 0x32 PUSH1 0x4 MSTORE PUSH1 0x24 PUSH1 0x0 REVERT JUMPDEST SWAP1 PUSH1 0x0 MSTORE PUSH1 0x20 PUSH1 0x0 KECCAK256 ADD SLOAD PUSH1 0x13 DUP3 DUP2 SLOAD DUP2 LT PUSH2 0x18F2 JUMPI PUSH4 0x4E487B71 PUSH1 0xE0 SHL PUSH1 0x0 MSTORE PUSH1 0x32 PUSH1 0x4 MSTORE PUSH1 0x24 PUSH1 0x0 REVERT JUMPDEST PUSH1 0x0 SWAP2 DUP3 MSTORE PUSH1 0x20 SWAP1 SWAP2 KECCAK256 ADD SSTORE DUP1 PUSH2 0x1908 DUP2 PUSH2 0x2614 JUMP JUMPDEST SWAP2 POP POP PUSH2 0x1885 JUMP JUMPDEST POP PUSH1 0x13 DUP1 SLOAD DUP1 PUSH2 0x1930 JUMPI PUSH4 0x4E487B71 PUSH1 0xE0 SHL PUSH1 0x0 MSTORE PUSH1 0x31 PUSH1 0x4 MSTORE PUSH1 0x24 PUSH1 0x0 REVERT JUMPDEST PUSH1 0x1 SWAP1 SUB DUP2 DUP2 SWAP1 PUSH1 0x0 MSTORE PUSH1 0x20 PUSH1 0x0 KECCAK256 ADD PUSH1 0x0 SWAP1 SSTORE SWAP1 SSTORE POP JUMP JUMPDEST PUSH2 0x96F DUP3 DUP3 PUSH1 0x40 MLOAD DUP1 PUSH1 0x20 ADD PUSH1 0x40 MSTORE DUP1 PUSH1 0x0 DUP2 MSTORE POP PUSH2 0x1CEF JUMP JUMPDEST PUSH1 0x0 PUSH32 0x0 PUSH1 0x1 PUSH1 0x1 PUSH1 0xA0 SHL SUB AND PUSH4 0x4000AEA0 PUSH32 0x0 DUP5 DUP7 PUSH1 0x0 PUSH1 0x40 MLOAD PUSH1 0x20 ADD PUSH2 0x19D3 SWAP3 SWAP2 SWAP1 SWAP2 DUP3 MSTORE PUSH1 0x20 DUP3 ADD MSTORE PUSH1 0x40 ADD SWAP1 JUMP JUMPDEST PUSH1 0x40 MLOAD PUSH1 0x20 DUP2 DUP4 SUB SUB DUP2 MSTORE SWAP1 PUSH1 0x40 MSTORE PUSH1 0x40 MLOAD DUP5 PUSH4 0xFFFFFFFF AND PUSH1 0xE0 SHL DUP2 MSTORE PUSH1 0x4 ADD PUSH2 0x1A00 SWAP4 SWAP3 SWAP2 SWAP1 PUSH2 0x2434 JUMP JUMPDEST PUSH1 0x20 PUSH1 0x40 MLOAD DUP1 DUP4 SUB DUP2 PUSH1 0x0 DUP8 DUP1 EXTCODESIZE ISZERO DUP1 ISZERO PUSH2 0x1A1A JUMPI PUSH1 0x0 DUP1 REVERT JUMPDEST POP GAS CALL ISZERO DUP1 ISZERO PUSH2 0x1A2E JUMPI RETURNDATASIZE PUSH1 0x0 DUP1 RETURNDATACOPY RETURNDATASIZE PUSH1 0x0 REVERT JUMPDEST POP POP POP POP PUSH1 0x40 MLOAD RETURNDATASIZE PUSH1 0x1F NOT PUSH1 0x1F DUP3 ADD AND DUP3 ADD DUP1 PUSH1 0x40 MSTORE POP DUP2 ADD SWAP1 PUSH2 0x1A52 SWAP2 SWAP1 PUSH2 0x2212 JUMP JUMPDEST POP PUSH1 0x0 DUP4 DUP2 MSTORE PUSH1 0x8 PUSH1 0x20 DUP2 DUP2 MSTORE PUSH1 0x40 DUP1 DUP5 KECCAK256 SLOAD DUP2 MLOAD DUP1 DUP5 ADD DUP10 SWAP1 MSTORE DUP1 DUP4 ADD DUP7 SWAP1 MSTORE ADDRESS PUSH1 0x60 DUP3 ADD MSTORE PUSH1 0x80 DUP1 DUP3 ADD DUP4 SWAP1 MSTORE DUP4 MLOAD DUP1 DUP4 SUB SWAP1 SWAP2 ADD DUP2 MSTORE PUSH1 0xA0 SWAP1 SWAP2 ADD SWAP1 SWAP3 MSTORE DUP2 MLOAD SWAP2 DUP4 ADD SWAP2 SWAP1 SWAP2 KECCAK256 SWAP4 DUP8 SWAP1 MSTORE SWAP2 SWAP1 MSTORE PUSH2 0x1AAE SWAP1 PUSH1 0x1 PUSH2 0x256A JUMP JUMPDEST PUSH1 0x0 DUP6 DUP2 MSTORE PUSH1 0x8 PUSH1 0x20 MSTORE PUSH1 0x40 SWAP1 KECCAK256 SSTORE PUSH2 0x1633 DUP5 DUP3 PUSH1 0x40 DUP1 MLOAD PUSH1 0x20 DUP1 DUP3 ADD SWAP5 SWAP1 SWAP5 MSTORE DUP1 DUP3 ADD SWAP3 SWAP1 SWAP3 MSTORE DUP1 MLOAD DUP1 DUP4 SUB DUP3 ADD DUP2 MSTORE PUSH1 0x60 SWAP1 SWAP3 ADD SWAP1 MSTORE DUP1 MLOAD SWAP2 ADD KECCAK256 SWAP1 JUMP JUMPDEST PUSH1 0x0 DUP1 SLOAD PUSH1 0x1 PUSH1 0x1 PUSH1 0xA0 SHL SUB DUP4 DUP2 AND PUSH1 0x1 PUSH1 0x1 PUSH1 0xA0 SHL SUB NOT DUP4 AND DUP2 OR DUP5 SSTORE PUSH1 0x40 MLOAD SWAP2 SWAP1 SWAP3 AND SWAP3 DUP4 SWAP2 PUSH32 0x8BE0079C531659141344CD1FD0A4F28419497F9722A3DAAFE3B4186F6B6457E0 SWAP2 SWAP1 LOG3 POP POP JUMP JUMPDEST PUSH1 0xE DUP2 SWAP1 SSTORE PUSH1 0x0 DUP3 DUP2 MSTORE PUSH1 0xF PUSH1 0x20 SWAP1 DUP2 MSTORE PUSH1 0x40 DUP1 DUP4 KECCAK256 SLOAD DUP1 DUP5 MSTORE PUSH1 0x10 SWAP1 SWAP3 MSTORE DUP1 DUP4 KECCAK256 DUP5 SWAP1 SSTORE MLOAD SWAP1 SWAP2 DUP4 SWAP2 DUP4 SWAP2 PUSH32 0xB98A68A35EEDE7A0353068C023CF5E57077CBE7099F89806090ABA0302ADE346 SWAP2 LOG3 POP POP POP JUMP JUMPDEST PUSH2 0x1B9D DUP5 DUP5 DUP5 PUSH2 0x16D5 JUMP JUMPDEST PUSH2 0x1BA9 DUP5 DUP5 DUP5 DUP5 PUSH2 0x1D22 JUMP JUMPDEST PUSH2 0x12E2 JUMPI PUSH1 0x40 MLOAD PUSH3 0x461BCD PUSH1 0xE5 SHL DUP2 MSTORE PUSH1 0x4 ADD PUSH2 0x7D9 SWAP1 PUSH2 0x2492 JUMP JUMPDEST PUSH1 0x60 PUSH1 0xB DUP1 SLOAD PUSH2 0x6E1 SWAP1 PUSH2 0x25D9 JUMP JUMPDEST PUSH1 0x60 DUP2 PUSH2 0x1BF9 JUMPI POP PUSH1 0x40 DUP1 MLOAD DUP1 DUP3 ADD SWAP1 SWAP2 MSTORE PUSH1 0x1 DUP2 MSTORE PUSH1 0x3 PUSH1 0xFC SHL PUSH1 0x20 DUP3 ADD MSTORE PUSH2 0x6CD JUMP JUMPDEST DUP2 PUSH1 0x0 JUMPDEST DUP2 ISZERO PUSH2 0x1C23 JUMPI DUP1 PUSH2 0x1C0D DUP2 PUSH2 0x2614 JUMP JUMPDEST SWAP2 POP PUSH2 0x1C1C SWAP1 POP PUSH1 0xA DUP4 PUSH2 0x2582 JUMP JUMPDEST SWAP2 POP PUSH2 0x1BFD JUMP JUMPDEST PUSH1 0x0 DUP2 PUSH8 0xFFFFFFFFFFFFFFFF DUP2 GT ISZERO PUSH2 0x1C4C JUMPI PUSH4 0x4E487B71 PUSH1 0xE0 SHL PUSH1 0x0 MSTORE PUSH1 0x41 PUSH1 0x4 MSTORE PUSH1 0x24 PUSH1 0x0 REVERT JUMPDEST PUSH1 0x40 MLOAD SWAP1 DUP1 DUP3 MSTORE DUP1 PUSH1 0x1F ADD PUSH1 0x1F NOT AND PUSH1 0x20 ADD DUP3 ADD PUSH1 0x40 MSTORE DUP1 ISZERO PUSH2 0x1C76 JUMPI PUSH1 0x20 DUP3 ADD DUP2 DUP1 CALLDATASIZE DUP4 CALLDATACOPY ADD SWAP1 POP JUMPDEST POP SWAP1 POP JUMPDEST DUP5 ISZERO PUSH2 0x1633 JUMPI PUSH2 0x1C8B PUSH1 0x1 DUP4 PUSH2 0x2596 JUMP JUMPDEST SWAP2 POP PUSH2 0x1C98 PUSH1 0xA DUP7 PUSH2 0x262F JUMP JUMPDEST PUSH2 0x1CA3 SWAP1 PUSH1 0x30 PUSH2 0x256A JUMP JUMPDEST PUSH1 0xF8 SHL DUP2 DUP4 DUP2 MLOAD DUP2 LT PUSH2 0x1CC6 JUMPI PUSH4 0x4E487B71 PUSH1 0xE0 SHL PUSH1 0x0 MSTORE PUSH1 0x32 PUSH1 0x4 MSTORE PUSH1 0x24 PUSH1 0x0 REVERT JUMPDEST PUSH1 0x20 ADD ADD SWAP1 PUSH1 0x1 PUSH1 0x1 PUSH1 0xF8 SHL SUB NOT AND SWAP1 DUP2 PUSH1 0x0 BYTE SWAP1 MSTORE8 POP PUSH2 0x1CE8 PUSH1 0xA DUP7 PUSH2 0x2582 JUMP JUMPDEST SWAP5 POP PUSH2 0x1C7A JUMP JUMPDEST PUSH2 0x1CF9 DUP4 DUP4 PUSH2 0x1E2C JUMP JUMPDEST PUSH2 0x1D06 PUSH1 0x0 DUP5 DUP5 DUP5 PUSH2 0x1D22 JUMP JUMPDEST PUSH2 0x90F JUMPI PUSH1 0x40 MLOAD PUSH3 0x461BCD PUSH1 0xE5 SHL DUP2 MSTORE PUSH1 0x4 ADD PUSH2 0x7D9 SWAP1 PUSH2 0x2492 JUMP JUMPDEST PUSH1 0x0 PUSH1 0x1 PUSH1 0x1 PUSH1 0xA0 SHL SUB DUP5 AND EXTCODESIZE ISZERO PUSH2 0x1E24 JUMPI PUSH1 0x40 MLOAD PUSH4 0xA85BD01 PUSH1 0xE1 SHL DUP2 MSTORE PUSH1 0x1 PUSH1 0x1 PUSH1 0xA0 SHL SUB DUP6 AND SWAP1 PUSH4 0x150B7A02 SWAP1 PUSH2 0x1D66 SWAP1 CALLER SWAP1 DUP10 SWAP1 DUP9 SWAP1 DUP9 SWAP1 PUSH1 0x4 ADD PUSH2 0x23F7 JUMP JUMPDEST PUSH1 0x20 PUSH1 0x40 MLOAD DUP1 DUP4 SUB DUP2 PUSH1 0x0 DUP8 DUP1 EXTCODESIZE ISZERO DUP1 ISZERO PUSH2 0x1D80 JUMPI PUSH1 0x0 DUP1 REVERT JUMPDEST POP GAS CALL SWAP3 POP POP POP DUP1 ISZERO PUSH2 0x1DB0 JUMPI POP PUSH1 0x40 DUP1 MLOAD PUSH1 0x1F RETURNDATASIZE SWAP1 DUP2 ADD PUSH1 0x1F NOT AND DUP3 ADD SWAP1 SWAP3 MSTORE PUSH2 0x1DAD SWAP2 DUP2 ADD SWAP1 PUSH2 0x226B JUMP JUMPDEST PUSH1 0x1 JUMPDEST PUSH2 0x1E0A JUMPI RETURNDATASIZE DUP1 DUP1 ISZERO PUSH2 0x1DDE JUMPI PUSH1 0x40 MLOAD SWAP2 POP PUSH1 0x1F NOT PUSH1 0x3F RETURNDATASIZE ADD AND DUP3 ADD PUSH1 0x40 MSTORE RETURNDATASIZE DUP3 MSTORE RETURNDATASIZE PUSH1 0x0 PUSH1 0x20 DUP5 ADD RETURNDATACOPY PUSH2 0x1DE3 JUMP JUMPDEST PUSH1 0x60 SWAP2 POP JUMPDEST POP DUP1 MLOAD PUSH2 0x1E02 JUMPI PUSH1 0x40 MLOAD PUSH3 0x461BCD PUSH1 0xE5 SHL DUP2 MSTORE PUSH1 0x4 ADD PUSH2 0x7D9 SWAP1 PUSH2 0x2492 JUMP JUMPDEST DUP1 MLOAD DUP2 PUSH1 0x20 ADD REVERT JUMPDEST PUSH1 0x1 PUSH1 0x1 PUSH1 0xE0 SHL SUB NOT AND PUSH4 0xA85BD01 PUSH1 0xE1 SHL EQ SWAP1 POP PUSH2 0x1633 JUMP JUMPDEST POP PUSH1 0x1 PUSH2 0x1633 JUMP JUMPDEST PUSH1 0x1 PUSH1 0x1 PUSH1 0xA0 SHL SUB DUP3 AND PUSH2 0x1E82 JUMPI PUSH1 0x40 MLOAD PUSH3 0x461BCD PUSH1 0xE5 SHL DUP2 MSTORE PUSH1 0x20 PUSH1 0x4 DUP3 ADD DUP2 SWAP1 MSTORE PUSH1 0x24 DUP3 ADD MSTORE PUSH32 0x4552433732313A206D696E7420746F20746865207A65726F2061646472657373 PUSH1 0x44 DUP3 ADD MSTORE PUSH1 0x64 ADD PUSH2 0x7D9 JUMP JUMPDEST PUSH1 0x0 DUP2 DUP2 MSTORE PUSH1 0x3 PUSH1 0x20 MSTORE PUSH1 0x40 SWAP1 KECCAK256 SLOAD PUSH1 0x1 PUSH1 0x1 PUSH1 0xA0 SHL SUB AND ISZERO PUSH2 0x1EE7 JUMPI PUSH1 0x40 MLOAD PUSH3 0x461BCD PUSH1 0xE5 SHL DUP2 MSTORE PUSH1 0x20 PUSH1 0x4 DUP3 ADD MSTORE PUSH1 0x1C PUSH1 0x24 DUP3 ADD MSTORE PUSH32 0x4552433732313A20746F6B656E20616C7265616479206D696E74656400000000 PUSH1 0x44 DUP3 ADD MSTORE PUSH1 0x64 ADD PUSH2 0x7D9 JUMP JUMPDEST PUSH1 0x1 PUSH1 0x1 PUSH1 0xA0 SHL SUB DUP3 AND PUSH1 0x0 SWAP1 DUP2 MSTORE PUSH1 0x4 PUSH1 0x20 MSTORE PUSH1 0x40 DUP2 KECCAK256 DUP1 SLOAD PUSH1 0x1 SWAP3 SWAP1 PUSH2 0x1F10 SWAP1 DUP5 SWAP1 PUSH2 0x256A JUMP JUMPDEST SWAP1 SWAP2 SSTORE POP POP PUSH1 0x0 DUP2 DUP2 MSTORE PUSH1 0x3 PUSH1 0x20 MSTORE PUSH1 0x40 DUP1 DUP3 KECCAK256 DUP1 SLOAD PUSH1 0x1 PUSH1 0x1 PUSH1 0xA0 SHL SUB NOT AND PUSH1 0x1 PUSH1 0x1 PUSH1 0xA0 SHL SUB DUP7 AND SWAP1 DUP2 OR SWAP1 SWAP2 SSTORE SWAP1 MLOAD DUP4 SWAP3 SWAP1 PUSH32 0xDDF252AD1BE2C89B69C2B068FC378DAA952BA7F163C4A11628F55A4DF523B3EF SWAP1 DUP3 SWAP1 LOG4 POP POP JUMP JUMPDEST DUP3 DUP1 SLOAD PUSH2 0x1F7A SWAP1 PUSH2 0x25D9 JUMP JUMPDEST SWAP1 PUSH1 0x0 MSTORE PUSH1 0x20 PUSH1 0x0 KECCAK256 SWAP1 PUSH1 0x1F ADD PUSH1 0x20 SWAP1 DIV DUP2 ADD SWAP3 DUP3 PUSH2 0x1F9C JUMPI PUSH1 0x0 DUP6 SSTORE PUSH2 0x1FE2 JUMP JUMPDEST DUP3 PUSH1 0x1F LT PUSH2 0x1FB5 JUMPI DUP1 MLOAD PUSH1 0xFF NOT AND DUP4 DUP1 ADD OR DUP6 SSTORE PUSH2 0x1FE2 JUMP JUMPDEST DUP3 DUP1 ADD PUSH1 0x1 ADD DUP6 SSTORE DUP3 ISZERO PUSH2 0x1FE2 JUMPI SWAP2 DUP3 ADD JUMPDEST DUP3 DUP2 GT ISZERO PUSH2 0x1FE2 JUMPI DUP3 MLOAD DUP3 SSTORE SWAP2 PUSH1 0x20 ADD SWAP2 SWAP1 PUSH1 0x1 ADD SWAP1 PUSH2 0x1FC7 JUMP JUMPDEST POP PUSH2 0x1FEE SWAP3 SWAP2 POP PUSH2 0x1FF2 JUMP JUMPDEST POP SWAP1 JUMP JUMPDEST JUMPDEST DUP1 DUP3 GT ISZERO PUSH2 0x1FEE JUMPI PUSH1 0x0 DUP2 SSTORE PUSH1 0x1 ADD PUSH2 0x1FF3 JUMP JUMPDEST PUSH1 0x0 PUSH8 0xFFFFFFFFFFFFFFFF DUP1 DUP5 GT ISZERO PUSH2 0x2022 JUMPI PUSH2 0x2022 PUSH2 0x266F JUMP JUMPDEST PUSH1 0x40 MLOAD PUSH1 0x1F DUP6 ADD PUSH1 0x1F NOT SWAP1 DUP2 AND PUSH1 0x3F ADD AND DUP2 ADD SWAP1 DUP3 DUP3 GT DUP2 DUP4 LT OR ISZERO PUSH2 0x204A JUMPI PUSH2 0x204A PUSH2 0x266F JUMP JUMPDEST DUP2 PUSH1 0x40 MSTORE DUP1 SWAP4 POP DUP6 DUP2 MSTORE DUP7 DUP7 DUP7 ADD GT ISZERO PUSH2 0x2063 JUMPI PUSH1 0x0 DUP1 REVERT JUMPDEST DUP6 DUP6 PUSH1 0x20 DUP4 ADD CALLDATACOPY PUSH1 0x0 PUSH1 0x20 DUP8 DUP4 ADD ADD MSTORE POP POP POP SWAP4 SWAP3 POP POP POP JUMP JUMPDEST DUP1 CALLDATALOAD PUSH1 0x1 PUSH1 0x1 PUSH1 0xA0 SHL SUB DUP2 AND DUP2 EQ PUSH2 0x6CD JUMPI PUSH1 0x0 DUP1 REVERT JUMPDEST PUSH1 0x0 DUP3 PUSH1 0x1F DUP4 ADD SLT PUSH2 0x20A4 JUMPI DUP1 DUP2 REVERT JUMPDEST PUSH2 0x1408 DUP4 DUP4 CALLDATALOAD PUSH1 0x20 DUP6 ADD PUSH2 0x2007 JUMP JUMPDEST PUSH1 0x0 PUSH1 0x20 DUP3 DUP5 SUB SLT ISZERO PUSH2 0x20C4 JUMPI DUP1 DUP2 REVERT JUMPDEST PUSH2 0x1408 DUP3 PUSH2 0x207D JUMP JUMPDEST PUSH1 0x0 DUP1 PUSH1 0x40 DUP4 DUP6 SUB SLT ISZERO PUSH2 0x20DF JUMPI DUP1 DUP2 REVERT JUMPDEST PUSH2 0x20E8 DUP4 PUSH2 0x207D JUMP JUMPDEST SWAP2 POP PUSH2 0x20F6 PUSH1 0x20 DUP5 ADD PUSH2 0x207D JUMP JUMPDEST SWAP1 POP SWAP3 POP SWAP3 SWAP1 POP JUMP JUMPDEST PUSH1 0x0 DUP1 PUSH1 0x0 PUSH1 0x60 DUP5 DUP7 SUB SLT ISZERO PUSH2 0x2113 JUMPI DUP1 DUP2 REVERT JUMPDEST PUSH2 0x211C DUP5 PUSH2 0x207D JUMP JUMPDEST SWAP3 POP PUSH2 0x212A PUSH1 0x20 DUP6 ADD PUSH2 0x207D JUMP JUMPDEST SWAP2 POP PUSH1 0x40 DUP5 ADD CALLDATALOAD SWAP1 POP SWAP3 POP SWAP3 POP SWAP3 JUMP JUMPDEST PUSH1 0x0 DUP1 PUSH1 0x0 DUP1 PUSH1 0x80 DUP6 DUP8 SUB SLT ISZERO PUSH2 0x214F JUMPI DUP1 DUP2 REVERT JUMPDEST PUSH2 0x2158 DUP6 PUSH2 0x207D JUMP JUMPDEST SWAP4 POP PUSH2 0x2166 PUSH1 0x20 DUP7 ADD PUSH2 0x207D JUMP JUMPDEST SWAP3 POP PUSH1 0x40 DUP6 ADD CALLDATALOAD SWAP2 POP PUSH1 0x60 DUP6 ADD CALLDATALOAD PUSH8 0xFFFFFFFFFFFFFFFF DUP2 GT ISZERO PUSH2 0x2188 JUMPI DUP2 DUP3 REVERT JUMPDEST DUP6 ADD PUSH1 0x1F DUP2 ADD DUP8 SGT PUSH2 0x2198 JUMPI DUP2 DUP3 REVERT JUMPDEST PUSH2 0x21A7 DUP8 DUP3 CALLDATALOAD PUSH1 0x20 DUP5 ADD PUSH2 0x2007 JUMP JUMPDEST SWAP2 POP POP SWAP3 SWAP6 SWAP2 SWAP5 POP SWAP3 POP JUMP JUMPDEST PUSH1 0x0 DUP1 PUSH1 0x40 DUP4 DUP6 SUB SLT ISZERO PUSH2 0x21C5 JUMPI DUP2 DUP3 REVERT JUMPDEST PUSH2 0x21CE DUP4 PUSH2 0x207D JUMP JUMPDEST SWAP2 POP PUSH1 0x20 DUP4 ADD CALLDATALOAD PUSH2 0x21DE DUP2 PUSH2 0x2685 JUMP JUMPDEST DUP1 SWAP2 POP POP SWAP3 POP SWAP3 SWAP1 POP JUMP JUMPDEST PUSH1 0x0 DUP1 PUSH1 0x40 DUP4 DUP6 SUB SLT ISZERO PUSH2 0x21FB JUMPI DUP2 DUP3 REVERT JUMPDEST PUSH2 0x2204 DUP4 PUSH2 0x207D JUMP JUMPDEST SWAP5 PUSH1 0x20 SWAP4 SWAP1 SWAP4 ADD CALLDATALOAD SWAP4 POP POP POP JUMP JUMPDEST PUSH1 0x0 PUSH1 0x20 DUP3 DUP5 SUB SLT ISZERO PUSH2 0x2223 JUMPI DUP1 DUP2 REVERT JUMPDEST DUP2 MLOAD PUSH2 0x1408 DUP2 PUSH2 0x2685 JUMP JUMPDEST PUSH1 0x0 DUP1 PUSH1 0x40 DUP4 DUP6 SUB SLT ISZERO PUSH2 0x2240 JUMPI DUP2 DUP3 REVERT JUMPDEST POP POP DUP1 CALLDATALOAD SWAP3 PUSH1 0x20 SWAP1 SWAP2 ADD CALLDATALOAD SWAP2 POP JUMP JUMPDEST PUSH1 0x0 PUSH1 0x20 DUP3 DUP5 SUB SLT ISZERO PUSH2 0x2260 JUMPI DUP1 DUP2 REVERT JUMPDEST DUP2 CALLDATALOAD PUSH2 0x1408 DUP2 PUSH2 0x2693 JUMP JUMPDEST PUSH1 0x0 PUSH1 0x20 DUP3 DUP5 SUB SLT ISZERO PUSH2 0x227C JUMPI DUP1 DUP2 REVERT JUMPDEST DUP2 MLOAD PUSH2 0x1408 DUP2 PUSH2 0x2693 JUMP JUMPDEST PUSH1 0x0 DUP1 PUSH1 0x20 DUP4 DUP6 SUB SLT ISZERO PUSH2 0x2299 JUMPI DUP2 DUP3 REVERT JUMPDEST DUP3 CALLDATALOAD PUSH8 0xFFFFFFFFFFFFFFFF DUP1 DUP3 GT ISZERO PUSH2 0x22B0 JUMPI DUP4 DUP5 REVERT JUMPDEST DUP2 DUP6 ADD SWAP2 POP DUP6 PUSH1 0x1F DUP4 ADD SLT PUSH2 0x22C3 JUMPI DUP4 DUP5 REVERT JUMPDEST DUP2 CALLDATALOAD DUP2 DUP2 GT ISZERO PUSH2 0x22D1 JUMPI DUP5 DUP6 REVERT JUMPDEST DUP7 PUSH1 0x20 DUP3 DUP6 ADD ADD GT ISZERO PUSH2 0x22E2 JUMPI DUP5 DUP6 REVERT JUMPDEST PUSH1 0x20 SWAP3 SWAP1 SWAP3 ADD SWAP7 SWAP2 SWAP6 POP SWAP1 SWAP4 POP POP POP POP JUMP JUMPDEST PUSH1 0x0 PUSH1 0x20 DUP3 DUP5 SUB SLT ISZERO PUSH2 0x2305 JUMPI DUP1 DUP2 REVERT JUMPDEST DUP2 CALLDATALOAD PUSH8 0xFFFFFFFFFFFFFFFF DUP2 GT ISZERO PUSH2 0x231B JUMPI DUP2 DUP3 REVERT JUMPDEST PUSH2 0x1633 DUP5 DUP3 DUP6 ADD PUSH2 0x2094 JUMP JUMPDEST PUSH1 0x0 PUSH1 0x20 DUP3 DUP5 SUB SLT ISZERO PUSH2 0x2338 JUMPI DUP1 DUP2 REVERT JUMPDEST POP CALLDATALOAD SWAP2 SWAP1 POP JUMP JUMPDEST PUSH1 0x0 PUSH1 0x20 DUP3 DUP5 SUB SLT ISZERO PUSH2 0x2350 JUMPI DUP1 DUP2 REVERT JUMPDEST POP MLOAD SWAP2 SWAP1 POP JUMP JUMPDEST PUSH1 0x0 DUP1 PUSH1 0x40 DUP4 DUP6 SUB SLT ISZERO PUSH2 0x2369 JUMPI DUP2 DUP3 REVERT JUMPDEST DUP3 CALLDATALOAD SWAP2 POP PUSH1 0x20 DUP4 ADD CALLDATALOAD PUSH8 0xFFFFFFFFFFFFFFFF DUP2 GT ISZERO PUSH2 0x2386 JUMPI DUP2 DUP3 REVERT JUMPDEST PUSH2 0x2392 DUP6 DUP3 DUP7 ADD PUSH2 0x2094 JUMP JUMPDEST SWAP2 POP POP SWAP3 POP SWAP3 SWAP1 POP JUMP JUMPDEST PUSH1 0x0 DUP2 MLOAD DUP1 DUP5 MSTORE PUSH2 0x23B4 DUP2 PUSH1 0x20 DUP7 ADD PUSH1 0x20 DUP7 ADD PUSH2 0x25AD JUMP JUMPDEST PUSH1 0x1F ADD PUSH1 0x1F NOT AND SWAP3 SWAP1 SWAP3 ADD PUSH1 0x20 ADD SWAP3 SWAP2 POP POP JUMP JUMPDEST PUSH1 0x0 DUP4 MLOAD PUSH2 0x23DA DUP2 DUP5 PUSH1 0x20 DUP9 ADD PUSH2 0x25AD JUMP JUMPDEST DUP4 MLOAD SWAP1 DUP4 ADD SWAP1 PUSH2 0x23EE DUP2 DUP4 PUSH1 0x20 DUP9 ADD PUSH2 0x25AD JUMP JUMPDEST ADD SWAP5 SWAP4 POP POP POP POP JUMP JUMPDEST PUSH1 0x1 PUSH1 0x1 PUSH1 0xA0 SHL SUB DUP6 DUP2 AND DUP3 MSTORE DUP5 AND PUSH1 0x20 DUP3 ADD MSTORE PUSH1 0x40 DUP2 ADD DUP4 SWAP1 MSTORE PUSH1 0x80 PUSH1 0x60 DUP3 ADD DUP2 SWAP1 MSTORE PUSH1 0x0 SWAP1 PUSH2 0x242A SWAP1 DUP4 ADD DUP5 PUSH2 0x239C JUMP JUMPDEST SWAP7 SWAP6 POP POP POP POP POP POP JUMP JUMPDEST PUSH1 0x0 PUSH1 0x1 DUP1 PUSH1 0xA0 SHL SUB DUP6 AND DUP3 MSTORE DUP4 PUSH1 0x20 DUP4 ADD MSTORE PUSH1 0x60 PUSH1 0x40 DUP4 ADD MSTORE PUSH2 0x245B PUSH1 0x60 DUP4 ADD DUP5 PUSH2 0x239C JUMP JUMPDEST SWAP6 SWAP5 POP POP POP POP POP JUMP JUMPDEST PUSH1 0x0 DUP4 ISZERO ISZERO DUP3 MSTORE PUSH1 0x40 PUSH1 0x20 DUP4 ADD MSTORE PUSH2 0x1633 PUSH1 0x40 DUP4 ADD DUP5 PUSH2 0x239C JUMP JUMPDEST PUSH1 0x0 PUSH1 0x20 DUP3 MSTORE PUSH2 0x1408 PUSH1 0x20 DUP4 ADD DUP5 PUSH2 0x239C JUMP JUMPDEST PUSH1 0x20 DUP1 DUP3 MSTORE PUSH1 0x32 SWAP1 DUP3 ADD MSTORE PUSH32 0x4552433732313A207472616E7366657220746F206E6F6E204552433732315265 PUSH1 0x40 DUP3 ADD MSTORE PUSH18 0x31B2B4BB32B91034B6B83632B6B2B73A32B9 PUSH1 0x71 SHL PUSH1 0x60 DUP3 ADD MSTORE PUSH1 0x80 ADD SWAP1 JUMP JUMPDEST PUSH1 0x20 DUP1 DUP3 MSTORE DUP2 DUP2 ADD MSTORE PUSH32 0x4F776E61626C653A2063616C6C6572206973206E6F7420746865206F776E6572 PUSH1 0x40 DUP3 ADD MSTORE PUSH1 0x60 ADD SWAP1 JUMP JUMPDEST PUSH1 0x20 DUP1 DUP3 MSTORE PUSH1 0x31 SWAP1 DUP3 ADD MSTORE PUSH32 0x4552433732313A207472616E736665722063616C6C6572206973206E6F74206F PUSH1 0x40 DUP3 ADD MSTORE PUSH17 0x1DDB995C881B9BDC88185C1C1C9BDD9959 PUSH1 0x7A SHL PUSH1 0x60 DUP3 ADD MSTORE PUSH1 0x80 ADD SWAP1 JUMP JUMPDEST PUSH1 0x0 DUP3 NOT DUP3 GT ISZERO PUSH2 0x257D JUMPI PUSH2 0x257D PUSH2 0x2643 JUMP JUMPDEST POP ADD SWAP1 JUMP JUMPDEST PUSH1 0x0 DUP3 PUSH2 0x2591 JUMPI PUSH2 0x2591 PUSH2 0x2659 JUMP JUMPDEST POP DIV SWAP1 JUMP JUMPDEST PUSH1 0x0 DUP3 DUP3 LT ISZERO PUSH2 0x25A8 JUMPI PUSH2 0x25A8 PUSH2 0x2643 JUMP JUMPDEST POP SUB SWAP1 JUMP JUMPDEST PUSH1 0x0 JUMPDEST DUP4 DUP2 LT ISZERO PUSH2 0x25C8 JUMPI DUP2 DUP2 ADD MLOAD DUP4 DUP3 ADD MSTORE PUSH1 0x20 ADD PUSH2 0x25B0 JUMP JUMPDEST DUP4 DUP2 GT ISZERO PUSH2 0x12E2 JUMPI POP POP PUSH1 0x0 SWAP2 ADD MSTORE JUMP JUMPDEST PUSH1 0x1 DUP2 DUP2 SHR SWAP1 DUP3 AND DUP1 PUSH2 0x25ED JUMPI PUSH1 0x7F DUP3 AND SWAP2 POP JUMPDEST PUSH1 0x20 DUP3 LT DUP2 EQ ISZERO PUSH2 0x260E JUMPI PUSH4 0x4E487B71 PUSH1 0xE0 SHL PUSH1 0x0 MSTORE PUSH1 0x22 PUSH1 0x4 MSTORE PUSH1 0x24 PUSH1 0x0 REVERT JUMPDEST POP SWAP2 SWAP1 POP JUMP JUMPDEST PUSH1 0x0 PUSH1 0x0 NOT DUP3 EQ ISZERO PUSH2 0x2628 JUMPI PUSH2 0x2628 PUSH2 0x2643 JUMP JUMPDEST POP PUSH1 0x1 ADD SWAP1 JUMP JUMPDEST PUSH1 0x0 DUP3 PUSH2 0x263E JUMPI PUSH2 0x263E PUSH2 0x2659 JUMP JUMPDEST POP MOD SWAP1 JUMP JUMPDEST PUSH4 0x4E487B71 PUSH1 0xE0 SHL PUSH1 0x0 MSTORE PUSH1 0x11 PUSH1 0x4 MSTORE PUSH1 0x24 PUSH1 0x0 REVERT JUMPDEST PUSH4 0x4E487B71 PUSH1 0xE0 SHL PUSH1 0x0 MSTORE PUSH1 0x12 PUSH1 0x4 MSTORE PUSH1 0x24 PUSH1 0x0 REVERT JUMPDEST PUSH4 0x4E487B71 PUSH1 0xE0 SHL PUSH1 0x0 MSTORE PUSH1 0x41 PUSH1 0x4 MSTORE PUSH1 0x24 PUSH1 0x0 REVERT JUMPDEST DUP1 ISZERO ISZERO DUP2 EQ PUSH2 0x112A JUMPI PUSH1 0x0 DUP1 REVERT JUMPDEST PUSH1 0x1 PUSH1 0x1 PUSH1 0xE0 SHL SUB NOT DUP2 AND DUP2 EQ PUSH2 0x112A JUMPI PUSH1 0x0 DUP1 REVERT INVALID LOG2 PUSH5 0x6970667358 0x22 SLT KECCAK256 REVERT 0x22 SUB 0xCD PUSH19 0xB16465F3A4149F8B97D86A6E7C2F4D36E7ADB3 0x5E JUMPDEST EXTCODEHASH PUSH31 0x4AADFED564736F6C6343000803003300000000000000000000000000000000 ","sha1":"fb30a783f09f6df81215ecae10b3453cd650d12e","source":"/** \n██████╗ ███████╗████████╗██████╗  ██████╗      ██████╗ █████╗ ████████╗███████╗    \n██╔══██╗██╔════╝╚══██╔══╝██╔══██╗██╔═══██╗    ██╔════╝██╔══██╗╚══██╔══╝██╔════╝    \n██████╔╝█████╗     ██║   ██████╔╝██║   ██║    ██║     ███████║   ██║   ███████╗    \n██╔══██╗██╔══╝     ██║   ██╔══██╗██║   ██║    ██║     ██╔══██║   ██║   ╚════██║    \n██║  ██║███████╗   ██║   ██║  ██║╚██████╔╝    ╚██████╗██║  ██║   ██║   ███████║    \n╚═╝  ╚═╝╚══════╝   ╚═╝   ╚═╝  ╚═╝ ╚═════╝      ╚═════╝╚═╝  ╚═╝   ╚═╝   ╚══════╝    \n                                                                                 \n\n<<https://github.com/retro-cats/retro-cats-contracts>>\n\n           __..--''``---....___   _..._    __\n       _.-'    .-/\";  `        ``<._  ``.''_ `. / // /\n   _.-' _..--.'_    \\                    `( ) ) // //\n   (_..-' // (< _     ;_..__               ; `' / ///\n //// // //  `-._,_)' // / ``--...____..-' /// / //\n*/\n// SPDX-License-Identifier: MIT\n\npragma solidity 0.8.3;\n\nimport \"@openzeppelin/contracts/token/ERC721/extensions/ERC721URIStorage.sol\";\nimport \"@openzeppelin/contracts/access/Ownable.sol\";\nimport \"@openzeppelin/contracts/security/ReentrancyGuard.sol\";\nimport \"@openzeppelin/contracts/utils/Strings.sol\";\nimport \"@chainlink/contracts/src/v0.8/VRFConsumerBase.sol\";\nimport \"../interfaces/KeeperCompatibleInterface.sol\";\n\ncontract RetroCats is Ownable, ERC721URIStorage, VRFConsumerBase, ReentrancyGuard, KeeperCompatibleInterface{\n    using Strings for uint256;\n    \n    // ERC721 Variables\n    uint256 public s_tokenCounter;\n    string internal s_baseURI;\n\n    // Chainlink VRF Variables\n    bytes32 internal s_keyHash;\n    uint256 public s_fee;\n    uint256 internal s_recentRandomNumber;\n    mapping(bytes32 => uint256) internal s_requestIdToTokenId;\n    mapping(uint256 => uint256) public s_tokenIdToRandomNumber;\n\n    // Chainlink Keeper Variables\n    address public s_chainlinkKeeperRegistryContract;\n    // Retro Cat Randomness Variables\n    /**\n    * @dev Every X cats minted will trigger a new random\n    * number from the chainlink VRF. That X number, is this\n    * variable.\n    */\n    uint256 public s_vrfCallInterval;\n    uint256[] public s_tokenIdRandomnessNeededQueue;\n    address public s_retroCatsMetadata;\n    uint256 public s_catfee;\n    /**\n    * @dev Every X cats minted will trigger a new random\n    * number from the chainlink VRF. That X number, is this\n    * variable.\n    */\n\n    // Events\n    event requestedNewChainlinkVRF(bytes32 indexed requestId);\n    event requestedNewCat(uint256 tokenId);\n    event randomNumberAssigned(uint256 indexed tokenId, uint256 indexed randomNumber);\n\n    /**\n    * @notice Deploys the retrocats factory contract\n    * @param _vrfCoordinator The address of the VRF Coordinator \n    * The VRF Coordinator does the due dilligence to ensure\n    * the number returned is truly random. \n    * @param _linkToken The address of the Chainlink token\n    */\n    constructor (address _vrfCoordinator, address _linkToken, bytes32 _keyHash, uint256 _fee, address _retroCatsMetadata, address _chainlinkKeeperRegistryContract, uint256 _vrfCallInterval) public\n    VRFConsumerBase(_vrfCoordinator, _linkToken)\n    ERC721(\"Retro Cats\", \"RETRO\")\n    {\n        s_tokenCounter = 0;\n        s_keyHash = _keyHash;\n        s_fee = _fee;\n        s_vrfCallInterval = _vrfCallInterval;\n        s_retroCatsMetadata = _retroCatsMetadata;\n        s_chainlinkKeeperRegistryContract = _chainlinkKeeperRegistryContract;\n        s_baseURI = \"https://us-central1-retro-cats.cloudfunctions.net/retro-cats-function?token_id=\";\n        s_catfee = 20000000000000000;\n    }\n\n    /**\n    * @notice Mints a new random cat\n    * @dev We only trigger a chainlink VRF call every s_vrfCallInterval mints.\n    * Otherwise, we will have the Chainlink Keeper Network create our \n    * random number, so others can't exploit searching for randomness.\n    * We do this as a cost saving mechanism. Since keepers is cheaper than \n    * Chainlink VRF calls, but we still want true randomness. \n    */\n    function mint_cat() public payable nonReentrant returns (uint256 tokenId){\n        require(msg.value >= s_catfee, \"You must pay the cat fee!\");\n        tokenId = s_tokenCounter;\n        _safeMint(msg.sender, tokenId);\n\n        if(s_tokenCounter % s_vrfCallInterval == 0){\n            bytes32 requestId = requestRandomness(s_keyHash, s_fee);\n            s_requestIdToTokenId[requestId] = tokenId;\n            emit requestedNewCat(tokenId);\n            emit requestedNewChainlinkVRF(requestId);\n        } else { \n            s_tokenIdRandomnessNeededQueue.push(tokenId);\n            emit requestedNewCat(tokenId);\n        }\n        s_tokenCounter = s_tokenCounter + 1;\n    }\n\n    function fulfillRandomness(bytes32 requestId, uint256 randomness) internal override {\n        s_recentRandomNumber = randomness;\n        uint256 tokenId = s_requestIdToTokenId[requestId];\n        s_tokenIdToRandomNumber[tokenId] = randomness;\n        emit randomNumberAssigned(tokenId, randomness);\n    }\n\n    function setVRFCallInterval(uint256 newInterval) public onlyOwner {\n        s_vrfCallInterval = newInterval;\n    }\n\n    /**\n    * @notice Checks to see if their are any tokenIds that don't have \n    * a random number & tokenURI associated with them\n    * @param checkData should be empty, needed for keeper network\n    */\n    function checkUpkeep(bytes calldata checkData) external override returns (bool upkeepNeeded, bytes memory performData){\n        upkeepNeeded = s_tokenIdRandomnessNeededQueue.length > 0;\n        performData = checkData;\n    }\n\n    function performUpkeep(bytes calldata performData) external override onlyChainlinkKeepers{\n        require(s_tokenIdRandomnessNeededQueue.length > 0, \"RetroCats: There is nothing in queue!\");\n        uint256 tokenQueueIndex = 0;\n        uint256 tokenId = s_tokenIdRandomnessNeededQueue[tokenQueueIndex];\n        // maybe we loop through a group of 10 (or 10 - tokenCounter % interval) \n        // instead of just doing 1 at a time\n        // This might be an attack vector though\n        uint256 newRandomNumber = uint256(\n                keccak256(\n                    abi.encodePacked(block.difficulty, block.number, block.timestamp, tx.origin, tx.gasprice, tokenId)\n                )\n            );\n        s_tokenIdToRandomNumber[tokenId] = newRandomNumber;\n        emit randomNumberAssigned(tokenId, newRandomNumber);\n        removeFromQueue(tokenQueueIndex);\n    }\n\n    // refactor for gas please\n    function removeFromQueue(uint256 index) internal {\n        if (index >= s_tokenIdRandomnessNeededQueue.length) return;\n\n        for (uint i = index; i<s_tokenIdRandomnessNeededQueue.length-1; i++){\n            s_tokenIdRandomnessNeededQueue[i] = s_tokenIdRandomnessNeededQueue[i+1];\n        }\n        s_tokenIdRandomnessNeededQueue.pop();\n    }\n\n\n    // Only the Chainlink keeper registery should be able to call this contract\n    modifier onlyChainlinkKeepers() {\n        require(msg.sender == s_chainlinkKeeperRegistryContract, \"RetroCats: Caller is not a Chainlink Node!\");\n        _;\n    }\n\n    function setTokenURI(uint256 tokenId, string memory _tokenURI) public onlyOwner {\n        require(\n            _isApprovedOrOwner(_msgSender(), tokenId),\n            \"ERC721: transfer caller is not owner nor approved\"\n        );\n        _setTokenURI(tokenId, _tokenURI);\n    }\n\n    /**\n     * @dev Base URI for computing {tokenURI}. \n     */\n    function _baseURI() internal view virtual override returns (string memory) {\n        return s_baseURI;\n    }\n\n    /**\n     * @dev Sets the BaseURI for computing {tokenURI}. \n     */\n    function _setBaseURI(string memory _baseURI) public onlyOwner(){\n        s_baseURI = _baseURI;\n    }\n\n    function _setRetroCatMetadata(address _retroCatMetadata) public onlyOwner(){\n        s_retroCatsMetadata = _retroCatMetadata;\n    }\n\n    function setCatFee(uint256 _catfee) public onlyOwner {\n        s_catfee = _catfee;\n    }\n\n    function withdraw() public onlyOwner{\n        uint256 amount = address(this).balance;\n        payable(owner()).transfer(amount);\n    }\n\n    function withdrawLink() public onlyOwner {\n        LinkTokenInterface linkToken = LinkTokenInterface(LINK);\n        require(linkToken.transfer(msg.sender, linkToken.balanceOf(address(this))), \"Unable to transfer\");\n    }\n\n    function tokenURI(uint256 tokenId)\n        public\n        view\n        virtual\n        override\n        returns (string memory)\n    {\n        require(_exists(tokenId), \"ERC721Metadata: URI query for nonexistent token\");\n        string memory baseURI = _baseURI();\n        return bytes(baseURI).length > 0 ? string(abi.encodePacked(baseURI, tokenId.toString())) : \"\";\n    }\n}\n","sourcePath":"contracts/RetroCats.sol","type":"contract","deployment":{"address":"0x4B07afF9e5D361C6Dba7254c317C2f6C73ada1f9","chainid":"4","blockHeight":9297529}}