{"abi":[{"inputs":[{"internalType":"uint256","name":"","type":"uint256"},{"internalType":"uint256","name":"","type":"uint256"}],"name":"S_TRAIT_ARRAYS","outputs":[{"internalType":"uint256","name":"","type":"uint256"}],"stateMutability":"view","type":"function"},{"inputs":[{"internalType":"uint256","name":"randomNumber","type":"uint256"},{"internalType":"uint256","name":"seed","type":"uint256"}],"name":"getModdedRNG","outputs":[{"internalType":"uint256","name":"modded_rng","type":"uint256"}],"stateMutability":"view","type":"function"},{"inputs":[{"internalType":"uint256[]","name":"traitArray","type":"uint256[]"},{"internalType":"uint256","name":"moddedRNG","type":"uint256"}],"name":"getTraitIndex","outputs":[{"internalType":"uint256","name":"","type":"uint256"}],"stateMutability":"pure","type":"function"},{"inputs":[],"name":"purr","outputs":[{"internalType":"string","name":"","type":"string"}],"stateMutability":"view","type":"function"},{"inputs":[{"internalType":"uint256","name":"randomNumber","type":"uint256"}],"name":"rngToCat","outputs":[{"components":[{"internalType":"enum RetroCatsMetadata.Background","name":"background","type":"uint8"},{"internalType":"enum RetroCatsMetadata.Frame","name":"frame","type":"uint8"},{"internalType":"enum RetroCatsMetadata.Breed","name":"breed","type":"uint8"},{"internalType":"enum RetroCatsMetadata.Eyes","name":"eyes","type":"uint8"},{"internalType":"enum RetroCatsMetadata.Hair","name":"hair","type":"uint8"},{"internalType":"enum RetroCatsMetadata.Bling","name":"bling","type":"uint8"},{"internalType":"enum RetroCatsMetadata.Head","name":"head","type":"uint8"},{"internalType":"enum RetroCatsMetadata.Item","name":"item","type":"uint8"},{"internalType":"enum RetroCatsMetadata.Ring","name":"ring","type":"uint8"},{"internalType":"enum RetroCatsMetadata.Earring","name":"earring","type":"uint8"},{"internalType":"enum RetroCatsMetadata.Vice","name":"vice","type":"uint8"}],"internalType":"struct RetroCatsMetadata.RetroCat","name":"retroCat","type":"tuple"}],"stateMutability":"view","type":"function"}],"bytecode":"6127106000819055600b60018181556104c06040526101f4608090815261044c60a05261025860c0526103e860e05261038461010052610578610120526102bc610140526107d0610160526103206101808190526101906101a05261010e6101c052601e6101e052606461020052610220929092526006610240526102609290925260106102805260026102a081905260076102c052600c6102e0526011610300526003909152600861034052600d6103605260126103805260046103a05260096103c052600e6103e052601361040052600561042052600a610440819052600f61046052610480526104a092909252620000fd9190602262000be5565b5060405180610180016040528060fa81526020016096815260200161012c815260200160c8815260200160288152602001600a815260200160508152602001604681526020016101908152602001606481526020016120d08152602001600054815250600390600c6200017292919062000be5565b50604051806102000160405280605a81526020016102588152602001604b815260200161019081526020016103848152602001610a8c81526020016108348152602001609b8152602001610a2881526020016101188152602001602381526020016001815260200160058152602001603281526020016009815260200160005481525060049060106200020792919062000be5565b506040518061014001604052806104b08152602001600a81526020016107d081526020016105788152602001605a815260200161070881526020016103e8815260200161064081526020016103848152602001600054815250600590600a6200027292919062000be5565b50604051806102a001604052806102588152602001600481526020016103e881526020016104b081526020016104b08152602001600181526020016101f4815260200161012c81526020016102bc8152602001610640815260200161019081526020016101c281526020016005815260200160078152602001605081526020016003815260200161028a815260200161015e81526020016102ee815260200160c8815260200160005481525060069060156200033092919062000be5565b50604051806102c0016040528061044c815260200160c8815260200161032081526020016101f4815260200160c881526020016102bc815260200161057881526020016101908152602001610320815260200161025881526020016104b08152602001602881526020016002815260200161015e815260200160fa81526020016101c28152602001600581526020016032815260200161012c815260200161028a8152602001600381526020016000548152506007906016620003f592919062000be5565b50604051806102a001604052806104b0815260200161044c8152602001600181526020016105148152602001610258815260200161012c81526020016103e88152602001610190815260200161015e8152602001610384815260200160fa8152602001603c81526020016004815260200161012c815260200161022681526020016101f48152602001601e81526020016103b6815260200160c88152602001600581526020016000548152506008906015620004b392919062000be5565b50604051806102c00160405280605a815260200161032081526020016001815260200161057881526020016104b0815260200161038481526020016102bc8152602001610226815260200161051481526020016103e88152602001600681526020016101908152602001610258815260200160c8815260200160328152602001603c81526020016096815260200160fa81526020016028815260200161012c81526020016003815260200160005481525060099060166200057692919062000be5565b50604051806102c0016040528061019081526020016103e8815260200161038481526020016102588152602001610352815260200161051481526020016104b0815260200161032081526020016101f481526020016102bc815260200160fa815260200160c881526020016096815260200160c881526020016101f48152602001603c815260200161015e8152602001601e8152602001600181526020016006815260200160038152602001600054815250600a9060166200063a92919062000be5565b50604051806102c0016040528061019081526020016001815260200160c88152602001605a81526020016104b081526020016101f4815260200160c881526020016103e8815260200161012c81526020016102588152602001610bb8815260200160fa81526020016101c2815260200160698152602001600781526020016005815260200161017781526020016102d5815260200161023f815260200160048152602001600d8152602001600054815250600b906016620006fd92919062000be5565b50604051806102c001604052806103e881526020016101a4815260200161044c81526020016105148152602001603281526020016104b081526020016105aa815260200160078152602001601e81526020016101f481526020016101908152602001610226815260200160c8815260200161028a81526020016101cc815260200160018152602001601481526020016036815260200160028152602001610258815260200160068152602001600054815250600c906016620007c192919062000be5565b50604080516002805461018060208202840181019094526101608301818152929384939291908401828280156200081857602002820191906000526020600020905b81548152602001906001019080831162000803575b5050505050815260200160038054806020026020016040519081016040528092919081815260200182805480156200087057602002820191906000526020600020905b8154815260200190600101908083116200085b575b505050505081526020016004805480602002602001604051908101604052809291908181526020018280548015620008c857602002820191906000526020600020905b815481526020019060010190808311620008b3575b5050505050815260200160058054806020026020016040519081016040528092919081815260200182805480156200092057602002820191906000526020600020905b8154815260200190600101908083116200090b575b5050505050815260200160068054806020026020016040519081016040528092919081815260200182805480156200097857602002820191906000526020600020905b81548152602001906001019080831162000963575b505050505081526020016007805480602002602001604051908101604052809291908181526020018280548015620009d057602002820191906000526020600020905b815481526020019060010190808311620009bb575b50505050508152602001600880548060200260200160405190810160405280929190818152602001828054801562000a2857602002820191906000526020600020905b81548152602001906001019080831162000a13575b50505050508152602001600980548060200260200160405190810160405280929190818152602001828054801562000a8057602002820191906000526020600020905b81548152602001906001019080831162000a6b575b50505050508152602001600a80548060200260200160405190810160405280929190818152602001828054801562000ad857602002820191906000526020600020905b81548152602001906001019080831162000ac3575b50505050508152602001600b80548060200260200160405190810160405280929190818152602001828054801562000b3057602002820191906000526020600020905b81548152602001906001019080831162000b1b575b50505050508152602001600c80548060200260200160405190810160405280929190818152602001828054801562000b8857602002820191906000526020600020905b81548152602001906001019080831162000b73575b505050919092525062000ba191600d9150600b62000c35565b50604080518082019091526005808252644d656f772160d81b602090920191825262000bd091600e9162000c95565b5034801562000bde57600080fd5b5062000da9565b82805482825590600052602060002090810192821562000c23579160200282015b8281111562000c2357825182559160200191906001019062000c06565b5062000c3192915062000d11565b5090565b82805482825590600052602060002090810192821562000c87579160200282015b8281111562000c87578251805162000c7691849160209091019062000be5565b509160200191906001019062000c56565b5062000c3192915062000d28565b82805462000ca39062000d6c565b90600052602060002090601f01602090048101928262000cc7576000855562000c23565b82601f1062000ce257805160ff191683800117855562000c23565b8280016001018555821562000c23579182018281111562000c2357825182559160200191906001019062000c06565b5b8082111562000c31576000815560010162000d12565b8082111562000c3157600062000d3f828262000d49565b5060010162000d28565b508054600082559060005260206000209081019062000d69919062000d11565b50565b600181811c9082168062000d8157607f821691505b6020821081141562000da357634e487b7160e01b600052602260045260246000fd5b50919050565b610d268062000db96000396000f3fe608060405234801561001057600080fd5b50600436106100575760003560e01c806354b02b3b1461005c57806378f25b641461007a578063bafa60e61461009b578063dc90579a146100ae578063dd6902fa146100ce575b600080fd5b6100646100e1565b6040516100719190610aef565b60405180910390f35b61008d610088366004610a6a565b61016f565b604051908152602001610071565b61008d6100a936600461098c565b6101ac565b6100c16100bc366004610a52565b6102b7565b6040516100719190610b42565b61008d6100dc366004610a6a565b61093c565b600e80546100ee90610c38565b80601f016020809104026020016040519081016040528092919081815260200182805461011a90610c38565b80156101675780601f1061013c57610100808354040283529160200191610167565b820191906000526020600020905b81548152906001019060200180831161014a57829003601f168201915b505050505081565b600d828154811061017f57600080fd5b90600052602060002001818154811061019757600080fd5b90600052602060002001600091509150505481565b600080805b8451811015610250578184101580156101fb57508481815181106101e557634e487b7160e01b600052603260045260246000fd5b6020026020010151826101f89190610c20565b84105b156102095791506102b19050565b84818151811061022957634e487b7160e01b600052603260045260246000fd5b60200260200101518261023c9190610c20565b91508061024881610c73565b9150506101b1565b5060405162461bcd60e51b815260206004820152602b60248201527f476f7420612076616c7565206f757473696465206f662074686520735f6d617860448201526a4368616e636556616c756560a81b606482015260840160405180910390fd5b92915050565b61031460408051610160810190915280600081526020016000815260200160008152602001600081526020016000815260200160008152602001600081526020016000815260200160008152602001600081526020016000905290565b6000600d805480602002602001604051908101604052809291908181526020016000905b828210156103a45760008481526020908190208301805460408051828502810185019091528181529283018282801561039057602002820191906000526020600020905b81548152602001906001019080831161037c575b505050505081526020019060010190610338565b505050509050600060015467ffffffffffffffff8111156103d557634e487b7160e01b600052604160045260246000fd5b6040519080825280602002602001820160405280156103fe578160200160208202803683370190505b50905060005b60015481101561048657600061044584838151811061043357634e487b7160e01b600052603260045260246000fd5b60200260200101516100a9888561093c565b90508083838151811061046857634e487b7160e01b600052603260045260246000fd5b6020908102919091010152508061047e81610c73565b915050610404565b50604051806101600160405280826000815181106104b457634e487b7160e01b600052603260045260246000fd5b602002602001015160208111156104db57634e487b7160e01b600052602160045260246000fd5b60208111156104fa57634e487b7160e01b600052602160045260246000fd5b81526020018260018151811061052057634e487b7160e01b600052603260045260246000fd5b6020026020010151600a81111561054757634e487b7160e01b600052602160045260246000fd5b600a81111561056657634e487b7160e01b600052602160045260246000fd5b81526020018260028151811061058c57634e487b7160e01b600052603260045260246000fd5b6020026020010151600e8111156105b357634e487b7160e01b600052602160045260246000fd5b600e8111156105d257634e487b7160e01b600052602160045260246000fd5b8152602001826003815181106105f857634e487b7160e01b600052603260045260246000fd5b6020026020010151600881111561061f57634e487b7160e01b600052602160045260246000fd5b600881111561063e57634e487b7160e01b600052602160045260246000fd5b81526020018260048151811061066457634e487b7160e01b600052603260045260246000fd5b6020026020010151601381111561068b57634e487b7160e01b600052602160045260246000fd5b60138111156106aa57634e487b7160e01b600052602160045260246000fd5b8152602001826005815181106106d057634e487b7160e01b600052603260045260246000fd5b602002602001015160148111156106f757634e487b7160e01b600052602160045260246000fd5b601481111561071657634e487b7160e01b600052602160045260246000fd5b81526020018260068151811061073c57634e487b7160e01b600052603260045260246000fd5b6020026020010151601381111561076357634e487b7160e01b600052602160045260246000fd5b601381111561078257634e487b7160e01b600052602160045260246000fd5b8152602001826007815181106107a857634e487b7160e01b600052603260045260246000fd5b602002602001015160148111156107cf57634e487b7160e01b600052602160045260246000fd5b60148111156107ee57634e487b7160e01b600052602160045260246000fd5b81526020018260088151811061081457634e487b7160e01b600052603260045260246000fd5b6020026020010151601481111561083b57634e487b7160e01b600052602160045260246000fd5b601481111561085a57634e487b7160e01b600052602160045260246000fd5b81526020018260098151811061088057634e487b7160e01b600052603260045260246000fd5b602002602001015160148111156108a757634e487b7160e01b600052602160045260246000fd5b60148111156108c657634e487b7160e01b600052602160045260246000fd5b815260200182600a815181106108ec57634e487b7160e01b600052603260045260246000fd5b6020026020010151601481111561091357634e487b7160e01b600052602160045260246000fd5b601481111561093257634e487b7160e01b600052602160045260246000fd5b9052949350505050565b600080838360405160200161095b929190918252602082015260400190565b6040516020818303038152906040528051906020012060001c9050600054816109849190610c8e565b949350505050565b6000806040838503121561099e578182fd5b823567ffffffffffffffff808211156109b5578384fd5b818501915085601f8301126109c8578384fd5b81356020828211156109dc576109dc610cda565b8160051b604051601f19603f83011681018181108682111715610a0157610a01610cda565b604052838152828101945085830182870184018b1015610a1f578889fd5b8896505b84871015610a41578035865260019690960195948301948301610a23565b509997909101359750505050505050565b600060208284031215610a63578081fd5b5035919050565b60008060408385031215610a7c578182fd5b50508035926020909101359150565b60218110610a9b57610a9b610cc4565b9052565b60158110610a9b57610a9b610cc4565b600f8110610a9b57610a9b610cc4565b60098110610a9b57610a9b610cc4565b600b8110610a9b57610a9b610cc4565b60148110610a9b57610a9b610cc4565b6000602080835283518082850152825b81811015610b1b57858101830151858201604001528201610aff565b81811115610b2c5783604083870101525b50601f01601f1916929092016040019392505050565b600061016082019050610b56828451610a8b565b6020830151610b686020840182610acf565b506040830151610b7b6040840182610aaf565b506060830151610b8e6060840182610abf565b506080830151610ba16080840182610adf565b5060a0830151610bb460a0840182610a9f565b5060c0830151610bc760c0840182610adf565b5060e0830151610bda60e0840182610a9f565b5061010080840151610bee82850182610a9f565b505061012080840151610c0382850182610a9f565b505061014080840151610c1882850182610a9f565b505092915050565b60008219821115610c3357610c33610cae565b500190565b600181811c90821680610c4c57607f821691505b60208210811415610c6d57634e487b7160e01b600052602260045260246000fd5b50919050565b6000600019821415610c8757610c87610cae565b5060010190565b600082610ca957634e487b7160e01b81526012600452602481fd5b500690565b634e487b7160e01b600052601160045260246000fd5b634e487b7160e01b600052602160045260246000fd5b634e487b7160e01b600052604160045260246000fdfea264697066735822122086a7db1400d1d13040c0061a0c69011556dfde32a2e37a946e74b296d3fba46b64736f6c63430008030033","bytecodeSha1":"b5af657e4052c812e9d1f51af8e8dbf6758e1f3a","compiler":{"evm_version":"istanbul","optimizer":{"enabled":true,"runs":200},"version":"0.8.3+commit.8d00100c"},"contractName":"RetroCatsMetadata","language":"Solidity","natspec":{"kind":"dev","methods":{},"stateVariables":{"s_totalTraits":{"details":"Percentages for each traiteach row will always end with 10000 When picking a trait based on RNG, we will get a value between 0 - 99999 We choose the trait based on the sum of the integers up to the index For example, if my random number is 251, and my array is [250, 200, 10000]      This means my trait is at the 1st index. 251 is higher than 250, but lower than      250 + 200"}},"version":1},"opcodes":"PUSH1 0x80 PUSH1 0x40 MSTORE CALLVALUE DUP1 ISZERO PUSH2 0x10 JUMPI PUSH1 0x0 DUP1 REVERT JUMPDEST POP PUSH1 0x4 CALLDATASIZE LT PUSH2 0x57 JUMPI PUSH1 0x0 CALLDATALOAD PUSH1 0xE0 SHR DUP1 PUSH4 0x54B02B3B EQ PUSH2 0x5C JUMPI DUP1 PUSH4 0x78F25B64 EQ PUSH2 0x7A JUMPI DUP1 PUSH4 0xBAFA60E6 EQ PUSH2 0x9B JUMPI DUP1 PUSH4 0xDC90579A EQ PUSH2 0xAE JUMPI DUP1 PUSH4 0xDD6902FA EQ PUSH2 0xCE JUMPI JUMPDEST PUSH1 0x0 DUP1 REVERT JUMPDEST PUSH2 0x64 PUSH2 0xE1 JUMP JUMPDEST PUSH1 0x40 MLOAD PUSH2 0x71 SWAP2 SWAP1 PUSH2 0xAEF JUMP JUMPDEST PUSH1 0x40 MLOAD DUP1 SWAP2 SUB SWAP1 RETURN JUMPDEST PUSH2 0x8D PUSH2 0x88 CALLDATASIZE PUSH1 0x4 PUSH2 0xA6A JUMP JUMPDEST PUSH2 0x16F JUMP JUMPDEST PUSH1 0x40 MLOAD SWAP1 DUP2 MSTORE PUSH1 0x20 ADD PUSH2 0x71 JUMP JUMPDEST PUSH2 0x8D PUSH2 0xA9 CALLDATASIZE PUSH1 0x4 PUSH2 0x98C JUMP JUMPDEST PUSH2 0x1AC JUMP JUMPDEST PUSH2 0xC1 PUSH2 0xBC CALLDATASIZE PUSH1 0x4 PUSH2 0xA52 JUMP JUMPDEST PUSH2 0x2B7 JUMP JUMPDEST PUSH1 0x40 MLOAD PUSH2 0x71 SWAP2 SWAP1 PUSH2 0xB42 JUMP JUMPDEST PUSH2 0x8D PUSH2 0xDC CALLDATASIZE PUSH1 0x4 PUSH2 0xA6A JUMP JUMPDEST PUSH2 0x93C JUMP JUMPDEST PUSH1 0xE DUP1 SLOAD PUSH2 0xEE SWAP1 PUSH2 0xC38 JUMP JUMPDEST DUP1 PUSH1 0x1F ADD PUSH1 0x20 DUP1 SWAP2 DIV MUL PUSH1 0x20 ADD PUSH1 0x40 MLOAD SWAP1 DUP2 ADD PUSH1 0x40 MSTORE DUP1 SWAP3 SWAP2 SWAP1 DUP2 DUP2 MSTORE PUSH1 0x20 ADD DUP3 DUP1 SLOAD PUSH2 0x11A SWAP1 PUSH2 0xC38 JUMP JUMPDEST DUP1 ISZERO PUSH2 0x167 JUMPI DUP1 PUSH1 0x1F LT PUSH2 0x13C JUMPI PUSH2 0x100 DUP1 DUP4 SLOAD DIV MUL DUP4 MSTORE SWAP2 PUSH1 0x20 ADD SWAP2 PUSH2 0x167 JUMP JUMPDEST DUP3 ADD SWAP2 SWAP1 PUSH1 0x0 MSTORE PUSH1 0x20 PUSH1 0x0 KECCAK256 SWAP1 JUMPDEST DUP2 SLOAD DUP2 MSTORE SWAP1 PUSH1 0x1 ADD SWAP1 PUSH1 0x20 ADD DUP1 DUP4 GT PUSH2 0x14A JUMPI DUP3 SWAP1 SUB PUSH1 0x1F AND DUP3 ADD SWAP2 JUMPDEST POP POP POP POP POP DUP2 JUMP JUMPDEST PUSH1 0xD DUP3 DUP2 SLOAD DUP2 LT PUSH2 0x17F JUMPI PUSH1 0x0 DUP1 REVERT JUMPDEST SWAP1 PUSH1 0x0 MSTORE PUSH1 0x20 PUSH1 0x0 KECCAK256 ADD DUP2 DUP2 SLOAD DUP2 LT PUSH2 0x197 JUMPI PUSH1 0x0 DUP1 REVERT JUMPDEST SWAP1 PUSH1 0x0 MSTORE PUSH1 0x20 PUSH1 0x0 KECCAK256 ADD PUSH1 0x0 SWAP2 POP SWAP2 POP POP SLOAD DUP2 JUMP JUMPDEST PUSH1 0x0 DUP1 DUP1 JUMPDEST DUP5 MLOAD DUP2 LT ISZERO PUSH2 0x250 JUMPI DUP2 DUP5 LT ISZERO DUP1 ISZERO PUSH2 0x1FB JUMPI POP DUP5 DUP2 DUP2 MLOAD DUP2 LT PUSH2 0x1E5 JUMPI PUSH4 0x4E487B71 PUSH1 0xE0 SHL PUSH1 0x0 MSTORE PUSH1 0x32 PUSH1 0x4 MSTORE PUSH1 0x24 PUSH1 0x0 REVERT JUMPDEST PUSH1 0x20 MUL PUSH1 0x20 ADD ADD MLOAD DUP3 PUSH2 0x1F8 SWAP2 SWAP1 PUSH2 0xC20 JUMP JUMPDEST DUP5 LT JUMPDEST ISZERO PUSH2 0x209 JUMPI SWAP2 POP PUSH2 0x2B1 SWAP1 POP JUMP JUMPDEST DUP5 DUP2 DUP2 MLOAD DUP2 LT PUSH2 0x229 JUMPI PUSH4 0x4E487B71 PUSH1 0xE0 SHL PUSH1 0x0 MSTORE PUSH1 0x32 PUSH1 0x4 MSTORE PUSH1 0x24 PUSH1 0x0 REVERT JUMPDEST PUSH1 0x20 MUL PUSH1 0x20 ADD ADD MLOAD DUP3 PUSH2 0x23C SWAP2 SWAP1 PUSH2 0xC20 JUMP JUMPDEST SWAP2 POP DUP1 PUSH2 0x248 DUP2 PUSH2 0xC73 JUMP JUMPDEST SWAP2 POP POP PUSH2 0x1B1 JUMP JUMPDEST POP PUSH1 0x40 MLOAD PUSH3 0x461BCD PUSH1 0xE5 SHL DUP2 MSTORE PUSH1 0x20 PUSH1 0x4 DUP3 ADD MSTORE PUSH1 0x2B PUSH1 0x24 DUP3 ADD MSTORE PUSH32 0x476F7420612076616C7565206F757473696465206F662074686520735F6D6178 PUSH1 0x44 DUP3 ADD MSTORE PUSH11 0x4368616E636556616C7565 PUSH1 0xA8 SHL PUSH1 0x64 DUP3 ADD MSTORE PUSH1 0x84 ADD PUSH1 0x40 MLOAD DUP1 SWAP2 SUB SWAP1 REVERT JUMPDEST SWAP3 SWAP2 POP POP JUMP JUMPDEST PUSH2 0x314 PUSH1 0x40 DUP1 MLOAD PUSH2 0x160 DUP2 ADD SWAP1 SWAP2 MSTORE DUP1 PUSH1 0x0 DUP2 MSTORE PUSH1 0x20 ADD PUSH1 0x0 DUP2 MSTORE PUSH1 0x20 ADD PUSH1 0x0 DUP2 MSTORE PUSH1 0x20 ADD PUSH1 0x0 DUP2 MSTORE PUSH1 0x20 ADD PUSH1 0x0 DUP2 MSTORE PUSH1 0x20 ADD PUSH1 0x0 DUP2 MSTORE PUSH1 0x20 ADD PUSH1 0x0 DUP2 MSTORE PUSH1 0x20 ADD PUSH1 0x0 DUP2 MSTORE PUSH1 0x20 ADD PUSH1 0x0 DUP2 MSTORE PUSH1 0x20 ADD PUSH1 0x0 DUP2 MSTORE PUSH1 0x20 ADD PUSH1 0x0 SWAP1 MSTORE SWAP1 JUMP JUMPDEST PUSH1 0x0 PUSH1 0xD DUP1 SLOAD DUP1 PUSH1 0x20 MUL PUSH1 0x20 ADD PUSH1 0x40 MLOAD SWAP1 DUP2 ADD PUSH1 0x40 MSTORE DUP1 SWAP3 SWAP2 SWAP1 DUP2 DUP2 MSTORE PUSH1 0x20 ADD PUSH1 0x0 SWAP1 JUMPDEST DUP3 DUP3 LT ISZERO PUSH2 0x3A4 JUMPI PUSH1 0x0 DUP5 DUP2 MSTORE PUSH1 0x20 SWAP1 DUP2 SWAP1 KECCAK256 DUP4 ADD DUP1 SLOAD PUSH1 0x40 DUP1 MLOAD DUP3 DUP6 MUL DUP2 ADD DUP6 ADD SWAP1 SWAP2 MSTORE DUP2 DUP2 MSTORE SWAP3 DUP4 ADD DUP3 DUP3 DUP1 ISZERO PUSH2 0x390 JUMPI PUSH1 0x20 MUL DUP3 ADD SWAP2 SWAP1 PUSH1 0x0 MSTORE PUSH1 0x20 PUSH1 0x0 KECCAK256 SWAP1 JUMPDEST DUP2 SLOAD DUP2 MSTORE PUSH1 0x20 ADD SWAP1 PUSH1 0x1 ADD SWAP1 DUP1 DUP4 GT PUSH2 0x37C JUMPI JUMPDEST POP POP POP POP POP DUP2 MSTORE PUSH1 0x20 ADD SWAP1 PUSH1 0x1 ADD SWAP1 PUSH2 0x338 JUMP JUMPDEST POP POP POP POP SWAP1 POP PUSH1 0x0 PUSH1 0x1 SLOAD PUSH8 0xFFFFFFFFFFFFFFFF DUP2 GT ISZERO PUSH2 0x3D5 JUMPI PUSH4 0x4E487B71 PUSH1 0xE0 SHL PUSH1 0x0 MSTORE PUSH1 0x41 PUSH1 0x4 MSTORE PUSH1 0x24 PUSH1 0x0 REVERT JUMPDEST PUSH1 0x40 MLOAD SWAP1 DUP1 DUP3 MSTORE DUP1 PUSH1 0x20 MUL PUSH1 0x20 ADD DUP3 ADD PUSH1 0x40 MSTORE DUP1 ISZERO PUSH2 0x3FE JUMPI DUP2 PUSH1 0x20 ADD PUSH1 0x20 DUP3 MUL DUP1 CALLDATASIZE DUP4 CALLDATACOPY ADD SWAP1 POP JUMPDEST POP SWAP1 POP PUSH1 0x0 JUMPDEST PUSH1 0x1 SLOAD DUP2 LT ISZERO PUSH2 0x486 JUMPI PUSH1 0x0 PUSH2 0x445 DUP5 DUP4 DUP2 MLOAD DUP2 LT PUSH2 0x433 JUMPI PUSH4 0x4E487B71 PUSH1 0xE0 SHL PUSH1 0x0 MSTORE PUSH1 0x32 PUSH1 0x4 MSTORE PUSH1 0x24 PUSH1 0x0 REVERT JUMPDEST PUSH1 0x20 MUL PUSH1 0x20 ADD ADD MLOAD PUSH2 0xA9 DUP9 DUP6 PUSH2 0x93C JUMP JUMPDEST SWAP1 POP DUP1 DUP4 DUP4 DUP2 MLOAD DUP2 LT PUSH2 0x468 JUMPI PUSH4 0x4E487B71 PUSH1 0xE0 SHL PUSH1 0x0 MSTORE PUSH1 0x32 PUSH1 0x4 MSTORE PUSH1 0x24 PUSH1 0x0 REVERT JUMPDEST PUSH1 0x20 SWAP1 DUP2 MUL SWAP2 SWAP1 SWAP2 ADD ADD MSTORE POP DUP1 PUSH2 0x47E DUP2 PUSH2 0xC73 JUMP JUMPDEST SWAP2 POP POP PUSH2 0x404 JUMP JUMPDEST POP PUSH1 0x40 MLOAD DUP1 PUSH2 0x160 ADD PUSH1 0x40 MSTORE DUP1 DUP3 PUSH1 0x0 DUP2 MLOAD DUP2 LT PUSH2 0x4B4 JUMPI PUSH4 0x4E487B71 PUSH1 0xE0 SHL PUSH1 0x0 MSTORE PUSH1 0x32 PUSH1 0x4 MSTORE PUSH1 0x24 PUSH1 0x0 REVERT JUMPDEST PUSH1 0x20 MUL PUSH1 0x20 ADD ADD MLOAD PUSH1 0x20 DUP2 GT ISZERO PUSH2 0x4DB JUMPI PUSH4 0x4E487B71 PUSH1 0xE0 SHL PUSH1 0x0 MSTORE PUSH1 0x21 PUSH1 0x4 MSTORE PUSH1 0x24 PUSH1 0x0 REVERT JUMPDEST PUSH1 0x20 DUP2 GT ISZERO PUSH2 0x4FA JUMPI PUSH4 0x4E487B71 PUSH1 0xE0 SHL PUSH1 0x0 MSTORE PUSH1 0x21 PUSH1 0x4 MSTORE PUSH1 0x24 PUSH1 0x0 REVERT JUMPDEST DUP2 MSTORE PUSH1 0x20 ADD DUP3 PUSH1 0x1 DUP2 MLOAD DUP2 LT PUSH2 0x520 JUMPI PUSH4 0x4E487B71 PUSH1 0xE0 SHL PUSH1 0x0 MSTORE PUSH1 0x32 PUSH1 0x4 MSTORE PUSH1 0x24 PUSH1 0x0 REVERT JUMPDEST PUSH1 0x20 MUL PUSH1 0x20 ADD ADD MLOAD PUSH1 0xA DUP2 GT ISZERO PUSH2 0x547 JUMPI PUSH4 0x4E487B71 PUSH1 0xE0 SHL PUSH1 0x0 MSTORE PUSH1 0x21 PUSH1 0x4 MSTORE PUSH1 0x24 PUSH1 0x0 REVERT JUMPDEST PUSH1 0xA DUP2 GT ISZERO PUSH2 0x566 JUMPI PUSH4 0x4E487B71 PUSH1 0xE0 SHL PUSH1 0x0 MSTORE PUSH1 0x21 PUSH1 0x4 MSTORE PUSH1 0x24 PUSH1 0x0 REVERT JUMPDEST DUP2 MSTORE PUSH1 0x20 ADD DUP3 PUSH1 0x2 DUP2 MLOAD DUP2 LT PUSH2 0x58C JUMPI PUSH4 0x4E487B71 PUSH1 0xE0 SHL PUSH1 0x0 MSTORE PUSH1 0x32 PUSH1 0x4 MSTORE PUSH1 0x24 PUSH1 0x0 REVERT JUMPDEST PUSH1 0x20 MUL PUSH1 0x20 ADD ADD MLOAD PUSH1 0xE DUP2 GT ISZERO PUSH2 0x5B3 JUMPI PUSH4 0x4E487B71 PUSH1 0xE0 SHL PUSH1 0x0 MSTORE PUSH1 0x21 PUSH1 0x4 MSTORE PUSH1 0x24 PUSH1 0x0 REVERT JUMPDEST PUSH1 0xE DUP2 GT ISZERO PUSH2 0x5D2 JUMPI PUSH4 0x4E487B71 PUSH1 0xE0 SHL PUSH1 0x0 MSTORE PUSH1 0x21 PUSH1 0x4 MSTORE PUSH1 0x24 PUSH1 0x0 REVERT JUMPDEST DUP2 MSTORE PUSH1 0x20 ADD DUP3 PUSH1 0x3 DUP2 MLOAD DUP2 LT PUSH2 0x5F8 JUMPI PUSH4 0x4E487B71 PUSH1 0xE0 SHL PUSH1 0x0 MSTORE PUSH1 0x32 PUSH1 0x4 MSTORE PUSH1 0x24 PUSH1 0x0 REVERT JUMPDEST PUSH1 0x20 MUL PUSH1 0x20 ADD ADD MLOAD PUSH1 0x8 DUP2 GT ISZERO PUSH2 0x61F JUMPI PUSH4 0x4E487B71 PUSH1 0xE0 SHL PUSH1 0x0 MSTORE PUSH1 0x21 PUSH1 0x4 MSTORE PUSH1 0x24 PUSH1 0x0 REVERT JUMPDEST PUSH1 0x8 DUP2 GT ISZERO PUSH2 0x63E JUMPI PUSH4 0x4E487B71 PUSH1 0xE0 SHL PUSH1 0x0 MSTORE PUSH1 0x21 PUSH1 0x4 MSTORE PUSH1 0x24 PUSH1 0x0 REVERT JUMPDEST DUP2 MSTORE PUSH1 0x20 ADD DUP3 PUSH1 0x4 DUP2 MLOAD DUP2 LT PUSH2 0x664 JUMPI PUSH4 0x4E487B71 PUSH1 0xE0 SHL PUSH1 0x0 MSTORE PUSH1 0x32 PUSH1 0x4 MSTORE PUSH1 0x24 PUSH1 0x0 REVERT JUMPDEST PUSH1 0x20 MUL PUSH1 0x20 ADD ADD MLOAD PUSH1 0x13 DUP2 GT ISZERO PUSH2 0x68B JUMPI PUSH4 0x4E487B71 PUSH1 0xE0 SHL PUSH1 0x0 MSTORE PUSH1 0x21 PUSH1 0x4 MSTORE PUSH1 0x24 PUSH1 0x0 REVERT JUMPDEST PUSH1 0x13 DUP2 GT ISZERO PUSH2 0x6AA JUMPI PUSH4 0x4E487B71 PUSH1 0xE0 SHL PUSH1 0x0 MSTORE PUSH1 0x21 PUSH1 0x4 MSTORE PUSH1 0x24 PUSH1 0x0 REVERT JUMPDEST DUP2 MSTORE PUSH1 0x20 ADD DUP3 PUSH1 0x5 DUP2 MLOAD DUP2 LT PUSH2 0x6D0 JUMPI PUSH4 0x4E487B71 PUSH1 0xE0 SHL PUSH1 0x0 MSTORE PUSH1 0x32 PUSH1 0x4 MSTORE PUSH1 0x24 PUSH1 0x0 REVERT JUMPDEST PUSH1 0x20 MUL PUSH1 0x20 ADD ADD MLOAD PUSH1 0x14 DUP2 GT ISZERO PUSH2 0x6F7 JUMPI PUSH4 0x4E487B71 PUSH1 0xE0 SHL PUSH1 0x0 MSTORE PUSH1 0x21 PUSH1 0x4 MSTORE PUSH1 0x24 PUSH1 0x0 REVERT JUMPDEST PUSH1 0x14 DUP2 GT ISZERO PUSH2 0x716 JUMPI PUSH4 0x4E487B71 PUSH1 0xE0 SHL PUSH1 0x0 MSTORE PUSH1 0x21 PUSH1 0x4 MSTORE PUSH1 0x24 PUSH1 0x0 REVERT JUMPDEST DUP2 MSTORE PUSH1 0x20 ADD DUP3 PUSH1 0x6 DUP2 MLOAD DUP2 LT PUSH2 0x73C JUMPI PUSH4 0x4E487B71 PUSH1 0xE0 SHL PUSH1 0x0 MSTORE PUSH1 0x32 PUSH1 0x4 MSTORE PUSH1 0x24 PUSH1 0x0 REVERT JUMPDEST PUSH1 0x20 MUL PUSH1 0x20 ADD ADD MLOAD PUSH1 0x13 DUP2 GT ISZERO PUSH2 0x763 JUMPI PUSH4 0x4E487B71 PUSH1 0xE0 SHL PUSH1 0x0 MSTORE PUSH1 0x21 PUSH1 0x4 MSTORE PUSH1 0x24 PUSH1 0x0 REVERT JUMPDEST PUSH1 0x13 DUP2 GT ISZERO PUSH2 0x782 JUMPI PUSH4 0x4E487B71 PUSH1 0xE0 SHL PUSH1 0x0 MSTORE PUSH1 0x21 PUSH1 0x4 MSTORE PUSH1 0x24 PUSH1 0x0 REVERT JUMPDEST DUP2 MSTORE PUSH1 0x20 ADD DUP3 PUSH1 0x7 DUP2 MLOAD DUP2 LT PUSH2 0x7A8 JUMPI PUSH4 0x4E487B71 PUSH1 0xE0 SHL PUSH1 0x0 MSTORE PUSH1 0x32 PUSH1 0x4 MSTORE PUSH1 0x24 PUSH1 0x0 REVERT JUMPDEST PUSH1 0x20 MUL PUSH1 0x20 ADD ADD MLOAD PUSH1 0x14 DUP2 GT ISZERO PUSH2 0x7CF JUMPI PUSH4 0x4E487B71 PUSH1 0xE0 SHL PUSH1 0x0 MSTORE PUSH1 0x21 PUSH1 0x4 MSTORE PUSH1 0x24 PUSH1 0x0 REVERT JUMPDEST PUSH1 0x14 DUP2 GT ISZERO PUSH2 0x7EE JUMPI PUSH4 0x4E487B71 PUSH1 0xE0 SHL PUSH1 0x0 MSTORE PUSH1 0x21 PUSH1 0x4 MSTORE PUSH1 0x24 PUSH1 0x0 REVERT JUMPDEST DUP2 MSTORE PUSH1 0x20 ADD DUP3 PUSH1 0x8 DUP2 MLOAD DUP2 LT PUSH2 0x814 JUMPI PUSH4 0x4E487B71 PUSH1 0xE0 SHL PUSH1 0x0 MSTORE PUSH1 0x32 PUSH1 0x4 MSTORE PUSH1 0x24 PUSH1 0x0 REVERT JUMPDEST PUSH1 0x20 MUL PUSH1 0x20 ADD ADD MLOAD PUSH1 0x14 DUP2 GT ISZERO PUSH2 0x83B JUMPI PUSH4 0x4E487B71 PUSH1 0xE0 SHL PUSH1 0x0 MSTORE PUSH1 0x21 PUSH1 0x4 MSTORE PUSH1 0x24 PUSH1 0x0 REVERT JUMPDEST PUSH1 0x14 DUP2 GT ISZERO PUSH2 0x85A JUMPI PUSH4 0x4E487B71 PUSH1 0xE0 SHL PUSH1 0x0 MSTORE PUSH1 0x21 PUSH1 0x4 MSTORE PUSH1 0x24 PUSH1 0x0 REVERT JUMPDEST DUP2 MSTORE PUSH1 0x20 ADD DUP3 PUSH1 0x9 DUP2 MLOAD DUP2 LT PUSH2 0x880 JUMPI PUSH4 0x4E487B71 PUSH1 0xE0 SHL PUSH1 0x0 MSTORE PUSH1 0x32 PUSH1 0x4 MSTORE PUSH1 0x24 PUSH1 0x0 REVERT JUMPDEST PUSH1 0x20 MUL PUSH1 0x20 ADD ADD MLOAD PUSH1 0x14 DUP2 GT ISZERO PUSH2 0x8A7 JUMPI PUSH4 0x4E487B71 PUSH1 0xE0 SHL PUSH1 0x0 MSTORE PUSH1 0x21 PUSH1 0x4 MSTORE PUSH1 0x24 PUSH1 0x0 REVERT JUMPDEST PUSH1 0x14 DUP2 GT ISZERO PUSH2 0x8C6 JUMPI PUSH4 0x4E487B71 PUSH1 0xE0 SHL PUSH1 0x0 MSTORE PUSH1 0x21 PUSH1 0x4 MSTORE PUSH1 0x24 PUSH1 0x0 REVERT JUMPDEST DUP2 MSTORE PUSH1 0x20 ADD DUP3 PUSH1 0xA DUP2 MLOAD DUP2 LT PUSH2 0x8EC JUMPI PUSH4 0x4E487B71 PUSH1 0xE0 SHL PUSH1 0x0 MSTORE PUSH1 0x32 PUSH1 0x4 MSTORE PUSH1 0x24 PUSH1 0x0 REVERT JUMPDEST PUSH1 0x20 MUL PUSH1 0x20 ADD ADD MLOAD PUSH1 0x14 DUP2 GT ISZERO PUSH2 0x913 JUMPI PUSH4 0x4E487B71 PUSH1 0xE0 SHL PUSH1 0x0 MSTORE PUSH1 0x21 PUSH1 0x4 MSTORE PUSH1 0x24 PUSH1 0x0 REVERT JUMPDEST PUSH1 0x14 DUP2 GT ISZERO PUSH2 0x932 JUMPI PUSH4 0x4E487B71 PUSH1 0xE0 SHL PUSH1 0x0 MSTORE PUSH1 0x21 PUSH1 0x4 MSTORE PUSH1 0x24 PUSH1 0x0 REVERT JUMPDEST SWAP1 MSTORE SWAP5 SWAP4 POP POP POP POP JUMP JUMPDEST PUSH1 0x0 DUP1 DUP4 DUP4 PUSH1 0x40 MLOAD PUSH1 0x20 ADD PUSH2 0x95B SWAP3 SWAP2 SWAP1 SWAP2 DUP3 MSTORE PUSH1 0x20 DUP3 ADD MSTORE PUSH1 0x40 ADD SWAP1 JUMP JUMPDEST PUSH1 0x40 MLOAD PUSH1 0x20 DUP2 DUP4 SUB SUB DUP2 MSTORE SWAP1 PUSH1 0x40 MSTORE DUP1 MLOAD SWAP1 PUSH1 0x20 ADD KECCAK256 PUSH1 0x0 SHR SWAP1 POP PUSH1 0x0 SLOAD DUP2 PUSH2 0x984 SWAP2 SWAP1 PUSH2 0xC8E JUMP JUMPDEST SWAP5 SWAP4 POP POP POP POP JUMP JUMPDEST PUSH1 0x0 DUP1 PUSH1 0x40 DUP4 DUP6 SUB SLT ISZERO PUSH2 0x99E JUMPI DUP2 DUP3 REVERT JUMPDEST DUP3 CALLDATALOAD PUSH8 0xFFFFFFFFFFFFFFFF DUP1 DUP3 GT ISZERO PUSH2 0x9B5 JUMPI DUP4 DUP5 REVERT JUMPDEST DUP2 DUP6 ADD SWAP2 POP DUP6 PUSH1 0x1F DUP4 ADD SLT PUSH2 0x9C8 JUMPI DUP4 DUP5 REVERT JUMPDEST DUP2 CALLDATALOAD PUSH1 0x20 DUP3 DUP3 GT ISZERO PUSH2 0x9DC JUMPI PUSH2 0x9DC PUSH2 0xCDA JUMP JUMPDEST DUP2 PUSH1 0x5 SHL PUSH1 0x40 MLOAD PUSH1 0x1F NOT PUSH1 0x3F DUP4 ADD AND DUP2 ADD DUP2 DUP2 LT DUP7 DUP3 GT OR ISZERO PUSH2 0xA01 JUMPI PUSH2 0xA01 PUSH2 0xCDA JUMP JUMPDEST PUSH1 0x40 MSTORE DUP4 DUP2 MSTORE DUP3 DUP2 ADD SWAP5 POP DUP6 DUP4 ADD DUP3 DUP8 ADD DUP5 ADD DUP12 LT ISZERO PUSH2 0xA1F JUMPI DUP9 DUP10 REVERT JUMPDEST DUP9 SWAP7 POP JUMPDEST DUP5 DUP8 LT ISZERO PUSH2 0xA41 JUMPI DUP1 CALLDATALOAD DUP7 MSTORE PUSH1 0x1 SWAP7 SWAP1 SWAP7 ADD SWAP6 SWAP5 DUP4 ADD SWAP5 DUP4 ADD PUSH2 0xA23 JUMP JUMPDEST POP SWAP10 SWAP8 SWAP1 SWAP2 ADD CALLDATALOAD SWAP8 POP POP POP POP POP POP POP JUMP JUMPDEST PUSH1 0x0 PUSH1 0x20 DUP3 DUP5 SUB SLT ISZERO PUSH2 0xA63 JUMPI DUP1 DUP2 REVERT JUMPDEST POP CALLDATALOAD SWAP2 SWAP1 POP JUMP JUMPDEST PUSH1 0x0 DUP1 PUSH1 0x40 DUP4 DUP6 SUB SLT ISZERO PUSH2 0xA7C JUMPI DUP2 DUP3 REVERT JUMPDEST POP POP DUP1 CALLDATALOAD SWAP3 PUSH1 0x20 SWAP1 SWAP2 ADD CALLDATALOAD SWAP2 POP JUMP JUMPDEST PUSH1 0x21 DUP2 LT PUSH2 0xA9B JUMPI PUSH2 0xA9B PUSH2 0xCC4 JUMP JUMPDEST SWAP1 MSTORE JUMP JUMPDEST PUSH1 0x15 DUP2 LT PUSH2 0xA9B JUMPI PUSH2 0xA9B PUSH2 0xCC4 JUMP JUMPDEST PUSH1 0xF DUP2 LT PUSH2 0xA9B JUMPI PUSH2 0xA9B PUSH2 0xCC4 JUMP JUMPDEST PUSH1 0x9 DUP2 LT PUSH2 0xA9B JUMPI PUSH2 0xA9B PUSH2 0xCC4 JUMP JUMPDEST PUSH1 0xB DUP2 LT PUSH2 0xA9B JUMPI PUSH2 0xA9B PUSH2 0xCC4 JUMP JUMPDEST PUSH1 0x14 DUP2 LT PUSH2 0xA9B JUMPI PUSH2 0xA9B PUSH2 0xCC4 JUMP JUMPDEST PUSH1 0x0 PUSH1 0x20 DUP1 DUP4 MSTORE DUP4 MLOAD DUP1 DUP3 DUP6 ADD MSTORE DUP3 JUMPDEST DUP2 DUP2 LT ISZERO PUSH2 0xB1B JUMPI DUP6 DUP2 ADD DUP4 ADD MLOAD DUP6 DUP3 ADD PUSH1 0x40 ADD MSTORE DUP3 ADD PUSH2 0xAFF JUMP JUMPDEST DUP2 DUP2 GT ISZERO PUSH2 0xB2C JUMPI DUP4 PUSH1 0x40 DUP4 DUP8 ADD ADD MSTORE JUMPDEST POP PUSH1 0x1F ADD PUSH1 0x1F NOT AND SWAP3 SWAP1 SWAP3 ADD PUSH1 0x40 ADD SWAP4 SWAP3 POP POP POP JUMP JUMPDEST PUSH1 0x0 PUSH2 0x160 DUP3 ADD SWAP1 POP PUSH2 0xB56 DUP3 DUP5 MLOAD PUSH2 0xA8B JUMP JUMPDEST PUSH1 0x20 DUP4 ADD MLOAD PUSH2 0xB68 PUSH1 0x20 DUP5 ADD DUP3 PUSH2 0xACF JUMP JUMPDEST POP PUSH1 0x40 DUP4 ADD MLOAD PUSH2 0xB7B PUSH1 0x40 DUP5 ADD DUP3 PUSH2 0xAAF JUMP JUMPDEST POP PUSH1 0x60 DUP4 ADD MLOAD PUSH2 0xB8E PUSH1 0x60 DUP5 ADD DUP3 PUSH2 0xABF JUMP JUMPDEST POP PUSH1 0x80 DUP4 ADD MLOAD PUSH2 0xBA1 PUSH1 0x80 DUP5 ADD DUP3 PUSH2 0xADF JUMP JUMPDEST POP PUSH1 0xA0 DUP4 ADD MLOAD PUSH2 0xBB4 PUSH1 0xA0 DUP5 ADD DUP3 PUSH2 0xA9F JUMP JUMPDEST POP PUSH1 0xC0 DUP4 ADD MLOAD PUSH2 0xBC7 PUSH1 0xC0 DUP5 ADD DUP3 PUSH2 0xADF JUMP JUMPDEST POP PUSH1 0xE0 DUP4 ADD MLOAD PUSH2 0xBDA PUSH1 0xE0 DUP5 ADD DUP3 PUSH2 0xA9F JUMP JUMPDEST POP PUSH2 0x100 DUP1 DUP5 ADD MLOAD PUSH2 0xBEE DUP3 DUP6 ADD DUP3 PUSH2 0xA9F JUMP JUMPDEST POP POP PUSH2 0x120 DUP1 DUP5 ADD MLOAD PUSH2 0xC03 DUP3 DUP6 ADD DUP3 PUSH2 0xA9F JUMP JUMPDEST POP POP PUSH2 0x140 DUP1 DUP5 ADD MLOAD PUSH2 0xC18 DUP3 DUP6 ADD DUP3 PUSH2 0xA9F JUMP JUMPDEST POP POP SWAP3 SWAP2 POP POP JUMP JUMPDEST PUSH1 0x0 DUP3 NOT DUP3 GT ISZERO PUSH2 0xC33 JUMPI PUSH2 0xC33 PUSH2 0xCAE JUMP JUMPDEST POP ADD SWAP1 JUMP JUMPDEST PUSH1 0x1 DUP2 DUP2 SHR SWAP1 DUP3 AND DUP1 PUSH2 0xC4C JUMPI PUSH1 0x7F DUP3 AND SWAP2 POP JUMPDEST PUSH1 0x20 DUP3 LT DUP2 EQ ISZERO PUSH2 0xC6D JUMPI PUSH4 0x4E487B71 PUSH1 0xE0 SHL PUSH1 0x0 MSTORE PUSH1 0x22 PUSH1 0x4 MSTORE PUSH1 0x24 PUSH1 0x0 REVERT JUMPDEST POP SWAP2 SWAP1 POP JUMP JUMPDEST PUSH1 0x0 PUSH1 0x0 NOT DUP3 EQ ISZERO PUSH2 0xC87 JUMPI PUSH2 0xC87 PUSH2 0xCAE JUMP JUMPDEST POP PUSH1 0x1 ADD SWAP1 JUMP JUMPDEST PUSH1 0x0 DUP3 PUSH2 0xCA9 JUMPI PUSH4 0x4E487B71 PUSH1 0xE0 SHL DUP2 MSTORE PUSH1 0x12 PUSH1 0x4 MSTORE PUSH1 0x24 DUP2 REVERT JUMPDEST POP MOD SWAP1 JUMP JUMPDEST PUSH4 0x4E487B71 PUSH1 0xE0 SHL PUSH1 0x0 MSTORE PUSH1 0x11 PUSH1 0x4 MSTORE PUSH1 0x24 PUSH1 0x0 REVERT JUMPDEST PUSH4 0x4E487B71 PUSH1 0xE0 SHL PUSH1 0x0 MSTORE PUSH1 0x21 PUSH1 0x4 MSTORE PUSH1 0x24 PUSH1 0x0 REVERT JUMPDEST PUSH4 0x4E487B71 PUSH1 0xE0 SHL PUSH1 0x0 MSTORE PUSH1 0x41 PUSH1 0x4 MSTORE PUSH1 0x24 PUSH1 0x0 REVERT INVALID LOG2 PUSH5 0x6970667358 0x22 SLT KECCAK256 DUP7 0xA7 0xDB EQ STOP 0xD1 0xD1 ADDRESS BLOCKHASH 0xC0 MOD BYTE 0xC PUSH10 0x11556DFDE32A2E37A94 PUSH15 0x74B296D3FBA46B64736F6C63430008 SUB STOP CALLER ","sha1":"abaa53dd0f1903854e255c7fc26edad3cd8a88dd","source":"// SPDX-License-Identifier: MIT\n/** \n██████╗ ███████╗████████╗██████╗  ██████╗      ██████╗ █████╗ ████████╗███████╗    \n██╔══██╗██╔════╝╚══██╔══╝██╔══██╗██╔═══██╗    ██╔════╝██╔══██╗╚══██╔══╝██╔════╝    \n██████╔╝█████╗     ██║   ██████╔╝██║   ██║    ██║     ███████║   ██║   ███████╗    \n██╔══██╗██╔══╝     ██║   ██╔══██╗██║   ██║    ██║     ██╔══██║   ██║   ╚════██║    \n██║  ██║███████╗   ██║   ██║  ██║╚██████╔╝    ╚██████╗██║  ██║   ██║   ███████║    \n╚═╝  ╚═╝╚══════╝   ╚═╝   ╚═╝  ╚═╝ ╚═════╝      ╚═════╝╚═╝  ╚═╝   ╚═╝   ╚══════╝    \n                                                                                   \n███╗   ███╗███████╗████████╗ █████╗ ██████╗  █████╗ ████████╗ █████╗               \n████╗ ████║██╔════╝╚══██╔══╝██╔══██╗██╔══██╗██╔══██╗╚══██╔══╝██╔══██╗              \n██╔████╔██║█████╗     ██║   ███████║██║  ██║███████║   ██║   ███████║              \n██║╚██╔╝██║██╔══╝     ██║   ██╔══██║██║  ██║██╔══██║   ██║   ██╔══██║              \n██║ ╚═╝ ██║███████╗   ██║   ██║  ██║██████╔╝██║  ██║   ██║   ██║  ██║              \n╚═╝     ╚═╝╚══════╝   ╚═╝   ╚═╝  ╚═╝╚═════╝ ╚═╝  ╚═╝   ╚═╝   ╚═╝  ╚═╝              \n                                                                          \n<<https://github.com/retro-cats/retro-cats-contracts>>\n\n*/\npragma solidity 0.8.3;\n/*\n* @title Our contract for describing what a cat looks like.\n* @dev This contract has almost 0 functionality, except for rngToCat\n* which is used to \"say\" what the random number (the DNA) \n* of a cat would result in for a cat\n*/\ncontract RetroCatsMetadata {\n    uint256 internal s_maxChanceValue = 10000;\n    struct RetroCat {\n        Background background;\n        Frame frame;\n        Breed breed;\n        Eyes eyes;\n        Hair hair;\n        Bling bling;\n        Head head;\n        Item item;\n        Ring ring;\n        Earring earring;\n        Vice vice; \n    }\n    /**\n    * @dev Percentages for each trait\n    * @dev each row will always end with 10000\n    * When picking a trait based on RNG, we will get a value between 0 - 99999\n    * We choose the trait based on the sum of the integers up to the index\n    * For example, if my random number is 251, and my array is [250, 200, 10000]\n    *      This means my trait is at the 1st index. 251 is higher than 250, but lower than\n    *      250 + 200\n    */\n\n    uint256 internal s_totalTraits = 11;\n    enum Background{Black, Blue, Green, Grey, Orange, Pink, Purple, Red, Yellow, LightBlue, LightGreen, LightPink, LightYellow, D1B, D1O, D1P, D1Y, D2B, D2O, D2P, D2Y, D3B, D3O, D3P, D3Y, D4B, D4O, D4P, D4Y, D5B, D5O, D5P, D5Y}\n    uint256[] internal S_BACKGROUND_METADATA = [500, 1100, 600, 1000, 900, 1400, 700, 2000, 800, 400, 270, 30, 100, 1, 6, 11, 16, 2, 7, 12, 17, 3, 8, 13, 18, 4, 9, 14, 19, 5, 10, 15, 10, s_maxChanceValue];\n    enum Frame{Black, Brass, Browne, Glit, Gold, Leather, Pine, Silver, White, Wood, None}\n    uint256[] internal S_FRAME_METADATA = [250, 150, 300, 200, 40, 10, 80, 70, 400, 100, 8400, s_maxChanceValue];\n    enum Breed{Bengal, Calico, Chimera, HighColor, Mitted, Solid, Tabby, Tortie, Tuxedo, Van, Cloud, Lightning, Mister, Spotty, Tiger}\n    uint256[] internal S_BREED_METADATA = [90, 600, 75, 400, 900, 2700, 2100, 155, 2600, 280, 35, 1, 5, 50, 9, s_maxChanceValue];\n    enum Eyes{BlueOpen, BlueWink, Closed, GreenOpen, GreenWink, OrangeOpen, OrangeWink, YellowOpen, YellowWink}\n    uint256[] internal S_EYES_METADATA = [1200, 10, 2000, 1400, 90, 1800, 1000, 1600, 900, s_maxChanceValue];    \n    enum Hair{ Braid, Dreads, Fro, LongFlipped, LongStraight, Mullet, Muttonchops, Pageboy, ShortFlipped, None, BrownShag, GingerBangs, GingerShag, LongRocker, Pigtails, PunkSpikes, StackedPerm, TinyBraids, TVMom, Wedge }\n    uint256[] internal S_HAIR_METADATA = [600, 4, 1000, 1200, 1200, 1, 500, 300, 700, 1600, 400, 450, 5, 7, 80, 3, 650, 350, 750, 200, s_maxChanceValue];\n    enum Bling{BlueNeckscarf, CopperBracelet, DiscoChest, HandlebarMustache, LongMustache, LoveBeads, MoonNecklaces, PeaceNecklace, PearlNecklace, PukaShellNecklace, CollarCuffs, FeatherBoa, CameoChoker, Woodenbeads, GoldFringe, TurquoiseNecklace, OrangeBoa, CoralNecklace, SilverFringe, SilverMoon, SunnyBeads}\n    uint256[] internal S_BLING_METADATA = [1100, 200, 800, 500, 200, 700, 1400, 400, 800, 600, 1200, 40, 2, 350, 250, 450, 5, 50, 300, 650, 3, s_maxChanceValue];\n    enum Head{AviatorGlasses, Daisy, Eyepatch, Headband, Headscarf, HeartGlasses, NewsboyCap, RoundGlasses, SquareGlasses, TopHat, BraidedHeadband, DaisyHeadband, DiscoHat, GoldTBand, GrandmaGlasses, GrandpaGlasses, GreenGlasses, RainbowScarf, RedBeret, TinselWig}\n    uint256[] internal S_HEAD_METADATA = [1200, 1100, 1, 1300, 600, 300, 1000, 400, 350, 900, 250, 60, 4, 300, 550, 500, 30, 950, 200, 5, s_maxChanceValue];\n    enum Item{Atari, Disco, Ether, FlooyDisc, Houseplants, LandscapePainting, LavaLamp, PalmSurboard, Record, RedGuitar, TennisRacket, NerfFootball, Skateboard, Personalcomputer, Afghan, Fondue, LawnDarts, Rollerskates, Phone, Bicycle, Chair}\n    uint256[] internal S_ITEM_METADATA = [90, 800, 1, 1400, 1200, 900, 700, 550, 1300, 1000, 6, 400, 600, 200, 50, 60, 150, 250, 40, 300, 3, s_maxChanceValue];\n    enum Ring{Emerald, MoodBlue, MoodGreen, MoodPurple, MoodRed, Onyx, Ruby, Sapphire, Tortoiseshell, Turquoise, ChainRings, StackRings, NoseRing, MensGoldRing, MoonRing, EtherRing, OrbRing, GiantDiamond, TattooCat, TattooFish, TattooBird}\n    uint256[] internal S_RING_METADATA = [400, 1000, 900, 600, 850, 1300, 1200, 800, 500, 700, 250, 200, 150, 200, 500, 60, 350, 30, 1, 6, 3, s_maxChanceValue];\n    enum Earring{Coral, DiamondStuds, GoldBobs, GoldChandelier, GoldHoops, OrangeWhite, RubyStuds, SilverHoops, Tortoiseshell, Turquoise, None, BlueWhite, GreenWhite, SilverChandelier, SapphireStuds, EmeraldStuds, PearlBobs, GoldChains, SilverChains, PinkMod, GoldJellyfish}\n    uint256[] internal S_EARRING_METADATA = [400, 1, 200, 90, 1200, 500, 200, 1000, 300, 600, 3000, 250, 450, 105, 7, 5, 375, 725, 575, 4, 13, s_maxChanceValue];\n    enum Vice{Beer, Bong, Cigarette, Eggplant, JelloSalad, Joint, Mushrooms, PetRock, PurpleBagOfCoke, Whiskey, CheeseBall, ProtestSigns, TequilaSunrise, Grasshopper, PinaColada, QueensofDestructionCar, SPF4, SWPlush, SlideProjector, Tupperware, TigerMagazine}\n    uint256[] internal S_VICE_METADATA = [1000, 420, 1100, 1300, 50, 1200, 1450, 7, 30, 500, 400, 550, 200, 650, 460, 1, 20, 54, 2, 600, 6, s_maxChanceValue];\n\n    uint256[][] public S_TRAIT_ARRAYS = [S_BACKGROUND_METADATA, S_FRAME_METADATA, S_BREED_METADATA, S_EYES_METADATA, S_HAIR_METADATA, S_BLING_METADATA, S_HEAD_METADATA, S_ITEM_METADATA, S_RING_METADATA, S_EARRING_METADATA, S_VICE_METADATA];\n\n    string public purr = \"Meow!\";\n\n    function rngToCat(uint256 randomNumber) public view returns (RetroCat memory retroCat){\n    // function rngToCat(uint256 randomNumber) public view returns (uint256){\n        uint256[][] memory traitArrays = S_TRAIT_ARRAYS;\n        uint256[] memory traitIndexes = new uint256[](s_totalTraits);\n        for (uint i = 0; i < s_totalTraits; i++){\n            uint256 traitIndex = getTraitIndex(traitArrays[i], getModdedRNG(randomNumber, i));\n            traitIndexes[i] = traitIndex;\n        }\n        \n        // retroCat = RetroCat(Background(traitIndexes[0]),Frame(1),Breed(1),Eyes(1),Hair(1),Bling(1),Head(1),Item(1),Ring(1),Earring(1),Vice(1));\n        retroCat = RetroCat({\n            background: Background(traitIndexes[0]),\n            frame: Frame(traitIndexes[1]),\n            breed: Breed(traitIndexes[2]),\n            eyes: Eyes(traitIndexes[3]),\n            hair: Hair(traitIndexes[4]),\n            bling: Bling(traitIndexes[5]),\n            head: Head(traitIndexes[6]),\n            item: Item(traitIndexes[7]),\n            ring: Ring(traitIndexes[8]),\n            earring: Earring(traitIndexes[9]),\n            vice: Vice(traitIndexes[10])\n        });\n    }\n\n    function getModdedRNG(uint256 randomNumber, uint256 seed) public view returns(uint256 modded_rng){\n        uint256 newRng = uint256(keccak256(abi.encode(randomNumber, seed)));\n        modded_rng = newRng % s_maxChanceValue;\n    }\n\n    function getTraitIndex(uint256[] memory traitArray, uint256 moddedRNG) public pure returns(uint256){\n        uint256 cumulativeSum = 0;\n        for(uint i =0; i<traitArray.length; i++){\n            if(moddedRNG >= cumulativeSum && moddedRNG < cumulativeSum + traitArray[i]){\n                return i;\n            }\n            cumulativeSum = cumulativeSum + traitArray[i];\n        }\n        revert(\"Got a value outside of the s_maxChanceValue\");\n    }\n\n    //  function uint2str(\n    //     uint256 _i\n    //     )\n    //     internal\n    //     pure\n    //     returns (string memory str)\n    //     {\n    //     if (_i == 0)\n    //     {\n    //         return \"0\";\n    //     }\n    //     uint256 j = _i;\n    //     uint256 length;\n    //     while (j != 0)\n    //     {\n    //         length++;\n    //         j /= 10;\n    //     }\n    //     bytes memory bstr = new bytes(length);\n    //     uint256 k = length;\n    //     j = _i;\n    //     while (j != 0)\n    //     {\n    //         bstr[--k] = bytes1(uint8(48 + j % 10));\n    //         j /= 10;\n    //     }\n    //     str = string(bstr);\n    // }\n}\n","sourcePath":"contracts/RetroCatsMetadata.sol","type":"contract","deployment":{"address":"0x62070eb1fc9c86BF42E7B9EA8eddA7eeF1106DfA","chainid":"4","blockHeight":9298985}}