{"abi":[{"inputs":[{"internalType":"uint256","name":"randomNumber","type":"uint256"},{"internalType":"uint256","name":"seed","type":"uint256"}],"name":"getModdedRNG","outputs":[{"internalType":"uint256","name":"modded_rng","type":"uint256"}],"stateMutability":"pure","type":"function"},{"inputs":[],"name":"maxChanceValue","outputs":[{"internalType":"uint256","name":"","type":"uint256"}],"stateMutability":"view","type":"function"},{"inputs":[],"name":"purr","outputs":[{"internalType":"string","name":"","type":"string"}],"stateMutability":"view","type":"function"},{"inputs":[{"internalType":"uint256","name":"randomNumber","type":"uint256"}],"name":"rngToCat","outputs":[{"components":[{"internalType":"enum RetroCatsMetadata.Background","name":"background","type":"uint8"},{"internalType":"enum RetroCatsMetadata.Frame","name":"frame","type":"uint8"},{"internalType":"enum RetroCatsMetadata.Breed","name":"breed","type":"uint8"},{"internalType":"enum RetroCatsMetadata.Eyes","name":"eyes","type":"uint8"},{"internalType":"enum RetroCatsMetadata.Hair","name":"hair","type":"uint8"},{"internalType":"enum RetroCatsMetadata.Bling","name":"bling","type":"uint8"},{"internalType":"enum RetroCatsMetadata.Head","name":"head","type":"uint8"},{"internalType":"enum RetroCatsMetadata.Item","name":"item","type":"uint8"},{"internalType":"enum RetroCatsMetadata.Ring","name":"ring","type":"uint8"},{"internalType":"enum RetroCatsMetadata.Earring","name":"earring","type":"uint8"},{"internalType":"enum RetroCatsMetadata.Vice","name":"vice","type":"uint8"}],"internalType":"struct RetroCatsMetadata.RetroCat","name":"retroCat","type":"tuple"}],"stateMutability":"pure","type":"function"},{"inputs":[],"name":"traits","outputs":[{"components":[{"internalType":"uint256[34]","name":"backgrounds","type":"uint256[34]"},{"internalType":"uint256[12]","name":"frames","type":"uint256[12]"},{"internalType":"uint256[16]","name":"breeds","type":"uint256[16]"},{"internalType":"uint256[10]","name":"eyes","type":"uint256[10]"},{"internalType":"uint256[21]","name":"hairs","type":"uint256[21]"},{"internalType":"uint256[22]","name":"blings","type":"uint256[22]"},{"internalType":"uint256[21]","name":"heads","type":"uint256[21]"},{"internalType":"uint256[22]","name":"items","type":"uint256[22]"},{"internalType":"uint256[22]","name":"rings","type":"uint256[22]"},{"internalType":"uint256[22]","name":"earrings","type":"uint256[22]"},{"internalType":"uint256[22]","name":"vices","type":"uint256[22]"}],"internalType":"struct RetroCatsMetadata.TraitMetadata","name":"allTraits","type":"tuple"}],"stateMutability":"pure","type":"function"}],"bytecode":"608060405261271060005534801561001657600080fd5b50611689806100266000396000f3fe608060405234801561001057600080fd5b50600436106100575760003560e01c806354b02b3b1461005c578063be5d23d314610096578063dc90579a146100ad578063dd6902fa146100cd578063e1fc334f146100e0575b600080fd5b610080604051806040016040528060058152602001644d656f772160d81b81525081565b60405161008d91906113be565b60405180910390f35b61009f61271081565b60405190815260200161008d565b6100c06100bb366004611249565b6100f5565b60405161008d9190611411565b61009f6100db366004611261565b6104ec565b6100e8610539565b60405161008d91906114ef565b6100fd61109e565b6000610107610539565b905060405180610160016040528061012d83600001516101288760006104ec565b610c91565b602081111561014c57634e487b7160e01b600052602160045260246000fd5b602081111561016b57634e487b7160e01b600052602160045260246000fd5b815260200161018883602001516101838760016104ec565b610d92565b600a8111156101a757634e487b7160e01b600052602160045260246000fd5b600a8111156101c657634e487b7160e01b600052602160045260246000fd5b81526020016101e383604001516101de8760026104ec565b610e2e565b600e81111561020257634e487b7160e01b600052602160045260246000fd5b600e81111561022157634e487b7160e01b600052602160045260246000fd5b815260200161023e83606001516102398760036104ec565b610eca565b600881111561025d57634e487b7160e01b600052602160045260246000fd5b600881111561027c57634e487b7160e01b600052602160045260246000fd5b815260200161029983608001516102948760046104ec565b610f66565b60138111156102b857634e487b7160e01b600052602160045260246000fd5b60138111156102d757634e487b7160e01b600052602160045260246000fd5b81526020016102f48360a001516102ef8760056104ec565b611002565b601481111561031357634e487b7160e01b600052602160045260246000fd5b601481111561033257634e487b7160e01b600052602160045260246000fd5b815260200161034a8360c001516102948760066104ec565b601381111561036957634e487b7160e01b600052602160045260246000fd5b601381111561038857634e487b7160e01b600052602160045260246000fd5b81526020016103a08360e001516102ef8760076104ec565b60148111156103bf57634e487b7160e01b600052602160045260246000fd5b60148111156103de57634e487b7160e01b600052602160045260246000fd5b81526020016103f78361010001516102ef8760086104ec565b601481111561041657634e487b7160e01b600052602160045260246000fd5b601481111561043557634e487b7160e01b600052602160045260246000fd5b815260200161044e8361012001516102ef8760096104ec565b601481111561046d57634e487b7160e01b600052602160045260246000fd5b601481111561048c57634e487b7160e01b600052602160045260246000fd5b81526020016104a58361014001516102ef87600a6104ec565b60148111156104c457634e487b7160e01b600052602160045260246000fd5b60148111156104e357634e487b7160e01b600052602160045260246000fd5b90529392505050565b600080838360405160200161050b929190918252602082015260400190565b60408051601f198184030181529190528051602090910120905061053161271082611607565b949350505050565b6105416110f9565b6040518061016001604052806040518061044001604052806101f4815260200161044c815260200161025881526020016103e88152602001610384815260200161057881526020016102bc81526020016107d081526020016103208152602001610190815260200161010e8152602001601e8152602001606481526020016001815260200160068152602001600b8152602001601081526020016002815260200160078152602001600c8152602001601181526020016003815260200160088152602001600d8152602001601281526020016004815260200160098152602001600e81526020016013815260200160058152602001600a8152602001600f8152602001600a8152602001612710815250815260200160405180610180016040528060fa81526020016096815260200161012c815260200160c8815260200160288152602001600a815260200160508152602001604681526020016101908152602001606481526020016120d081526020016127108152508152602001604051806102000160405280605a81526020016102588152602001604b815260200161019081526020016103848152602001610a8c81526020016108348152602001609b8152602001610a2881526020016101188152602001602381526020016001815260200160058152602001603281526020016009815260200161271081525081526020016040518061014001604052806104b08152602001600a81526020016107d081526020016105788152602001605a815260200161070881526020016103e88152602001610640815260200161038481526020016127108152508152602001604051806102a001604052806102588152602001600481526020016103e881526020016104b081526020016104b08152602001600181526020016101f4815260200161012c81526020016102bc8152602001610640815260200161019081526020016101c281526020016005815260200160078152602001605081526020016003815260200161028a815260200161015e81526020016102ee815260200160c881526020016127108152508152602001604051806102c0016040528061044c815260200160c8815260200161032081526020016101f4815260200160c881526020016102bc815260200161057881526020016101908152602001610320815260200161025881526020016104b08152602001602881526020016002815260200161015e815260200160fa81526020016101c28152602001600581526020016032815260200161012c815260200161028a8152602001600381526020016127108152508152602001604051806102a001604052806104b0815260200161044c8152602001600181526020016105148152602001610258815260200161012c81526020016103e88152602001610190815260200161015e8152602001610384815260200160fa8152602001603c81526020016004815260200161012c815260200161022681526020016101f48152602001601e81526020016103b6815260200160c88152602001600581526020016127108152508152602001604051806102c00160405280605a815260200161032081526020016001815260200161057881526020016104b0815260200161038481526020016102bc8152602001610226815260200161051481526020016103e88152602001600681526020016101908152602001610258815260200160c8815260200160328152602001603c81526020016096815260200160fa81526020016028815260200161012c8152602001600381526020016127108152508152602001604051806102c0016040528061019081526020016103e8815260200161038481526020016102588152602001610352815260200161051481526020016104b0815260200161032081526020016101f481526020016102bc815260200160fa815260200160c881526020016096815260200160c881526020016101f48152602001603c815260200161015e8152602001601e81526020016001815260200160068152602001600381526020016127108152508152602001604051806102c0016040528061019081526020016001815260200160c88152602001605a81526020016104b081526020016101f4815260200160c881526020016103e8815260200161012c81526020016102588152602001610bb8815260200160fa81526020016101c2815260200160698152602001600781526020016005815260200161017781526020016102d5815260200161023f815260200160048152602001600d81526020016127108152508152602001604051806102c001604052806103e881526020016101a4815260200161044c81526020016105148152602001603281526020016104b081526020016105aa815260200160078152602001601e81526020016101f481526020016101908152602001610226815260200160c8815260200161028a81526020016101cc815260200160018152602001601481526020016036815260200160028152602001610258815260200160068152602001612710815250815250905090565b600080805b6022811015610d2d57818410158015610cdc5750848160228110610cca57634e487b7160e01b600052603260045260246000fd5b6020020151610cd990836115d4565b84105b15610cea579150610d8c9050565b848160228110610d0a57634e487b7160e01b600052603260045260246000fd5b6020020151610d1990836115d4565b915080610d25816115ec565b915050610c96565b5060405162461bcd60e51b815260206004820152602960248201527f476f7420612076616c7565206f757473696465206f6620746865206d61784368604482015268616e636556616c756560b81b606482015260840160405180910390fd5b92915050565b600080805b600c811015610d2d57818410158015610ddd57508481600c8110610dcb57634e487b7160e01b600052603260045260246000fd5b6020020151610dda90836115d4565b84105b15610deb579150610d8c9050565b8481600c8110610e0b57634e487b7160e01b600052603260045260246000fd5b6020020151610e1a90836115d4565b915080610e26816115ec565b915050610d97565b600080805b6010811015610d2d57818410158015610e795750848160108110610e6757634e487b7160e01b600052603260045260246000fd5b6020020151610e7690836115d4565b84105b15610e87579150610d8c9050565b848160108110610ea757634e487b7160e01b600052603260045260246000fd5b6020020151610eb690836115d4565b915080610ec2816115ec565b915050610e33565b600080805b600a811015610d2d57818410158015610f1557508481600a8110610f0357634e487b7160e01b600052603260045260246000fd5b6020020151610f1290836115d4565b84105b15610f23579150610d8c9050565b8481600a8110610f4357634e487b7160e01b600052603260045260246000fd5b6020020151610f5290836115d4565b915080610f5e816115ec565b915050610ecf565b600080805b6015811015610d2d57818410158015610fb15750848160158110610f9f57634e487b7160e01b600052603260045260246000fd5b6020020151610fae90836115d4565b84105b15610fbf579150610d8c9050565b848160158110610fdf57634e487b7160e01b600052603260045260246000fd5b6020020151610fee90836115d4565b915080610ffa816115ec565b915050610f6b565b600080805b6016811015610d2d5781841015801561104d575084816016811061103b57634e487b7160e01b600052603260045260246000fd5b602002015161104a90836115d4565b84105b1561105b579150610d8c9050565b84816016811061107b57634e487b7160e01b600052603260045260246000fd5b602002015161108a90836115d4565b915080611096816115ec565b915050611007565b604080516101608101909152806000815260200160008152602001600081526020016000815260200160008152602001600081526020016000815260200160008152602001600081526020016000815260200160005b905290565b60405180610160016040528061110d61118f565b815260200161111a6111ae565b81526020016111276111cd565b81526020016111346111ec565b815260200161114161120b565b815260200161114e61122a565b815260200161115b61120b565b815260200161116861122a565b815260200161117561122a565b815260200161118261122a565b81526020016110f461122a565b6040518061044001604052806022906020820280368337509192915050565b604051806101800160405280600c906020820280368337509192915050565b6040518061020001604052806010906020820280368337509192915050565b604051806101400160405280600a906020820280368337509192915050565b604051806102a001604052806015906020820280368337509192915050565b604051806102c001604052806016906020820280368337509192915050565b60006020828403121561125a578081fd5b5035919050565b60008060408385031215611273578081fd5b50508035926020909101359150565b8060005b600a8110156112a5578151845260209384019390910190600101611286565b50505050565b8060005b600c8110156112a55781518452602093840193909101906001016112af565b8060005b60108110156112a55781518452602093840193909101906001016112d2565b8060005b60158110156112a55781518452602093840193909101906001016112f5565b8060005b60168110156112a5578151845260209384019390910190600101611318565b8060005b60228110156112a557815184526020938401939091019060010161133b565b6021811061136a5761136a61163d565b9052565b6015811061136a5761136a61163d565b600f811061136a5761136a61163d565b6009811061136a5761136a61163d565b600b811061136a5761136a61163d565b6014811061136a5761136a61163d565b6000602080835283518082850152825b818110156113ea578581018301518582016040015282016113ce565b818111156113fb5783604083870101525b50601f01601f1916929092016040019392505050565b60006101608201905061142582845161135a565b6020830151611437602084018261139e565b50604083015161144a604084018261137e565b50606083015161145d606084018261138e565b50608083015161147060808401826113ae565b5060a083015161148360a084018261136e565b5060c083015161149660c08401826113ae565b5060e08301516114a960e084018261136e565b50610100808401516114bd8285018261136e565b5050610120808401516114d28285018261136e565b5050610140808401516114e78285018261136e565b505092915050565b6000611c0082019050611503828451611337565b60208301516115166104408401826112ab565b50604083015161152a6105c08401826112ce565b50606083015161153e6107c0840182611282565b5060808301516115526109008401826112f1565b5060a0830151611566610ba0840182611314565b5060c083015161157a610e608401826112f1565b5060e083015161158e611100840182611314565b506101008301516115a36113c0840182611314565b506101208301516115b8611680840182611314565b506101408301516115cd611940840182611314565b5092915050565b600082198211156115e7576115e7611627565b500190565b600060001982141561160057611600611627565b5060010190565b60008261162257634e487b7160e01b81526012600452602481fd5b500690565b634e487b7160e01b600052601160045260246000fd5b634e487b7160e01b600052602160045260246000fdfea2646970667358221220d3ce5cf116d192361cd89fd78c7d1a2a2f624ae05273bb4d8c319c7d2b165c3464736f6c63430008030033","bytecodeSha1":"a1d5fe5c3f56eefc31efb519e7700f6ff65b90de","compiler":{"evm_version":"istanbul","optimizer":{"enabled":true,"runs":200},"version":"0.8.3+commit.8d00100c"},"contractName":"RetroCatsMetadata","language":"Solidity","natspec":{"kind":"dev","methods":{"traits()":{"details":"Percentages for each traiteach row will always end with 10000 When picking a trait based on RNG, we will get a value between 0 - 99999 We choose the trait based on the sum of the integers up to the index For example, if my random number is 251, and my array is [250, 200, 10000]      This means my trait is at the 1st index. 251 is higher than 250, but lower than      250 + 200"}},"version":1},"opcodes":"PUSH1 0x80 PUSH1 0x40 MSTORE CALLVALUE DUP1 ISZERO PUSH2 0x10 JUMPI PUSH1 0x0 DUP1 REVERT JUMPDEST POP PUSH1 0x4 CALLDATASIZE LT PUSH2 0x57 JUMPI PUSH1 0x0 CALLDATALOAD PUSH1 0xE0 SHR DUP1 PUSH4 0x54B02B3B EQ PUSH2 0x5C JUMPI DUP1 PUSH4 0xBE5D23D3 EQ PUSH2 0x96 JUMPI DUP1 PUSH4 0xDC90579A EQ PUSH2 0xAD JUMPI DUP1 PUSH4 0xDD6902FA EQ PUSH2 0xCD JUMPI DUP1 PUSH4 0xE1FC334F EQ PUSH2 0xE0 JUMPI JUMPDEST PUSH1 0x0 DUP1 REVERT JUMPDEST PUSH2 0x80 PUSH1 0x40 MLOAD DUP1 PUSH1 0x40 ADD PUSH1 0x40 MSTORE DUP1 PUSH1 0x5 DUP2 MSTORE PUSH1 0x20 ADD PUSH5 0x4D656F7721 PUSH1 0xD8 SHL DUP2 MSTORE POP DUP2 JUMP JUMPDEST PUSH1 0x40 MLOAD PUSH2 0x8D SWAP2 SWAP1 PUSH2 0x13BE JUMP JUMPDEST PUSH1 0x40 MLOAD DUP1 SWAP2 SUB SWAP1 RETURN JUMPDEST PUSH2 0x9F PUSH2 0x2710 DUP2 JUMP JUMPDEST PUSH1 0x40 MLOAD SWAP1 DUP2 MSTORE PUSH1 0x20 ADD PUSH2 0x8D JUMP JUMPDEST PUSH2 0xC0 PUSH2 0xBB CALLDATASIZE PUSH1 0x4 PUSH2 0x1249 JUMP JUMPDEST PUSH2 0xF5 JUMP JUMPDEST PUSH1 0x40 MLOAD PUSH2 0x8D SWAP2 SWAP1 PUSH2 0x1411 JUMP JUMPDEST PUSH2 0x9F PUSH2 0xDB CALLDATASIZE PUSH1 0x4 PUSH2 0x1261 JUMP JUMPDEST PUSH2 0x4EC JUMP JUMPDEST PUSH2 0xE8 PUSH2 0x539 JUMP JUMPDEST PUSH1 0x40 MLOAD PUSH2 0x8D SWAP2 SWAP1 PUSH2 0x14EF JUMP JUMPDEST PUSH2 0xFD PUSH2 0x109E JUMP JUMPDEST PUSH1 0x0 PUSH2 0x107 PUSH2 0x539 JUMP JUMPDEST SWAP1 POP PUSH1 0x40 MLOAD DUP1 PUSH2 0x160 ADD PUSH1 0x40 MSTORE DUP1 PUSH2 0x12D DUP4 PUSH1 0x0 ADD MLOAD PUSH2 0x128 DUP8 PUSH1 0x0 PUSH2 0x4EC JUMP JUMPDEST PUSH2 0xC91 JUMP JUMPDEST PUSH1 0x20 DUP2 GT ISZERO PUSH2 0x14C JUMPI PUSH4 0x4E487B71 PUSH1 0xE0 SHL PUSH1 0x0 MSTORE PUSH1 0x21 PUSH1 0x4 MSTORE PUSH1 0x24 PUSH1 0x0 REVERT JUMPDEST PUSH1 0x20 DUP2 GT ISZERO PUSH2 0x16B JUMPI PUSH4 0x4E487B71 PUSH1 0xE0 SHL PUSH1 0x0 MSTORE PUSH1 0x21 PUSH1 0x4 MSTORE PUSH1 0x24 PUSH1 0x0 REVERT JUMPDEST DUP2 MSTORE PUSH1 0x20 ADD PUSH2 0x188 DUP4 PUSH1 0x20 ADD MLOAD PUSH2 0x183 DUP8 PUSH1 0x1 PUSH2 0x4EC JUMP JUMPDEST PUSH2 0xD92 JUMP JUMPDEST PUSH1 0xA DUP2 GT ISZERO PUSH2 0x1A7 JUMPI PUSH4 0x4E487B71 PUSH1 0xE0 SHL PUSH1 0x0 MSTORE PUSH1 0x21 PUSH1 0x4 MSTORE PUSH1 0x24 PUSH1 0x0 REVERT JUMPDEST PUSH1 0xA DUP2 GT ISZERO PUSH2 0x1C6 JUMPI PUSH4 0x4E487B71 PUSH1 0xE0 SHL PUSH1 0x0 MSTORE PUSH1 0x21 PUSH1 0x4 MSTORE PUSH1 0x24 PUSH1 0x0 REVERT JUMPDEST DUP2 MSTORE PUSH1 0x20 ADD PUSH2 0x1E3 DUP4 PUSH1 0x40 ADD MLOAD PUSH2 0x1DE DUP8 PUSH1 0x2 PUSH2 0x4EC JUMP JUMPDEST PUSH2 0xE2E JUMP JUMPDEST PUSH1 0xE DUP2 GT ISZERO PUSH2 0x202 JUMPI PUSH4 0x4E487B71 PUSH1 0xE0 SHL PUSH1 0x0 MSTORE PUSH1 0x21 PUSH1 0x4 MSTORE PUSH1 0x24 PUSH1 0x0 REVERT JUMPDEST PUSH1 0xE DUP2 GT ISZERO PUSH2 0x221 JUMPI PUSH4 0x4E487B71 PUSH1 0xE0 SHL PUSH1 0x0 MSTORE PUSH1 0x21 PUSH1 0x4 MSTORE PUSH1 0x24 PUSH1 0x0 REVERT JUMPDEST DUP2 MSTORE PUSH1 0x20 ADD PUSH2 0x23E DUP4 PUSH1 0x60 ADD MLOAD PUSH2 0x239 DUP8 PUSH1 0x3 PUSH2 0x4EC JUMP JUMPDEST PUSH2 0xECA JUMP JUMPDEST PUSH1 0x8 DUP2 GT ISZERO PUSH2 0x25D JUMPI PUSH4 0x4E487B71 PUSH1 0xE0 SHL PUSH1 0x0 MSTORE PUSH1 0x21 PUSH1 0x4 MSTORE PUSH1 0x24 PUSH1 0x0 REVERT JUMPDEST PUSH1 0x8 DUP2 GT ISZERO PUSH2 0x27C JUMPI PUSH4 0x4E487B71 PUSH1 0xE0 SHL PUSH1 0x0 MSTORE PUSH1 0x21 PUSH1 0x4 MSTORE PUSH1 0x24 PUSH1 0x0 REVERT JUMPDEST DUP2 MSTORE PUSH1 0x20 ADD PUSH2 0x299 DUP4 PUSH1 0x80 ADD MLOAD PUSH2 0x294 DUP8 PUSH1 0x4 PUSH2 0x4EC JUMP JUMPDEST PUSH2 0xF66 JUMP JUMPDEST PUSH1 0x13 DUP2 GT ISZERO PUSH2 0x2B8 JUMPI PUSH4 0x4E487B71 PUSH1 0xE0 SHL PUSH1 0x0 MSTORE PUSH1 0x21 PUSH1 0x4 MSTORE PUSH1 0x24 PUSH1 0x0 REVERT JUMPDEST PUSH1 0x13 DUP2 GT ISZERO PUSH2 0x2D7 JUMPI PUSH4 0x4E487B71 PUSH1 0xE0 SHL PUSH1 0x0 MSTORE PUSH1 0x21 PUSH1 0x4 MSTORE PUSH1 0x24 PUSH1 0x0 REVERT JUMPDEST DUP2 MSTORE PUSH1 0x20 ADD PUSH2 0x2F4 DUP4 PUSH1 0xA0 ADD MLOAD PUSH2 0x2EF DUP8 PUSH1 0x5 PUSH2 0x4EC JUMP JUMPDEST PUSH2 0x1002 JUMP JUMPDEST PUSH1 0x14 DUP2 GT ISZERO PUSH2 0x313 JUMPI PUSH4 0x4E487B71 PUSH1 0xE0 SHL PUSH1 0x0 MSTORE PUSH1 0x21 PUSH1 0x4 MSTORE PUSH1 0x24 PUSH1 0x0 REVERT JUMPDEST PUSH1 0x14 DUP2 GT ISZERO PUSH2 0x332 JUMPI PUSH4 0x4E487B71 PUSH1 0xE0 SHL PUSH1 0x0 MSTORE PUSH1 0x21 PUSH1 0x4 MSTORE PUSH1 0x24 PUSH1 0x0 REVERT JUMPDEST DUP2 MSTORE PUSH1 0x20 ADD PUSH2 0x34A DUP4 PUSH1 0xC0 ADD MLOAD PUSH2 0x294 DUP8 PUSH1 0x6 PUSH2 0x4EC JUMP JUMPDEST PUSH1 0x13 DUP2 GT ISZERO PUSH2 0x369 JUMPI PUSH4 0x4E487B71 PUSH1 0xE0 SHL PUSH1 0x0 MSTORE PUSH1 0x21 PUSH1 0x4 MSTORE PUSH1 0x24 PUSH1 0x0 REVERT JUMPDEST PUSH1 0x13 DUP2 GT ISZERO PUSH2 0x388 JUMPI PUSH4 0x4E487B71 PUSH1 0xE0 SHL PUSH1 0x0 MSTORE PUSH1 0x21 PUSH1 0x4 MSTORE PUSH1 0x24 PUSH1 0x0 REVERT JUMPDEST DUP2 MSTORE PUSH1 0x20 ADD PUSH2 0x3A0 DUP4 PUSH1 0xE0 ADD MLOAD PUSH2 0x2EF DUP8 PUSH1 0x7 PUSH2 0x4EC JUMP JUMPDEST PUSH1 0x14 DUP2 GT ISZERO PUSH2 0x3BF JUMPI PUSH4 0x4E487B71 PUSH1 0xE0 SHL PUSH1 0x0 MSTORE PUSH1 0x21 PUSH1 0x4 MSTORE PUSH1 0x24 PUSH1 0x0 REVERT JUMPDEST PUSH1 0x14 DUP2 GT ISZERO PUSH2 0x3DE JUMPI PUSH4 0x4E487B71 PUSH1 0xE0 SHL PUSH1 0x0 MSTORE PUSH1 0x21 PUSH1 0x4 MSTORE PUSH1 0x24 PUSH1 0x0 REVERT JUMPDEST DUP2 MSTORE PUSH1 0x20 ADD PUSH2 0x3F7 DUP4 PUSH2 0x100 ADD MLOAD PUSH2 0x2EF DUP8 PUSH1 0x8 PUSH2 0x4EC JUMP JUMPDEST PUSH1 0x14 DUP2 GT ISZERO PUSH2 0x416 JUMPI PUSH4 0x4E487B71 PUSH1 0xE0 SHL PUSH1 0x0 MSTORE PUSH1 0x21 PUSH1 0x4 MSTORE PUSH1 0x24 PUSH1 0x0 REVERT JUMPDEST PUSH1 0x14 DUP2 GT ISZERO PUSH2 0x435 JUMPI PUSH4 0x4E487B71 PUSH1 0xE0 SHL PUSH1 0x0 MSTORE PUSH1 0x21 PUSH1 0x4 MSTORE PUSH1 0x24 PUSH1 0x0 REVERT JUMPDEST DUP2 MSTORE PUSH1 0x20 ADD PUSH2 0x44E DUP4 PUSH2 0x120 ADD MLOAD PUSH2 0x2EF DUP8 PUSH1 0x9 PUSH2 0x4EC JUMP JUMPDEST PUSH1 0x14 DUP2 GT ISZERO PUSH2 0x46D JUMPI PUSH4 0x4E487B71 PUSH1 0xE0 SHL PUSH1 0x0 MSTORE PUSH1 0x21 PUSH1 0x4 MSTORE PUSH1 0x24 PUSH1 0x0 REVERT JUMPDEST PUSH1 0x14 DUP2 GT ISZERO PUSH2 0x48C JUMPI PUSH4 0x4E487B71 PUSH1 0xE0 SHL PUSH1 0x0 MSTORE PUSH1 0x21 PUSH1 0x4 MSTORE PUSH1 0x24 PUSH1 0x0 REVERT JUMPDEST DUP2 MSTORE PUSH1 0x20 ADD PUSH2 0x4A5 DUP4 PUSH2 0x140 ADD MLOAD PUSH2 0x2EF DUP8 PUSH1 0xA PUSH2 0x4EC JUMP JUMPDEST PUSH1 0x14 DUP2 GT ISZERO PUSH2 0x4C4 JUMPI PUSH4 0x4E487B71 PUSH1 0xE0 SHL PUSH1 0x0 MSTORE PUSH1 0x21 PUSH1 0x4 MSTORE PUSH1 0x24 PUSH1 0x0 REVERT JUMPDEST PUSH1 0x14 DUP2 GT ISZERO PUSH2 0x4E3 JUMPI PUSH4 0x4E487B71 PUSH1 0xE0 SHL PUSH1 0x0 MSTORE PUSH1 0x21 PUSH1 0x4 MSTORE PUSH1 0x24 PUSH1 0x0 REVERT JUMPDEST SWAP1 MSTORE SWAP4 SWAP3 POP POP POP JUMP JUMPDEST PUSH1 0x0 DUP1 DUP4 DUP4 PUSH1 0x40 MLOAD PUSH1 0x20 ADD PUSH2 0x50B SWAP3 SWAP2 SWAP1 SWAP2 DUP3 MSTORE PUSH1 0x20 DUP3 ADD MSTORE PUSH1 0x40 ADD SWAP1 JUMP JUMPDEST PUSH1 0x40 DUP1 MLOAD PUSH1 0x1F NOT DUP2 DUP5 SUB ADD DUP2 MSTORE SWAP2 SWAP1 MSTORE DUP1 MLOAD PUSH1 0x20 SWAP1 SWAP2 ADD KECCAK256 SWAP1 POP PUSH2 0x531 PUSH2 0x2710 DUP3 PUSH2 0x1607 JUMP JUMPDEST SWAP5 SWAP4 POP POP POP POP JUMP JUMPDEST PUSH2 0x541 PUSH2 0x10F9 JUMP JUMPDEST PUSH1 0x40 MLOAD DUP1 PUSH2 0x160 ADD PUSH1 0x40 MSTORE DUP1 PUSH1 0x40 MLOAD DUP1 PUSH2 0x440 ADD PUSH1 0x40 MSTORE DUP1 PUSH2 0x1F4 DUP2 MSTORE PUSH1 0x20 ADD PUSH2 0x44C DUP2 MSTORE PUSH1 0x20 ADD PUSH2 0x258 DUP2 MSTORE PUSH1 0x20 ADD PUSH2 0x3E8 DUP2 MSTORE PUSH1 0x20 ADD PUSH2 0x384 DUP2 MSTORE PUSH1 0x20 ADD PUSH2 0x578 DUP2 MSTORE PUSH1 0x20 ADD PUSH2 0x2BC DUP2 MSTORE PUSH1 0x20 ADD PUSH2 0x7D0 DUP2 MSTORE PUSH1 0x20 ADD PUSH2 0x320 DUP2 MSTORE PUSH1 0x20 ADD PUSH2 0x190 DUP2 MSTORE PUSH1 0x20 ADD PUSH2 0x10E DUP2 MSTORE PUSH1 0x20 ADD PUSH1 0x1E DUP2 MSTORE PUSH1 0x20 ADD PUSH1 0x64 DUP2 MSTORE PUSH1 0x20 ADD PUSH1 0x1 DUP2 MSTORE PUSH1 0x20 ADD PUSH1 0x6 DUP2 MSTORE PUSH1 0x20 ADD PUSH1 0xB DUP2 MSTORE PUSH1 0x20 ADD PUSH1 0x10 DUP2 MSTORE PUSH1 0x20 ADD PUSH1 0x2 DUP2 MSTORE PUSH1 0x20 ADD PUSH1 0x7 DUP2 MSTORE PUSH1 0x20 ADD PUSH1 0xC DUP2 MSTORE PUSH1 0x20 ADD PUSH1 0x11 DUP2 MSTORE PUSH1 0x20 ADD PUSH1 0x3 DUP2 MSTORE PUSH1 0x20 ADD PUSH1 0x8 DUP2 MSTORE PUSH1 0x20 ADD PUSH1 0xD DUP2 MSTORE PUSH1 0x20 ADD PUSH1 0x12 DUP2 MSTORE PUSH1 0x20 ADD PUSH1 0x4 DUP2 MSTORE PUSH1 0x20 ADD PUSH1 0x9 DUP2 MSTORE PUSH1 0x20 ADD PUSH1 0xE DUP2 MSTORE PUSH1 0x20 ADD PUSH1 0x13 DUP2 MSTORE PUSH1 0x20 ADD PUSH1 0x5 DUP2 MSTORE PUSH1 0x20 ADD PUSH1 0xA DUP2 MSTORE PUSH1 0x20 ADD PUSH1 0xF DUP2 MSTORE PUSH1 0x20 ADD PUSH1 0xA DUP2 MSTORE PUSH1 0x20 ADD PUSH2 0x2710 DUP2 MSTORE POP DUP2 MSTORE PUSH1 0x20 ADD PUSH1 0x40 MLOAD DUP1 PUSH2 0x180 ADD PUSH1 0x40 MSTORE DUP1 PUSH1 0xFA DUP2 MSTORE PUSH1 0x20 ADD PUSH1 0x96 DUP2 MSTORE PUSH1 0x20 ADD PUSH2 0x12C DUP2 MSTORE PUSH1 0x20 ADD PUSH1 0xC8 DUP2 MSTORE PUSH1 0x20 ADD PUSH1 0x28 DUP2 MSTORE PUSH1 0x20 ADD PUSH1 0xA DUP2 MSTORE PUSH1 0x20 ADD PUSH1 0x50 DUP2 MSTORE PUSH1 0x20 ADD PUSH1 0x46 DUP2 MSTORE PUSH1 0x20 ADD PUSH2 0x190 DUP2 MSTORE PUSH1 0x20 ADD PUSH1 0x64 DUP2 MSTORE PUSH1 0x20 ADD PUSH2 0x20D0 DUP2 MSTORE PUSH1 0x20 ADD PUSH2 0x2710 DUP2 MSTORE POP DUP2 MSTORE PUSH1 0x20 ADD PUSH1 0x40 MLOAD DUP1 PUSH2 0x200 ADD PUSH1 0x40 MSTORE DUP1 PUSH1 0x5A DUP2 MSTORE PUSH1 0x20 ADD PUSH2 0x258 DUP2 MSTORE PUSH1 0x20 ADD PUSH1 0x4B DUP2 MSTORE PUSH1 0x20 ADD PUSH2 0x190 DUP2 MSTORE PUSH1 0x20 ADD PUSH2 0x384 DUP2 MSTORE PUSH1 0x20 ADD PUSH2 0xA8C DUP2 MSTORE PUSH1 0x20 ADD PUSH2 0x834 DUP2 MSTORE PUSH1 0x20 ADD PUSH1 0x9B DUP2 MSTORE PUSH1 0x20 ADD PUSH2 0xA28 DUP2 MSTORE PUSH1 0x20 ADD PUSH2 0x118 DUP2 MSTORE PUSH1 0x20 ADD PUSH1 0x23 DUP2 MSTORE PUSH1 0x20 ADD PUSH1 0x1 DUP2 MSTORE PUSH1 0x20 ADD PUSH1 0x5 DUP2 MSTORE PUSH1 0x20 ADD PUSH1 0x32 DUP2 MSTORE PUSH1 0x20 ADD PUSH1 0x9 DUP2 MSTORE PUSH1 0x20 ADD PUSH2 0x2710 DUP2 MSTORE POP DUP2 MSTORE PUSH1 0x20 ADD PUSH1 0x40 MLOAD DUP1 PUSH2 0x140 ADD PUSH1 0x40 MSTORE DUP1 PUSH2 0x4B0 DUP2 MSTORE PUSH1 0x20 ADD PUSH1 0xA DUP2 MSTORE PUSH1 0x20 ADD PUSH2 0x7D0 DUP2 MSTORE PUSH1 0x20 ADD PUSH2 0x578 DUP2 MSTORE PUSH1 0x20 ADD PUSH1 0x5A DUP2 MSTORE PUSH1 0x20 ADD PUSH2 0x708 DUP2 MSTORE PUSH1 0x20 ADD PUSH2 0x3E8 DUP2 MSTORE PUSH1 0x20 ADD PUSH2 0x640 DUP2 MSTORE PUSH1 0x20 ADD PUSH2 0x384 DUP2 MSTORE PUSH1 0x20 ADD PUSH2 0x2710 DUP2 MSTORE POP DUP2 MSTORE PUSH1 0x20 ADD PUSH1 0x40 MLOAD DUP1 PUSH2 0x2A0 ADD PUSH1 0x40 MSTORE DUP1 PUSH2 0x258 DUP2 MSTORE PUSH1 0x20 ADD PUSH1 0x4 DUP2 MSTORE PUSH1 0x20 ADD PUSH2 0x3E8 DUP2 MSTORE PUSH1 0x20 ADD PUSH2 0x4B0 DUP2 MSTORE PUSH1 0x20 ADD PUSH2 0x4B0 DUP2 MSTORE PUSH1 0x20 ADD PUSH1 0x1 DUP2 MSTORE PUSH1 0x20 ADD PUSH2 0x1F4 DUP2 MSTORE PUSH1 0x20 ADD PUSH2 0x12C DUP2 MSTORE PUSH1 0x20 ADD PUSH2 0x2BC DUP2 MSTORE PUSH1 0x20 ADD PUSH2 0x640 DUP2 MSTORE PUSH1 0x20 ADD PUSH2 0x190 DUP2 MSTORE PUSH1 0x20 ADD PUSH2 0x1C2 DUP2 MSTORE PUSH1 0x20 ADD PUSH1 0x5 DUP2 MSTORE PUSH1 0x20 ADD PUSH1 0x7 DUP2 MSTORE PUSH1 0x20 ADD PUSH1 0x50 DUP2 MSTORE PUSH1 0x20 ADD PUSH1 0x3 DUP2 MSTORE PUSH1 0x20 ADD PUSH2 0x28A DUP2 MSTORE PUSH1 0x20 ADD PUSH2 0x15E DUP2 MSTORE PUSH1 0x20 ADD PUSH2 0x2EE DUP2 MSTORE PUSH1 0x20 ADD PUSH1 0xC8 DUP2 MSTORE PUSH1 0x20 ADD PUSH2 0x2710 DUP2 MSTORE POP DUP2 MSTORE PUSH1 0x20 ADD PUSH1 0x40 MLOAD DUP1 PUSH2 0x2C0 ADD PUSH1 0x40 MSTORE DUP1 PUSH2 0x44C DUP2 MSTORE PUSH1 0x20 ADD PUSH1 0xC8 DUP2 MSTORE PUSH1 0x20 ADD PUSH2 0x320 DUP2 MSTORE PUSH1 0x20 ADD PUSH2 0x1F4 DUP2 MSTORE PUSH1 0x20 ADD PUSH1 0xC8 DUP2 MSTORE PUSH1 0x20 ADD PUSH2 0x2BC DUP2 MSTORE PUSH1 0x20 ADD PUSH2 0x578 DUP2 MSTORE PUSH1 0x20 ADD PUSH2 0x190 DUP2 MSTORE PUSH1 0x20 ADD PUSH2 0x320 DUP2 MSTORE PUSH1 0x20 ADD PUSH2 0x258 DUP2 MSTORE PUSH1 0x20 ADD PUSH2 0x4B0 DUP2 MSTORE PUSH1 0x20 ADD PUSH1 0x28 DUP2 MSTORE PUSH1 0x20 ADD PUSH1 0x2 DUP2 MSTORE PUSH1 0x20 ADD PUSH2 0x15E DUP2 MSTORE PUSH1 0x20 ADD PUSH1 0xFA DUP2 MSTORE PUSH1 0x20 ADD PUSH2 0x1C2 DUP2 MSTORE PUSH1 0x20 ADD PUSH1 0x5 DUP2 MSTORE PUSH1 0x20 ADD PUSH1 0x32 DUP2 MSTORE PUSH1 0x20 ADD PUSH2 0x12C DUP2 MSTORE PUSH1 0x20 ADD PUSH2 0x28A DUP2 MSTORE PUSH1 0x20 ADD PUSH1 0x3 DUP2 MSTORE PUSH1 0x20 ADD PUSH2 0x2710 DUP2 MSTORE POP DUP2 MSTORE PUSH1 0x20 ADD PUSH1 0x40 MLOAD DUP1 PUSH2 0x2A0 ADD PUSH1 0x40 MSTORE DUP1 PUSH2 0x4B0 DUP2 MSTORE PUSH1 0x20 ADD PUSH2 0x44C DUP2 MSTORE PUSH1 0x20 ADD PUSH1 0x1 DUP2 MSTORE PUSH1 0x20 ADD PUSH2 0x514 DUP2 MSTORE PUSH1 0x20 ADD PUSH2 0x258 DUP2 MSTORE PUSH1 0x20 ADD PUSH2 0x12C DUP2 MSTORE PUSH1 0x20 ADD PUSH2 0x3E8 DUP2 MSTORE PUSH1 0x20 ADD PUSH2 0x190 DUP2 MSTORE PUSH1 0x20 ADD PUSH2 0x15E DUP2 MSTORE PUSH1 0x20 ADD PUSH2 0x384 DUP2 MSTORE PUSH1 0x20 ADD PUSH1 0xFA DUP2 MSTORE PUSH1 0x20 ADD PUSH1 0x3C DUP2 MSTORE PUSH1 0x20 ADD PUSH1 0x4 DUP2 MSTORE PUSH1 0x20 ADD PUSH2 0x12C DUP2 MSTORE PUSH1 0x20 ADD PUSH2 0x226 DUP2 MSTORE PUSH1 0x20 ADD PUSH2 0x1F4 DUP2 MSTORE PUSH1 0x20 ADD PUSH1 0x1E DUP2 MSTORE PUSH1 0x20 ADD PUSH2 0x3B6 DUP2 MSTORE PUSH1 0x20 ADD PUSH1 0xC8 DUP2 MSTORE PUSH1 0x20 ADD PUSH1 0x5 DUP2 MSTORE PUSH1 0x20 ADD PUSH2 0x2710 DUP2 MSTORE POP DUP2 MSTORE PUSH1 0x20 ADD PUSH1 0x40 MLOAD DUP1 PUSH2 0x2C0 ADD PUSH1 0x40 MSTORE DUP1 PUSH1 0x5A DUP2 MSTORE PUSH1 0x20 ADD PUSH2 0x320 DUP2 MSTORE PUSH1 0x20 ADD PUSH1 0x1 DUP2 MSTORE PUSH1 0x20 ADD PUSH2 0x578 DUP2 MSTORE PUSH1 0x20 ADD PUSH2 0x4B0 DUP2 MSTORE PUSH1 0x20 ADD PUSH2 0x384 DUP2 MSTORE PUSH1 0x20 ADD PUSH2 0x2BC DUP2 MSTORE PUSH1 0x20 ADD PUSH2 0x226 DUP2 MSTORE PUSH1 0x20 ADD PUSH2 0x514 DUP2 MSTORE PUSH1 0x20 ADD PUSH2 0x3E8 DUP2 MSTORE PUSH1 0x20 ADD PUSH1 0x6 DUP2 MSTORE PUSH1 0x20 ADD PUSH2 0x190 DUP2 MSTORE PUSH1 0x20 ADD PUSH2 0x258 DUP2 MSTORE PUSH1 0x20 ADD PUSH1 0xC8 DUP2 MSTORE PUSH1 0x20 ADD PUSH1 0x32 DUP2 MSTORE PUSH1 0x20 ADD PUSH1 0x3C DUP2 MSTORE PUSH1 0x20 ADD PUSH1 0x96 DUP2 MSTORE PUSH1 0x20 ADD PUSH1 0xFA DUP2 MSTORE PUSH1 0x20 ADD PUSH1 0x28 DUP2 MSTORE PUSH1 0x20 ADD PUSH2 0x12C DUP2 MSTORE PUSH1 0x20 ADD PUSH1 0x3 DUP2 MSTORE PUSH1 0x20 ADD PUSH2 0x2710 DUP2 MSTORE POP DUP2 MSTORE PUSH1 0x20 ADD PUSH1 0x40 MLOAD DUP1 PUSH2 0x2C0 ADD PUSH1 0x40 MSTORE DUP1 PUSH2 0x190 DUP2 MSTORE PUSH1 0x20 ADD PUSH2 0x3E8 DUP2 MSTORE PUSH1 0x20 ADD PUSH2 0x384 DUP2 MSTORE PUSH1 0x20 ADD PUSH2 0x258 DUP2 MSTORE PUSH1 0x20 ADD PUSH2 0x352 DUP2 MSTORE PUSH1 0x20 ADD PUSH2 0x514 DUP2 MSTORE PUSH1 0x20 ADD PUSH2 0x4B0 DUP2 MSTORE PUSH1 0x20 ADD PUSH2 0x320 DUP2 MSTORE PUSH1 0x20 ADD PUSH2 0x1F4 DUP2 MSTORE PUSH1 0x20 ADD PUSH2 0x2BC DUP2 MSTORE PUSH1 0x20 ADD PUSH1 0xFA DUP2 MSTORE PUSH1 0x20 ADD PUSH1 0xC8 DUP2 MSTORE PUSH1 0x20 ADD PUSH1 0x96 DUP2 MSTORE PUSH1 0x20 ADD PUSH1 0xC8 DUP2 MSTORE PUSH1 0x20 ADD PUSH2 0x1F4 DUP2 MSTORE PUSH1 0x20 ADD PUSH1 0x3C DUP2 MSTORE PUSH1 0x20 ADD PUSH2 0x15E DUP2 MSTORE PUSH1 0x20 ADD PUSH1 0x1E DUP2 MSTORE PUSH1 0x20 ADD PUSH1 0x1 DUP2 MSTORE PUSH1 0x20 ADD PUSH1 0x6 DUP2 MSTORE PUSH1 0x20 ADD PUSH1 0x3 DUP2 MSTORE PUSH1 0x20 ADD PUSH2 0x2710 DUP2 MSTORE POP DUP2 MSTORE PUSH1 0x20 ADD PUSH1 0x40 MLOAD DUP1 PUSH2 0x2C0 ADD PUSH1 0x40 MSTORE DUP1 PUSH2 0x190 DUP2 MSTORE PUSH1 0x20 ADD PUSH1 0x1 DUP2 MSTORE PUSH1 0x20 ADD PUSH1 0xC8 DUP2 MSTORE PUSH1 0x20 ADD PUSH1 0x5A DUP2 MSTORE PUSH1 0x20 ADD PUSH2 0x4B0 DUP2 MSTORE PUSH1 0x20 ADD PUSH2 0x1F4 DUP2 MSTORE PUSH1 0x20 ADD PUSH1 0xC8 DUP2 MSTORE PUSH1 0x20 ADD PUSH2 0x3E8 DUP2 MSTORE PUSH1 0x20 ADD PUSH2 0x12C DUP2 MSTORE PUSH1 0x20 ADD PUSH2 0x258 DUP2 MSTORE PUSH1 0x20 ADD PUSH2 0xBB8 DUP2 MSTORE PUSH1 0x20 ADD PUSH1 0xFA DUP2 MSTORE PUSH1 0x20 ADD PUSH2 0x1C2 DUP2 MSTORE PUSH1 0x20 ADD PUSH1 0x69 DUP2 MSTORE PUSH1 0x20 ADD PUSH1 0x7 DUP2 MSTORE PUSH1 0x20 ADD PUSH1 0x5 DUP2 MSTORE PUSH1 0x20 ADD PUSH2 0x177 DUP2 MSTORE PUSH1 0x20 ADD PUSH2 0x2D5 DUP2 MSTORE PUSH1 0x20 ADD PUSH2 0x23F DUP2 MSTORE PUSH1 0x20 ADD PUSH1 0x4 DUP2 MSTORE PUSH1 0x20 ADD PUSH1 0xD DUP2 MSTORE PUSH1 0x20 ADD PUSH2 0x2710 DUP2 MSTORE POP DUP2 MSTORE PUSH1 0x20 ADD PUSH1 0x40 MLOAD DUP1 PUSH2 0x2C0 ADD PUSH1 0x40 MSTORE DUP1 PUSH2 0x3E8 DUP2 MSTORE PUSH1 0x20 ADD PUSH2 0x1A4 DUP2 MSTORE PUSH1 0x20 ADD PUSH2 0x44C DUP2 MSTORE PUSH1 0x20 ADD PUSH2 0x514 DUP2 MSTORE PUSH1 0x20 ADD PUSH1 0x32 DUP2 MSTORE PUSH1 0x20 ADD PUSH2 0x4B0 DUP2 MSTORE PUSH1 0x20 ADD PUSH2 0x5AA DUP2 MSTORE PUSH1 0x20 ADD PUSH1 0x7 DUP2 MSTORE PUSH1 0x20 ADD PUSH1 0x1E DUP2 MSTORE PUSH1 0x20 ADD PUSH2 0x1F4 DUP2 MSTORE PUSH1 0x20 ADD PUSH2 0x190 DUP2 MSTORE PUSH1 0x20 ADD PUSH2 0x226 DUP2 MSTORE PUSH1 0x20 ADD PUSH1 0xC8 DUP2 MSTORE PUSH1 0x20 ADD PUSH2 0x28A DUP2 MSTORE PUSH1 0x20 ADD PUSH2 0x1CC DUP2 MSTORE PUSH1 0x20 ADD PUSH1 0x1 DUP2 MSTORE PUSH1 0x20 ADD PUSH1 0x14 DUP2 MSTORE PUSH1 0x20 ADD PUSH1 0x36 DUP2 MSTORE PUSH1 0x20 ADD PUSH1 0x2 DUP2 MSTORE PUSH1 0x20 ADD PUSH2 0x258 DUP2 MSTORE PUSH1 0x20 ADD PUSH1 0x6 DUP2 MSTORE PUSH1 0x20 ADD PUSH2 0x2710 DUP2 MSTORE POP DUP2 MSTORE POP SWAP1 POP SWAP1 JUMP JUMPDEST PUSH1 0x0 DUP1 DUP1 JUMPDEST PUSH1 0x22 DUP2 LT ISZERO PUSH2 0xD2D JUMPI DUP2 DUP5 LT ISZERO DUP1 ISZERO PUSH2 0xCDC JUMPI POP DUP5 DUP2 PUSH1 0x22 DUP2 LT PUSH2 0xCCA JUMPI PUSH4 0x4E487B71 PUSH1 0xE0 SHL PUSH1 0x0 MSTORE PUSH1 0x32 PUSH1 0x4 MSTORE PUSH1 0x24 PUSH1 0x0 REVERT JUMPDEST PUSH1 0x20 MUL ADD MLOAD PUSH2 0xCD9 SWAP1 DUP4 PUSH2 0x15D4 JUMP JUMPDEST DUP5 LT JUMPDEST ISZERO PUSH2 0xCEA JUMPI SWAP2 POP PUSH2 0xD8C SWAP1 POP JUMP JUMPDEST DUP5 DUP2 PUSH1 0x22 DUP2 LT PUSH2 0xD0A JUMPI PUSH4 0x4E487B71 PUSH1 0xE0 SHL PUSH1 0x0 MSTORE PUSH1 0x32 PUSH1 0x4 MSTORE PUSH1 0x24 PUSH1 0x0 REVERT JUMPDEST PUSH1 0x20 MUL ADD MLOAD PUSH2 0xD19 SWAP1 DUP4 PUSH2 0x15D4 JUMP JUMPDEST SWAP2 POP DUP1 PUSH2 0xD25 DUP2 PUSH2 0x15EC JUMP JUMPDEST SWAP2 POP POP PUSH2 0xC96 JUMP JUMPDEST POP PUSH1 0x40 MLOAD PUSH3 0x461BCD PUSH1 0xE5 SHL DUP2 MSTORE PUSH1 0x20 PUSH1 0x4 DUP3 ADD MSTORE PUSH1 0x29 PUSH1 0x24 DUP3 ADD MSTORE PUSH32 0x476F7420612076616C7565206F757473696465206F6620746865206D61784368 PUSH1 0x44 DUP3 ADD MSTORE PUSH9 0x616E636556616C7565 PUSH1 0xB8 SHL PUSH1 0x64 DUP3 ADD MSTORE PUSH1 0x84 ADD PUSH1 0x40 MLOAD DUP1 SWAP2 SUB SWAP1 REVERT JUMPDEST SWAP3 SWAP2 POP POP JUMP JUMPDEST PUSH1 0x0 DUP1 DUP1 JUMPDEST PUSH1 0xC DUP2 LT ISZERO PUSH2 0xD2D JUMPI DUP2 DUP5 LT ISZERO DUP1 ISZERO PUSH2 0xDDD JUMPI POP DUP5 DUP2 PUSH1 0xC DUP2 LT PUSH2 0xDCB JUMPI PUSH4 0x4E487B71 PUSH1 0xE0 SHL PUSH1 0x0 MSTORE PUSH1 0x32 PUSH1 0x4 MSTORE PUSH1 0x24 PUSH1 0x0 REVERT JUMPDEST PUSH1 0x20 MUL ADD MLOAD PUSH2 0xDDA SWAP1 DUP4 PUSH2 0x15D4 JUMP JUMPDEST DUP5 LT JUMPDEST ISZERO PUSH2 0xDEB JUMPI SWAP2 POP PUSH2 0xD8C SWAP1 POP JUMP JUMPDEST DUP5 DUP2 PUSH1 0xC DUP2 LT PUSH2 0xE0B JUMPI PUSH4 0x4E487B71 PUSH1 0xE0 SHL PUSH1 0x0 MSTORE PUSH1 0x32 PUSH1 0x4 MSTORE PUSH1 0x24 PUSH1 0x0 REVERT JUMPDEST PUSH1 0x20 MUL ADD MLOAD PUSH2 0xE1A SWAP1 DUP4 PUSH2 0x15D4 JUMP JUMPDEST SWAP2 POP DUP1 PUSH2 0xE26 DUP2 PUSH2 0x15EC JUMP JUMPDEST SWAP2 POP POP PUSH2 0xD97 JUMP JUMPDEST PUSH1 0x0 DUP1 DUP1 JUMPDEST PUSH1 0x10 DUP2 LT ISZERO PUSH2 0xD2D JUMPI DUP2 DUP5 LT ISZERO DUP1 ISZERO PUSH2 0xE79 JUMPI POP DUP5 DUP2 PUSH1 0x10 DUP2 LT PUSH2 0xE67 JUMPI PUSH4 0x4E487B71 PUSH1 0xE0 SHL PUSH1 0x0 MSTORE PUSH1 0x32 PUSH1 0x4 MSTORE PUSH1 0x24 PUSH1 0x0 REVERT JUMPDEST PUSH1 0x20 MUL ADD MLOAD PUSH2 0xE76 SWAP1 DUP4 PUSH2 0x15D4 JUMP JUMPDEST DUP5 LT JUMPDEST ISZERO PUSH2 0xE87 JUMPI SWAP2 POP PUSH2 0xD8C SWAP1 POP JUMP JUMPDEST DUP5 DUP2 PUSH1 0x10 DUP2 LT PUSH2 0xEA7 JUMPI PUSH4 0x4E487B71 PUSH1 0xE0 SHL PUSH1 0x0 MSTORE PUSH1 0x32 PUSH1 0x4 MSTORE PUSH1 0x24 PUSH1 0x0 REVERT JUMPDEST PUSH1 0x20 MUL ADD MLOAD PUSH2 0xEB6 SWAP1 DUP4 PUSH2 0x15D4 JUMP JUMPDEST SWAP2 POP DUP1 PUSH2 0xEC2 DUP2 PUSH2 0x15EC JUMP JUMPDEST SWAP2 POP POP PUSH2 0xE33 JUMP JUMPDEST PUSH1 0x0 DUP1 DUP1 JUMPDEST PUSH1 0xA DUP2 LT ISZERO PUSH2 0xD2D JUMPI DUP2 DUP5 LT ISZERO DUP1 ISZERO PUSH2 0xF15 JUMPI POP DUP5 DUP2 PUSH1 0xA DUP2 LT PUSH2 0xF03 JUMPI PUSH4 0x4E487B71 PUSH1 0xE0 SHL PUSH1 0x0 MSTORE PUSH1 0x32 PUSH1 0x4 MSTORE PUSH1 0x24 PUSH1 0x0 REVERT JUMPDEST PUSH1 0x20 MUL ADD MLOAD PUSH2 0xF12 SWAP1 DUP4 PUSH2 0x15D4 JUMP JUMPDEST DUP5 LT JUMPDEST ISZERO PUSH2 0xF23 JUMPI SWAP2 POP PUSH2 0xD8C SWAP1 POP JUMP JUMPDEST DUP5 DUP2 PUSH1 0xA DUP2 LT PUSH2 0xF43 JUMPI PUSH4 0x4E487B71 PUSH1 0xE0 SHL PUSH1 0x0 MSTORE PUSH1 0x32 PUSH1 0x4 MSTORE PUSH1 0x24 PUSH1 0x0 REVERT JUMPDEST PUSH1 0x20 MUL ADD MLOAD PUSH2 0xF52 SWAP1 DUP4 PUSH2 0x15D4 JUMP JUMPDEST SWAP2 POP DUP1 PUSH2 0xF5E DUP2 PUSH2 0x15EC JUMP JUMPDEST SWAP2 POP POP PUSH2 0xECF JUMP JUMPDEST PUSH1 0x0 DUP1 DUP1 JUMPDEST PUSH1 0x15 DUP2 LT ISZERO PUSH2 0xD2D JUMPI DUP2 DUP5 LT ISZERO DUP1 ISZERO PUSH2 0xFB1 JUMPI POP DUP5 DUP2 PUSH1 0x15 DUP2 LT PUSH2 0xF9F JUMPI PUSH4 0x4E487B71 PUSH1 0xE0 SHL PUSH1 0x0 MSTORE PUSH1 0x32 PUSH1 0x4 MSTORE PUSH1 0x24 PUSH1 0x0 REVERT JUMPDEST PUSH1 0x20 MUL ADD MLOAD PUSH2 0xFAE SWAP1 DUP4 PUSH2 0x15D4 JUMP JUMPDEST DUP5 LT JUMPDEST ISZERO PUSH2 0xFBF JUMPI SWAP2 POP PUSH2 0xD8C SWAP1 POP JUMP JUMPDEST DUP5 DUP2 PUSH1 0x15 DUP2 LT PUSH2 0xFDF JUMPI PUSH4 0x4E487B71 PUSH1 0xE0 SHL PUSH1 0x0 MSTORE PUSH1 0x32 PUSH1 0x4 MSTORE PUSH1 0x24 PUSH1 0x0 REVERT JUMPDEST PUSH1 0x20 MUL ADD MLOAD PUSH2 0xFEE SWAP1 DUP4 PUSH2 0x15D4 JUMP JUMPDEST SWAP2 POP DUP1 PUSH2 0xFFA DUP2 PUSH2 0x15EC JUMP JUMPDEST SWAP2 POP POP PUSH2 0xF6B JUMP JUMPDEST PUSH1 0x0 DUP1 DUP1 JUMPDEST PUSH1 0x16 DUP2 LT ISZERO PUSH2 0xD2D JUMPI DUP2 DUP5 LT ISZERO DUP1 ISZERO PUSH2 0x104D JUMPI POP DUP5 DUP2 PUSH1 0x16 DUP2 LT PUSH2 0x103B JUMPI PUSH4 0x4E487B71 PUSH1 0xE0 SHL PUSH1 0x0 MSTORE PUSH1 0x32 PUSH1 0x4 MSTORE PUSH1 0x24 PUSH1 0x0 REVERT JUMPDEST PUSH1 0x20 MUL ADD MLOAD PUSH2 0x104A SWAP1 DUP4 PUSH2 0x15D4 JUMP JUMPDEST DUP5 LT JUMPDEST ISZERO PUSH2 0x105B JUMPI SWAP2 POP PUSH2 0xD8C SWAP1 POP JUMP JUMPDEST DUP5 DUP2 PUSH1 0x16 DUP2 LT PUSH2 0x107B JUMPI PUSH4 0x4E487B71 PUSH1 0xE0 SHL PUSH1 0x0 MSTORE PUSH1 0x32 PUSH1 0x4 MSTORE PUSH1 0x24 PUSH1 0x0 REVERT JUMPDEST PUSH1 0x20 MUL ADD MLOAD PUSH2 0x108A SWAP1 DUP4 PUSH2 0x15D4 JUMP JUMPDEST SWAP2 POP DUP1 PUSH2 0x1096 DUP2 PUSH2 0x15EC JUMP JUMPDEST SWAP2 POP POP PUSH2 0x1007 JUMP JUMPDEST PUSH1 0x40 DUP1 MLOAD PUSH2 0x160 DUP2 ADD SWAP1 SWAP2 MSTORE DUP1 PUSH1 0x0 DUP2 MSTORE PUSH1 0x20 ADD PUSH1 0x0 DUP2 MSTORE PUSH1 0x20 ADD PUSH1 0x0 DUP2 MSTORE PUSH1 0x20 ADD PUSH1 0x0 DUP2 MSTORE PUSH1 0x20 ADD PUSH1 0x0 DUP2 MSTORE PUSH1 0x20 ADD PUSH1 0x0 DUP2 MSTORE PUSH1 0x20 ADD PUSH1 0x0 DUP2 MSTORE PUSH1 0x20 ADD PUSH1 0x0 DUP2 MSTORE PUSH1 0x20 ADD PUSH1 0x0 DUP2 MSTORE PUSH1 0x20 ADD PUSH1 0x0 DUP2 MSTORE PUSH1 0x20 ADD PUSH1 0x0 JUMPDEST SWAP1 MSTORE SWAP1 JUMP JUMPDEST PUSH1 0x40 MLOAD DUP1 PUSH2 0x160 ADD PUSH1 0x40 MSTORE DUP1 PUSH2 0x110D PUSH2 0x118F JUMP JUMPDEST DUP2 MSTORE PUSH1 0x20 ADD PUSH2 0x111A PUSH2 0x11AE JUMP JUMPDEST DUP2 MSTORE PUSH1 0x20 ADD PUSH2 0x1127 PUSH2 0x11CD JUMP JUMPDEST DUP2 MSTORE PUSH1 0x20 ADD PUSH2 0x1134 PUSH2 0x11EC JUMP JUMPDEST DUP2 MSTORE PUSH1 0x20 ADD PUSH2 0x1141 PUSH2 0x120B JUMP JUMPDEST DUP2 MSTORE PUSH1 0x20 ADD PUSH2 0x114E PUSH2 0x122A JUMP JUMPDEST DUP2 MSTORE PUSH1 0x20 ADD PUSH2 0x115B PUSH2 0x120B JUMP JUMPDEST DUP2 MSTORE PUSH1 0x20 ADD PUSH2 0x1168 PUSH2 0x122A JUMP JUMPDEST DUP2 MSTORE PUSH1 0x20 ADD PUSH2 0x1175 PUSH2 0x122A JUMP JUMPDEST DUP2 MSTORE PUSH1 0x20 ADD PUSH2 0x1182 PUSH2 0x122A JUMP JUMPDEST DUP2 MSTORE PUSH1 0x20 ADD PUSH2 0x10F4 PUSH2 0x122A JUMP JUMPDEST PUSH1 0x40 MLOAD DUP1 PUSH2 0x440 ADD PUSH1 0x40 MSTORE DUP1 PUSH1 0x22 SWAP1 PUSH1 0x20 DUP3 MUL DUP1 CALLDATASIZE DUP4 CALLDATACOPY POP SWAP2 SWAP3 SWAP2 POP POP JUMP JUMPDEST PUSH1 0x40 MLOAD DUP1 PUSH2 0x180 ADD PUSH1 0x40 MSTORE DUP1 PUSH1 0xC SWAP1 PUSH1 0x20 DUP3 MUL DUP1 CALLDATASIZE DUP4 CALLDATACOPY POP SWAP2 SWAP3 SWAP2 POP POP JUMP JUMPDEST PUSH1 0x40 MLOAD DUP1 PUSH2 0x200 ADD PUSH1 0x40 MSTORE DUP1 PUSH1 0x10 SWAP1 PUSH1 0x20 DUP3 MUL DUP1 CALLDATASIZE DUP4 CALLDATACOPY POP SWAP2 SWAP3 SWAP2 POP POP JUMP JUMPDEST PUSH1 0x40 MLOAD DUP1 PUSH2 0x140 ADD PUSH1 0x40 MSTORE DUP1 PUSH1 0xA SWAP1 PUSH1 0x20 DUP3 MUL DUP1 CALLDATASIZE DUP4 CALLDATACOPY POP SWAP2 SWAP3 SWAP2 POP POP JUMP JUMPDEST PUSH1 0x40 MLOAD DUP1 PUSH2 0x2A0 ADD PUSH1 0x40 MSTORE DUP1 PUSH1 0x15 SWAP1 PUSH1 0x20 DUP3 MUL DUP1 CALLDATASIZE DUP4 CALLDATACOPY POP SWAP2 SWAP3 SWAP2 POP POP JUMP JUMPDEST PUSH1 0x40 MLOAD DUP1 PUSH2 0x2C0 ADD PUSH1 0x40 MSTORE DUP1 PUSH1 0x16 SWAP1 PUSH1 0x20 DUP3 MUL DUP1 CALLDATASIZE DUP4 CALLDATACOPY POP SWAP2 SWAP3 SWAP2 POP POP JUMP JUMPDEST PUSH1 0x0 PUSH1 0x20 DUP3 DUP5 SUB SLT ISZERO PUSH2 0x125A JUMPI DUP1 DUP2 REVERT JUMPDEST POP CALLDATALOAD SWAP2 SWAP1 POP JUMP JUMPDEST PUSH1 0x0 DUP1 PUSH1 0x40 DUP4 DUP6 SUB SLT ISZERO PUSH2 0x1273 JUMPI DUP1 DUP2 REVERT JUMPDEST POP POP DUP1 CALLDATALOAD SWAP3 PUSH1 0x20 SWAP1 SWAP2 ADD CALLDATALOAD SWAP2 POP JUMP JUMPDEST DUP1 PUSH1 0x0 JUMPDEST PUSH1 0xA DUP2 LT ISZERO PUSH2 0x12A5 JUMPI DUP2 MLOAD DUP5 MSTORE PUSH1 0x20 SWAP4 DUP5 ADD SWAP4 SWAP1 SWAP2 ADD SWAP1 PUSH1 0x1 ADD PUSH2 0x1286 JUMP JUMPDEST POP POP POP POP JUMP JUMPDEST DUP1 PUSH1 0x0 JUMPDEST PUSH1 0xC DUP2 LT ISZERO PUSH2 0x12A5 JUMPI DUP2 MLOAD DUP5 MSTORE PUSH1 0x20 SWAP4 DUP5 ADD SWAP4 SWAP1 SWAP2 ADD SWAP1 PUSH1 0x1 ADD PUSH2 0x12AF JUMP JUMPDEST DUP1 PUSH1 0x0 JUMPDEST PUSH1 0x10 DUP2 LT ISZERO PUSH2 0x12A5 JUMPI DUP2 MLOAD DUP5 MSTORE PUSH1 0x20 SWAP4 DUP5 ADD SWAP4 SWAP1 SWAP2 ADD SWAP1 PUSH1 0x1 ADD PUSH2 0x12D2 JUMP JUMPDEST DUP1 PUSH1 0x0 JUMPDEST PUSH1 0x15 DUP2 LT ISZERO PUSH2 0x12A5 JUMPI DUP2 MLOAD DUP5 MSTORE PUSH1 0x20 SWAP4 DUP5 ADD SWAP4 SWAP1 SWAP2 ADD SWAP1 PUSH1 0x1 ADD PUSH2 0x12F5 JUMP JUMPDEST DUP1 PUSH1 0x0 JUMPDEST PUSH1 0x16 DUP2 LT ISZERO PUSH2 0x12A5 JUMPI DUP2 MLOAD DUP5 MSTORE PUSH1 0x20 SWAP4 DUP5 ADD SWAP4 SWAP1 SWAP2 ADD SWAP1 PUSH1 0x1 ADD PUSH2 0x1318 JUMP JUMPDEST DUP1 PUSH1 0x0 JUMPDEST PUSH1 0x22 DUP2 LT ISZERO PUSH2 0x12A5 JUMPI DUP2 MLOAD DUP5 MSTORE PUSH1 0x20 SWAP4 DUP5 ADD SWAP4 SWAP1 SWAP2 ADD SWAP1 PUSH1 0x1 ADD PUSH2 0x133B JUMP JUMPDEST PUSH1 0x21 DUP2 LT PUSH2 0x136A JUMPI PUSH2 0x136A PUSH2 0x163D JUMP JUMPDEST SWAP1 MSTORE JUMP JUMPDEST PUSH1 0x15 DUP2 LT PUSH2 0x136A JUMPI PUSH2 0x136A PUSH2 0x163D JUMP JUMPDEST PUSH1 0xF DUP2 LT PUSH2 0x136A JUMPI PUSH2 0x136A PUSH2 0x163D JUMP JUMPDEST PUSH1 0x9 DUP2 LT PUSH2 0x136A JUMPI PUSH2 0x136A PUSH2 0x163D JUMP JUMPDEST PUSH1 0xB DUP2 LT PUSH2 0x136A JUMPI PUSH2 0x136A PUSH2 0x163D JUMP JUMPDEST PUSH1 0x14 DUP2 LT PUSH2 0x136A JUMPI PUSH2 0x136A PUSH2 0x163D JUMP JUMPDEST PUSH1 0x0 PUSH1 0x20 DUP1 DUP4 MSTORE DUP4 MLOAD DUP1 DUP3 DUP6 ADD MSTORE DUP3 JUMPDEST DUP2 DUP2 LT ISZERO PUSH2 0x13EA JUMPI DUP6 DUP2 ADD DUP4 ADD MLOAD DUP6 DUP3 ADD PUSH1 0x40 ADD MSTORE DUP3 ADD PUSH2 0x13CE JUMP JUMPDEST DUP2 DUP2 GT ISZERO PUSH2 0x13FB JUMPI DUP4 PUSH1 0x40 DUP4 DUP8 ADD ADD MSTORE JUMPDEST POP PUSH1 0x1F ADD PUSH1 0x1F NOT AND SWAP3 SWAP1 SWAP3 ADD PUSH1 0x40 ADD SWAP4 SWAP3 POP POP POP JUMP JUMPDEST PUSH1 0x0 PUSH2 0x160 DUP3 ADD SWAP1 POP PUSH2 0x1425 DUP3 DUP5 MLOAD PUSH2 0x135A JUMP JUMPDEST PUSH1 0x20 DUP4 ADD MLOAD PUSH2 0x1437 PUSH1 0x20 DUP5 ADD DUP3 PUSH2 0x139E JUMP JUMPDEST POP PUSH1 0x40 DUP4 ADD MLOAD PUSH2 0x144A PUSH1 0x40 DUP5 ADD DUP3 PUSH2 0x137E JUMP JUMPDEST POP PUSH1 0x60 DUP4 ADD MLOAD PUSH2 0x145D PUSH1 0x60 DUP5 ADD DUP3 PUSH2 0x138E JUMP JUMPDEST POP PUSH1 0x80 DUP4 ADD MLOAD PUSH2 0x1470 PUSH1 0x80 DUP5 ADD DUP3 PUSH2 0x13AE JUMP JUMPDEST POP PUSH1 0xA0 DUP4 ADD MLOAD PUSH2 0x1483 PUSH1 0xA0 DUP5 ADD DUP3 PUSH2 0x136E JUMP JUMPDEST POP PUSH1 0xC0 DUP4 ADD MLOAD PUSH2 0x1496 PUSH1 0xC0 DUP5 ADD DUP3 PUSH2 0x13AE JUMP JUMPDEST POP PUSH1 0xE0 DUP4 ADD MLOAD PUSH2 0x14A9 PUSH1 0xE0 DUP5 ADD DUP3 PUSH2 0x136E JUMP JUMPDEST POP PUSH2 0x100 DUP1 DUP5 ADD MLOAD PUSH2 0x14BD DUP3 DUP6 ADD DUP3 PUSH2 0x136E JUMP JUMPDEST POP POP PUSH2 0x120 DUP1 DUP5 ADD MLOAD PUSH2 0x14D2 DUP3 DUP6 ADD DUP3 PUSH2 0x136E JUMP JUMPDEST POP POP PUSH2 0x140 DUP1 DUP5 ADD MLOAD PUSH2 0x14E7 DUP3 DUP6 ADD DUP3 PUSH2 0x136E JUMP JUMPDEST POP POP SWAP3 SWAP2 POP POP JUMP JUMPDEST PUSH1 0x0 PUSH2 0x1C00 DUP3 ADD SWAP1 POP PUSH2 0x1503 DUP3 DUP5 MLOAD PUSH2 0x1337 JUMP JUMPDEST PUSH1 0x20 DUP4 ADD MLOAD PUSH2 0x1516 PUSH2 0x440 DUP5 ADD DUP3 PUSH2 0x12AB JUMP JUMPDEST POP PUSH1 0x40 DUP4 ADD MLOAD PUSH2 0x152A PUSH2 0x5C0 DUP5 ADD DUP3 PUSH2 0x12CE JUMP JUMPDEST POP PUSH1 0x60 DUP4 ADD MLOAD PUSH2 0x153E PUSH2 0x7C0 DUP5 ADD DUP3 PUSH2 0x1282 JUMP JUMPDEST POP PUSH1 0x80 DUP4 ADD MLOAD PUSH2 0x1552 PUSH2 0x900 DUP5 ADD DUP3 PUSH2 0x12F1 JUMP JUMPDEST POP PUSH1 0xA0 DUP4 ADD MLOAD PUSH2 0x1566 PUSH2 0xBA0 DUP5 ADD DUP3 PUSH2 0x1314 JUMP JUMPDEST POP PUSH1 0xC0 DUP4 ADD MLOAD PUSH2 0x157A PUSH2 0xE60 DUP5 ADD DUP3 PUSH2 0x12F1 JUMP JUMPDEST POP PUSH1 0xE0 DUP4 ADD MLOAD PUSH2 0x158E PUSH2 0x1100 DUP5 ADD DUP3 PUSH2 0x1314 JUMP JUMPDEST POP PUSH2 0x100 DUP4 ADD MLOAD PUSH2 0x15A3 PUSH2 0x13C0 DUP5 ADD DUP3 PUSH2 0x1314 JUMP JUMPDEST POP PUSH2 0x120 DUP4 ADD MLOAD PUSH2 0x15B8 PUSH2 0x1680 DUP5 ADD DUP3 PUSH2 0x1314 JUMP JUMPDEST POP PUSH2 0x140 DUP4 ADD MLOAD PUSH2 0x15CD PUSH2 0x1940 DUP5 ADD DUP3 PUSH2 0x1314 JUMP JUMPDEST POP SWAP3 SWAP2 POP POP JUMP JUMPDEST PUSH1 0x0 DUP3 NOT DUP3 GT ISZERO PUSH2 0x15E7 JUMPI PUSH2 0x15E7 PUSH2 0x1627 JUMP JUMPDEST POP ADD SWAP1 JUMP JUMPDEST PUSH1 0x0 PUSH1 0x0 NOT DUP3 EQ ISZERO PUSH2 0x1600 JUMPI PUSH2 0x1600 PUSH2 0x1627 JUMP JUMPDEST POP PUSH1 0x1 ADD SWAP1 JUMP JUMPDEST PUSH1 0x0 DUP3 PUSH2 0x1622 JUMPI PUSH4 0x4E487B71 PUSH1 0xE0 SHL DUP2 MSTORE PUSH1 0x12 PUSH1 0x4 MSTORE PUSH1 0x24 DUP2 REVERT JUMPDEST POP MOD SWAP1 JUMP JUMPDEST PUSH4 0x4E487B71 PUSH1 0xE0 SHL PUSH1 0x0 MSTORE PUSH1 0x11 PUSH1 0x4 MSTORE PUSH1 0x24 PUSH1 0x0 REVERT JUMPDEST PUSH4 0x4E487B71 PUSH1 0xE0 SHL PUSH1 0x0 MSTORE PUSH1 0x21 PUSH1 0x4 MSTORE PUSH1 0x24 PUSH1 0x0 REVERT INVALID LOG2 PUSH5 0x6970667358 0x22 SLT KECCAK256 0xD3 0xCE 0x5C CALL AND 0xD1 SWAP3 CALLDATASIZE SHR 0xD8 SWAP16 0xD7 DUP13 PUSH30 0x1A2A2F624AE05273BB4D8C319C7D2B165C3464736F6C6343000803003300 ","sha1":"ed5372d29463b715ada1bcb51bcd3e9586e0f6da","source":"// SPDX-License-Identifier: MIT\n/** \n██████╗ ███████╗████████╗██████╗  ██████╗      ██████╗ █████╗ ████████╗███████╗    \n██╔══██╗██╔════╝╚══██╔══╝██╔══██╗██╔═══██╗    ██╔════╝██╔══██╗╚══██╔══╝██╔════╝    \n██████╔╝█████╗     ██║   ██████╔╝██║   ██║    ██║     ███████║   ██║   ███████╗    \n██╔══██╗██╔══╝     ██║   ██╔══██╗██║   ██║    ██║     ██╔══██║   ██║   ╚════██║    \n██║  ██║███████╗   ██║   ██║  ██║╚██████╔╝    ╚██████╗██║  ██║   ██║   ███████║    \n╚═╝  ╚═╝╚══════╝   ╚═╝   ╚═╝  ╚═╝ ╚═════╝      ╚═════╝╚═╝  ╚═╝   ╚═╝   ╚══════╝    \n                                                                                   \n███╗   ███╗███████╗████████╗ █████╗ ██████╗  █████╗ ████████╗ █████╗               \n████╗ ████║██╔════╝╚══██╔══╝██╔══██╗██╔══██╗██╔══██╗╚══██╔══╝██╔══██╗              \n██╔████╔██║█████╗     ██║   ███████║██║  ██║███████║   ██║   ███████║              \n██║╚██╔╝██║██╔══╝     ██║   ██╔══██║██║  ██║██╔══██║   ██║   ██╔══██║              \n██║ ╚═╝ ██║███████╗   ██║   ██║  ██║██████╔╝██║  ██║   ██║   ██║  ██║              \n╚═╝     ╚═╝╚══════╝   ╚═╝   ╚═╝  ╚═╝╚═════╝ ╚═╝  ╚═╝   ╚═╝   ╚═╝  ╚═╝              \n                                                                          \n<<https://github.com/retro-cats/retro-cats-contracts>>\n\n*/\npragma solidity 0.8.3;\n/*\n* @title Our contract for describing what a cat looks like.\n* @dev This contract has almost 0 functionality, except for rngToCat\n* which is used to \"say\" what the random number (the DNA) \n* of a cat would result in for a cat\n*/\ncontract RetroCatsMetadata {\n    uint256 internal s_maxChanceValue = 10000;\n    struct RetroCat {\n        Background background;\n        Frame frame;\n        Breed breed;\n        Eyes eyes;\n        Hair hair;\n        Bling bling;\n        Head head;\n        Item item;\n        Ring ring;\n        Earring earring;\n        Vice vice; \n    }\n\n    struct TraitMetadata {\n        uint256[34] backgrounds;\n        uint256[12] frames;\n        uint256[16] breeds;\n        uint256[10] eyes;\n        uint256[21] hairs;\n        uint256[22] blings;\n        uint256[21] heads;\n        uint256[22] items;\n        uint256[22] rings;\n        uint256[22] earrings;\n        uint256[22] vices;\n    }\n\n\n    enum Background{Black, Blue, Green, Grey, Orange, Pink, Purple, Red, Yellow, LightBlue, LightGreen, LightPink, LightYellow, D1B, D1O, D1P, D1Y, D2B, D2O, D2P, D2Y, D3B, D3O, D3P, D3Y, D4B, D4O, D4P, D4Y, D5B, D5O, D5P, D5Y}\n    enum Frame{Black, Brass, Browne, Glit, Gold, Leather, Pine, Silver, White, Wood, None}\n    enum Breed{Bengal, Calico, Chimera, HighColor, Mitted, Solid, Tabby, Tortie, Tuxedo, Van, Cloud, Lightning, Mister, Spotty, Tiger}\n    enum Eyes{BlueOpen, BlueWink, Closed, GreenOpen, GreenWink, OrangeOpen, OrangeWink, YellowOpen, YellowWink}\n    enum Hair{ Braid, Dreads, Fro, LongFlipped, LongStraight, Mullet, Muttonchops, Pageboy, ShortFlipped, None, BrownShag, GingerBangs, GingerShag, LongRocker, Pigtails, PunkSpikes, StackedPerm, TinyBraids, TVMom, Wedge }\n    enum Bling{BlueNeckscarf, CopperBracelet, DiscoChest, HandlebarMustache, LongMustache, LoveBeads, MoonNecklaces, PeaceNecklace, PearlNecklace, PukaShellNecklace, CollarCuffs, FeatherBoa, CameoChoker, Woodenbeads, GoldFringe, TurquoiseNecklace, OrangeBoa, CoralNecklace, SilverFringe, SilverMoon, SunnyBeads}\n    enum Head{AviatorGlasses, Daisy, Eyepatch, Headband, Headscarf, HeartGlasses, NewsboyCap, RoundGlasses, SquareGlasses, TopHat, BraidedHeadband, DaisyHeadband, DiscoHat, GoldTBand, GrandmaGlasses, GrandpaGlasses, GreenGlasses, RainbowScarf, RedBeret, TinselWig}\n    enum Item{Atari, Disco, Ether, FlooyDisc, Houseplants, LandscapePainting, LavaLamp, PalmSurboard, Record, RedGuitar, TennisRacket, NerfFootball, Skateboard, Personalcomputer, Afghan, Fondue, LawnDarts, Rollerskates, Phone, Bicycle, Chair}\n    enum Ring{Emerald, MoodBlue, MoodGreen, MoodPurple, MoodRed, Onyx, Ruby, Sapphire, Tortoiseshell, Turquoise, ChainRings, StackRings, NoseRing, MensGoldRing, MoonRing, EtherRing, OrbRing, GiantDiamond, TattooCat, TattooFish, TattooBird}\n    enum Earring{Coral, DiamondStuds, GoldBobs, GoldChandelier, GoldHoops, OrangeWhite, RubyStuds, SilverHoops, Tortoiseshell, Turquoise, None, BlueWhite, GreenWhite, SilverChandelier, SapphireStuds, EmeraldStuds, PearlBobs, GoldChains, SilverChains, PinkMod, GoldJellyfish}\n    enum Vice{Beer, Bong, Cigarette, Eggplant, JelloSalad, Joint, Mushrooms, PetRock, PurpleBagOfCoke, Whiskey, CheeseBall, ProtestSigns, TequilaSunrise, Grasshopper, PinaColada, QueensofDestructionCar, SPF4, SWPlush, SlideProjector, Tupperware, TigerMagazine}\n\n\n    uint256 public constant maxChanceValue = 10000;\n    string public constant purr = \"Meow!\";\n\n    /**\n    * @dev Percentages for each trait\n    * @dev each row will always end with 10000\n    * When picking a trait based on RNG, we will get a value between 0 - 99999\n    * We choose the trait based on the sum of the integers up to the index\n    * For example, if my random number is 251, and my array is [250, 200, 10000]\n    *      This means my trait is at the 1st index. 251 is higher than 250, but lower than\n    *      250 + 200\n    */\n    function traits() public pure returns(TraitMetadata memory allTraits) {\n        allTraits = TraitMetadata(\n            // backgrounds\n            [500, 1100, 600, 1000, 900, 1400, 700, 2000, 800, 400, 270, 30, 100, 1, 6, 11, 16, 2, 7, 12, 17, 3, 8, 13, 18, 4, 9, 14, 19, 5, 10, 15, 10, maxChanceValue],\n        // frames\n            [250, 150, 300, 200, 40, 10, 80, 70, 400, 100, 8400, maxChanceValue],\n            // breeds\n            [90, 600, 75, 400, 900, 2700, 2100, 155, 2600, 280, 35, 1, 5, 50, 9, maxChanceValue],\n            // eyes\n            [1200, 10, 2000, 1400, 90, 1800, 1000, 1600, 900, maxChanceValue],\n            // hairs\n            [600, 4, 1000, 1200, 1200, 1, 500, 300, 700, 1600, 400, 450, 5, 7, 80, 3, 650, 350, 750, 200, maxChanceValue],\n            // blings\n            [1100, 200, 800, 500, 200, 700, 1400, 400, 800, 600, 1200, 40, 2, 350, 250, 450, 5, 50, 300, 650, 3, maxChanceValue],\n            // heads\n            [1200, 1100, 1, 1300, 600, 300, 1000, 400, 350, 900, 250, 60, 4, 300, 550, 500, 30, 950, 200, 5, maxChanceValue],\n            // items\n            [90, 800, 1, 1400, 1200, 900, 700, 550, 1300, 1000, 6, 400, 600, 200, 50, 60, 150, 250, 40, 300, 3, maxChanceValue],\n            // rings\n            [400, 1000, 900, 600, 850, 1300, 1200, 800, 500, 700, 250, 200, 150, 200, 500, 60, 350, 30, 1, 6, 3, maxChanceValue],\n            // earings\n            [400, 1, 200, 90, 1200, 500, 200, 1000, 300, 600, 3000, 250, 450, 105, 7, 5, 375, 725, 575, 4, 13, maxChanceValue],\n            // vices\n            [1000, 420, 1100, 1300, 50, 1200, 1450, 7, 30, 500, 400, 550, 200, 650, 460, 1, 20, 54, 2, 600, 6, maxChanceValue]\n        );\n    }\n\n    function rngToCat(uint256 randomNumber) external pure returns (RetroCat memory retroCat){\n        TraitMetadata memory allTraits = traits();\n        \n        // retroCat = RetroCat(Background(traitIndexes[0]),Frame(1),Breed(1),Eyes(1),Hair(1),Bling(1),Head(1),Item(1),Ring(1),Earring(1),Vice(1));\n        retroCat = RetroCat({\n            background: Background(getTraitIndex(allTraits.backgrounds, getModdedRNG(randomNumber, 0))),\n            frame: Frame(getTraitIndex(allTraits.frames, getModdedRNG(randomNumber, 1))),\n            breed: Breed(getTraitIndex(allTraits.breeds, getModdedRNG(randomNumber, 2))),\n            eyes: Eyes(getTraitIndex(allTraits.eyes, getModdedRNG(randomNumber, 3))),\n            hair: Hair(getTraitIndex(allTraits.hairs, getModdedRNG(randomNumber, 4))),\n            bling: Bling(getTraitIndex(allTraits.blings, getModdedRNG(randomNumber, 5))),\n            head: Head(getTraitIndex(allTraits.heads, getModdedRNG(randomNumber, 6))),\n            item: Item(getTraitIndex(allTraits.items, getModdedRNG(randomNumber, 7))),\n            ring: Ring(getTraitIndex(allTraits.rings, getModdedRNG(randomNumber, 8))),\n            earring: Earring(getTraitIndex(allTraits.earrings, getModdedRNG(randomNumber, 9))),\n            vice: Vice(getTraitIndex(allTraits.vices, getModdedRNG(randomNumber, 10)))\n        });\n    }\n\n    function getModdedRNG(uint256 randomNumber, uint256 seed) public pure returns(uint256 modded_rng){\n        uint256 newRng = uint256(keccak256(abi.encode(randomNumber, seed)));\n        modded_rng = newRng % maxChanceValue;\n    }\n\n    function getTraitIndex(uint256[10] memory traitArray, uint256 moddedRNG) private pure returns(uint256){\n        uint256 cumulativeSum = 0;\n        for(uint i =0; i<traitArray.length; i++){\n            if(moddedRNG >= cumulativeSum && moddedRNG < cumulativeSum + traitArray[i]){\n                return i;\n            }\n            cumulativeSum = cumulativeSum + traitArray[i];\n        }\n        revert(\"Got a value outside of the maxChanceValue\");\n    }\n\n    function getTraitIndex(uint256[12] memory traitArray, uint256 moddedRNG) private pure returns(uint256){\n        uint256 cumulativeSum = 0;\n        for(uint i =0; i<traitArray.length; i++){\n            if(moddedRNG >= cumulativeSum && moddedRNG < cumulativeSum + traitArray[i]){\n                return i;\n            }\n            cumulativeSum = cumulativeSum + traitArray[i];\n        }\n        revert(\"Got a value outside of the maxChanceValue\");\n    }\n\n    function getTraitIndex(uint256[16] memory traitArray, uint256 moddedRNG) private pure returns(uint256){\n    uint256 cumulativeSum = 0;\n        for(uint i =0; i<traitArray.length; i++){\n            if(moddedRNG >= cumulativeSum && moddedRNG < cumulativeSum + traitArray[i]){\n                return i;\n            }\n            cumulativeSum = cumulativeSum + traitArray[i];\n        }\n        revert(\"Got a value outside of the maxChanceValue\");\n    }\n\n    function getTraitIndex(uint256[21] memory traitArray, uint256 moddedRNG) private pure returns(uint256){\n        uint256 cumulativeSum = 0;\n        for(uint i =0; i<traitArray.length; i++){\n            if(moddedRNG >= cumulativeSum && moddedRNG < cumulativeSum + traitArray[i]){\n                return i;\n            }\n            cumulativeSum = cumulativeSum + traitArray[i];\n        }\n        revert(\"Got a value outside of the maxChanceValue\");\n    }\n\n    function getTraitIndex(uint256[22] memory traitArray, uint256 moddedRNG) private pure returns(uint256){\n        uint256 cumulativeSum = 0;\n        for(uint i =0; i<traitArray.length; i++){\n            if(moddedRNG >= cumulativeSum && moddedRNG < cumulativeSum + traitArray[i]){\n                return i;\n            }\n            cumulativeSum = cumulativeSum + traitArray[i];\n        }\n        revert(\"Got a value outside of the maxChanceValue\");\n    }\n\n    function getTraitIndex(uint256[34] memory traitArray, uint256 moddedRNG) private pure returns(uint256){\n        uint256 cumulativeSum = 0;\n        for(uint i =0; i<traitArray.length; i++){\n            if(moddedRNG >= cumulativeSum && moddedRNG < cumulativeSum + traitArray[i]){\n                return i;\n            }\n            cumulativeSum = cumulativeSum + traitArray[i];\n        }\n        revert(\"Got a value outside of the maxChanceValue\");\n    }\n}\n","sourcePath":"contracts/RetroCatsMetadata.sol","type":"contract","deployment":{"address":"0x8B1cea4b8c3336c1E75C35782F6A06309fCbdb91","chainid":"4","blockHeight":9470219}}